:020000040800F2
:1000000070650020D1010008471100089D1000080C
:1000100045110008CD020008551500080000000039
:100020000000000000000000000000007D13000838
:10003000CF02000800000000031300087F1300082F
:10004000EB010008EB010008EB010008EB010008E0
:10005000EB010008EB010008EB010008EB010008D0
:10006000EB010008EB010008EB010008EB010008C0
:10007000EB010008EB010008EB010008EB010008B0
:10008000EB010008EB010008EB010008EB010008A0
:10009000EB010008EB010008EB010008EB01000890
:1000A000EB010008EB010008EB010008EB01000880
:1000B000EB010008EB010008EB010008EB01000870
:1000C000EB010008EB010008EB010008EB01000860
:1000D000EB010008EB010008EB010008EB01000850
:1000E000EB010008EB010008EB010008EB01000840
:1000F000EB010008EB010008EB0100080000000024
:10010000EB010008EB010008EB010008EB0100081F
:10011000EB010008EB010008EB010008EB0100080F
:10012000EB010008EB010008EB010008EB010008FF
:10013000EB010008EB010008EB010008EB010008EF
:10014000EB010008EB010008EB010008EB010008DF
:10015000EB010008EB010008EB010008EB010008CF
:10016000EB010008EB010008EB010008EB010008BF
:10017000EB010008EB010008000000000000000097
:10018000EB010008EB010008EB010008EB0100089F
:10019000EB010008EB010008000000000000000077
:1001A0000000000000000000EB010008EB01000867
:1001B000EB010008EB010008EB010008DFF80CD0B0
:1001C00000F072F8004800477925000870650020AB
:1001D0000648804706480047FEE7FEE7FEE7FEE7E1
:1001E000FEE7FEE7FEE7FEE7FEE7FEE7F91300089D
:1001F000BD010008202A06DBCB17203A41FA02F0A5
:1002000043EAE07306E041FA02F3D040C2F1200273
:10021000914008431946704710B5431A934209D2DA
:100220008318881803E010F8011D03F8011D521E01
:10023000F9D210BD40EA01039B0703D009E008C9C9
:10024000121F08C0042AFAD203E011F8013B00F89B
:10025000013B521EF9D210BDD2B201E000F8012BD1
:10026000491EFBD270470022F6E710B513460A4636
:1002700004461946FFF7F0FF204610BD30B50B4687
:10028000014600202022012409E021FA02F59D42C6
:1002900005D303FA02F5491B04FA02F52844151E9A
:1002A000A2F10102F1DC30BD064C074D06E0E0682A
:1002B00040F0010394E8070098471034AC42F6D3AD
:1002C000FFF780FF68E6020888E60208FEE770474D
:1002D00010B5682002F030FD04460020BCB184F85F
:1002E000640001200B4984F848000948C4E9011062
:1002F0001A2004F130012077204601F087FD2062AA
:1003000004F14C01204601F081FD6062204610BDE1
:100310008D1C0008DB1C0008B0B5044600F0D0F8C6
:1003200005468548611C406818BF044400F0C8F8C1
:10033000401BA042FAD3B0BD2DE9F84F534A4FF00D
:1003400008094FF0000E4FF0010A4FF0000B9042E9
:1003500000F1384208BF4FF007094FEAB223072BDC
:1003600038BF4FEAB22900220C6834FA02F508BF00
:1003700000F096B80AFA02F714EA070800F0808045
:100380004C6844F01005122D13D10BF01C040F2300
:1003900003FA04F56FF0030303EA520C00EB0C03BD
:1003A0001E6A26EA05050E6906FA04F42C431C624F
:1003B0004C680325066804F0030305FA0EF503FAFA
:1003C0000EF3AE43ED433343122C036011D80AFA07
:1003D00004F313F0061F0CD08368CE682B4006FA96
:1003E0000EF633438360230946689340BE4333438C
:1003F0004360C3682B408D6805FA0EF52B43C3603C
:10040000E3003DD5244C224F22F0030523683D44F0
:1004100043F00103236023680F2403F001030093DA
:100420000BF00C03009E9C4009FA03F31B4EB446EC
:10043000AE5926EA0404234345F80C303B684D6866
:1004400043EA0804EE0358BF23EA08043C60AE0305
:100450007B6843EA080458BF23EA08047C60EE0284
:10046000BB680C4E43EA080458BF23EA0804BC608A
:10047000AD02336843EA080458BF23EA0804346035
:100480000EF1020E0BF1040B01326DE7001C004867
:10049000000401400C0401406010024008FCFFFF12
:1004A00018BCBDE8E08F426928230A4208BF182320
:1004B000C15070471823002A08BF2823C150704735
:1004C00005480068704700BF1B48034940680A6838
:1004D00010440860704700BF6C05002080B5032001
:1004E00000F060F8002000F007F808B1012080BD9E
:1004F00000F024F8002080BD70B50F4E04467068EF
:10050000B0B14FF47A71B1FBF0F0D7490968B1FB93
:10051000F0F000F0EDFC01250F2C0AD848B94FF09F
:10052000FF3021460022002500F020F8346000E072
:100530000125284670BD00BF0C00002082B00A488B
:10054000816841F001018160816801F00101019140
:100550000199016841F080510160006800F080500D
:100560000090009802B070475810024070B5134BCD
:100570004FF0FF351B68C3F30223DC1E83F0070333
:1005800038BF002405FA04F6B243042B28BF042325
:1005900005FA03F39943A1401143BDE8704000F010
:1005A000DBBF00BF05494FF6FF030A681A4060F33E
:1005B0000A22034810430860704700BF0CED00E0BA
:1005C0000000FA0519483222016821F480410160D7
:1005D000D84909685143094AB1FBF2F101314A1E79
:1005E00043698A4203D213F400711146F7D140697E
:1005F0000321800501EAE070704700BF40420F0010
:100600000A48016841F48041016070470748016869
:1006100001F4C061B1F5806F0FBF4FF48060D0F876
:1006200080004FF4007101EA400070470070004004
:1006300010B50C460D49096801F4007118B139B9BB
:10064000FFF7DEFF04E019B1FFF7BCFF00B110BDFA
:100650000748012C016821F00401016004BF30BF8C
:1006600010BD40BF20BF20BF10BD00BF14700040B0
:1006700010ED00E02DE9F047002800F0EA80764D0B
:1006800004468946286800F00F0088420BD228688B
:1006900020F00F0040EA09002860286800F00F00F1
:1006A000484540F0D68020686C4EC10703D18107D1
:1006B00000F19A809EE06168E9B1022920D0032907
:1006C00023D156F8081C890140F1C380716801F0FC
:1006D000030101292CD156F8081CC14A090747BF5C
:1006E00056F8081C0909D6F88C10090A01F00F0108
:1006F00052F821101DE056F8080C80070AD4A8E033
:1007000056F8080C800305D4A3E056F8080C400501
:1007100040F19F8000F016F95149AA46884233D92A
:10072000306808214FF0010861F30710306031E0B4
:1007300000217268AA4602F00302022A03D0032AAB
:1007400008BFA64900E0A449726873683546766818
:100750000227C2F30312C3F30623C6F341665943CB
:10076000013207EB4606B1FBF2F13D4AB1FBF6F16F
:1007700091420CD929682E4611F0F00FD0D0800795
:1007800002D5A0680028CBD04FF0000802E04FF05F
:1007900000082E4660683168354621F003010843A1
:1007A00000F053FD064641F2883729466068296803
:1007B00001F00C01B1EB800F07D0FFF781FE801B29
:1007C000B842F2D90320BDE8F0872068810709D438
:1007D000B8F1000F1EBF296821F0F00129602E46F4
:1007E000554607E02E465546A168326822F0F002D1
:1007F00011433160296801F00F0149450AD9296880
:1008000021F00F0141EA09012960296801F00F0177
:1008100049451ED1410705D5E168326822F4E062FE
:1008200011433160000706D52069316821F4605119
:1008300041EAC000306000F085F83168094A00F0F4
:1008400032FD3C4908603D480068BDE8F047FFF7CD
:1008500053BE0120BDE8F08700200240081002408E
:1008600000B4C4043C3200081400002070B5594D97
:10087000286840F001002860FFF722FE044628683F
:10088000800706D4FFF71CFE001B0228F7D90320BF
:1008900070BD2868062161F30710274928600020F1
:1008A000A8602448016025480068FFF725FE08B1CC
:1008B000012070BDFFF704FE044641F28836A868A7
:1008C00010F00C0F05D0FFF7FBFD001BB042F6D96E
:1008D000DDE728681A4908402860FFF7F1FD044663
:1008E000286810F0285F05D0FFF7EAFD001B0228FA
:1008F000F6D9CCE70020E860E96841F48051E9606E
:100900002861296941F4805129616861696941F46C
:1009100080516961296821F4802129604FF0FF31FD
:10092000A8612962D5F8941041F40001C5F894102B
:1009300070BD00BF1400002000093D000C00002025
:10094000FFF4FEEA10B523498A68C86812F00C0269
:1009500005D00C2A1FD100F0030001281BD1086824
:100960001F4B000747BF08680009D1F89400000A30
:10097000002A00F00F0053F82030184618BF00205E
:100980000C2A21D1C86800F00300022809D00328EE
:1009900008BF124B06E0042A17D0082A17D10F48C7
:1009A00010BD0D4BC868CA68C9680224C2F306228C
:1009B000C0F30310C1F341615A43013004EB41011C
:1009C000B2FBF0F0B0FBF1F010BD034810BD002009
:1009D0000023D5E7001002400024F40000127A0042
:1009E0004CD502082DE9F843002800F05381D74E7A
:1009F0000446B06800F00C08F06800F003072078A7
:100A0000C0061BD42078C00758D0B8F1080F4ED0CC
:100A1000B8F10C0F08BF032F49D06068B0F5803FD4
:100A200007D0B0F5A02F40F0B281306840F48020AC
:100A30003060306840F480303060B3E1B8F1000FCE
:100A400019D0B8F10C0F08BF012F14D03068A1697C
:100A5000002900F0448140F0010000F0F6FB05465B
:100A60003068800700F14A81FFF72AFD00F0C4FBDF
:100A7000F6D9BDE8F8833068800703D5A06900285F
:100A800000F00881206A316809075ABFD6F894102F
:100A90000909316801F0F001884240F2E88000F075
:100AA00031FC002840F0F68000F056FBF5E030689D
:100AB000800303D56068002800F0EC802078800770
:100AC00028D5B8F1040F17D0B8F10C0F08BF022FCA
:100AD00012D03068E168002900F0728140F4807023
:100AE00000F0B3FB0546306840050CD4FFF7E8FC86
:100AF00000F082FBF7D9BCE73068400503D5E06819
:100B0000002800F0C7802069716821F0FE4141EAA9
:100B1000006070602078000747D4207840075BD4DD
:100B20002078800600F18C80A06AD8B3B8F10C0F51
:100B300040F0E780012800F0AD80E16AF06800F045
:100B400003028A4240F0A680216B6FF00F0202EB95
:100B5000011100F0F0028A4240F09C80616B00F4C9
:100B6000FE42B2EB012F40F09580A16B00F078427D
:100B7000B2EBC16F40F08E80E16BDA4A02EB0151BB
:100B800000F4C0026FF314018A4240F08380216CAC
:100B90004FF07E4200F0C06002EB016101F07E4147
:100BA000884277D10020BDE8F883D6F894006169C7
:100BB000002900F0828040F00100C6F89400FFF7A1
:100BC0007FFC0546D6F894008007A6D4FFF778FC92
:100BD000401B0228F6D9D7E0B06D10F0805908D13B
:100BE000B06D40F08050B065B06D00F08050009066
:100BF0000098B94F3868C0050FD4386840F4807049
:100C00003860FFF75DFC05463868C00505D4FFF77E
:100C100057FC00F0F1FAF7D92BE7A068012808D0BB
:100C2000052840F09580D6F8900040F00400C6F802
:100C30009000D6F8900040F00100C6F8900095E0D2
:100C4000D6F89800616A00296ED040F00100C6F81D
:100C50009800FFF735FC0546D6F8980080073FF569
:100C600063AFFFF72DFC00F0C7FAF5D901E7316853
:100C700041F008013160316821F0F0010143316039
:100C8000E169726822F47F4242EA0121716000F05A
:100C900039FB10B10120BDE8F883FFF753FEB168BE
:100CA0008A4A00F000FB8A4908608A480068FFF71A
:100CB00023FC00287FF4DDAEA4E620F00100C6F896
:100CC0009400FFF7FDFB0546D6F8940080077FF5FA
:100CD00024AFFFF7F5FB00F08FFAF5D9C9E620F055
:100CE000010000F0B2FA0546306880077FF58AAE51
:100CF000FFF7E6FB00F080FAF6D9BAE600F02CFA2E
:100D000080E63168022821F08071316067D1FFF7F9
:100D1000D7FB05463068800140F19480FFF7D0FB97
:100D200000F06AFAF6D9A4E620F00100C6F89800AF
:100D3000FFF7C6FB0546D6F8980080077FF5F4AEAE
:100D4000FFF7BEFB00F058FAF5D992E6001002401A
:100D5000D6F89010002821F00101C6F89010D6F8BE
:100D6000901021F00401C6F8901052D0FFF7A8FBB4
:100D7000054641F28837D6F89000800759D4FFF72E
:100D80009FFB401BB842F6D90320BDE8F8833168C9
:100D9000002821F480313160316821F480213160F4
:100DA00000F08680FFF78CFB0546306880033FF536
:100DB00085AEFFF785FB411B03206429F5D958E672
:100DC00020F4807000F041FA0546306840057FF558
:100DD000A1AEFFF775FB00F00FFAF6D949E63068CF
:100DE00010F0205F03D1F06820F00300F060F0689D
:100DF0003A490840F060FFF763FB04463068800121
:100E00007FF5D0AEFFF75CFB011B03200229F5D96B
:100E10002FE6FFF755FB054641F28837D6F89000DC
:100E2000800706D5FFF74CFB411B0320B942F5D9DB
:100E30001FE6B9F1000F7FF473AEB06D20F0805063
:100E4000B0656DE604F12C036FF00F05244F0FCB56
:100E500005EB0111F5683D4028430843E16B40EA8A
:100E60000220204A02EB01514FF07E426FF3140141
:100E70000843216C40EAC36002EB016101F07E414E
:100E80000843F060306840F080703060F06840F0F7
:100E90008070F060FFF714FB0446306880013FF576
:100EA00081AEFFF70DFB011B03200229F5D9E0E518
:100EB000FFF706FB0546306880037FF5FFADFFF7BF
:100EC000FFFA411B03206429F5D9D2E53C32000822
:100ED000140000200C00002000700040FFFFEEFE18
:100EE0000C809D010000E0FF0C4800F030B900BF0D
:100EF000411E0020B0EB116F1CBF01207047074A54
:100F0000F023516002490B70072190601160704717
:100F100023ED00E0014800F093B900BF10E000E0CD
:100F2000B0B590F83C300222012B1ED080F83D2055
:100F30000F4D026854689368AA4202D00D4DAA4230
:100F400003D14D6824F470042C430D68896824F0A3
:100F5000700423F080032C431943546091600022F5
:100F6000012180F83C2080F83D101046B0BD00BF44
:100F700000340140002C014060B110B500F0A0F930
:100F800003D100F075F900F007F800F0B3F9012083
:100F900000F09BB90120704781B000680749884282
:100FA00009D1F548016841F008010160006800F0CE
:100FB00008000090009801B0704700BF000C00408E
:100FC0000221084B80F83D1001688A681A40062A01
:100FD00006D0B2F5803F03D00A6842F001020A60F1
:100FE00000F07AB907000100B0B500F056F91CD046
:100FF00084F83D000120284D84F83C00206802461A
:1010000052F8083F2B4013600B682BB1102B03D014
:10101000202B18BF302B09D1106820F07000184326
:1010200040F00700106000F031F9B0BD402B0DD04A
:10103000502B15D0602B1DD0B3F5005F27D0702B3F
:10104000F1D100F0F0F840F07700EBE700F049F95B
:10105000226852F8080F40F0470020F03000E1E726
:1010600000F03FF9226852F8080F40F0570020F0D6
:101070002000D7E74B68CA68194600F05AFA226880
:1010800052F8080F40F0670020F01000CAE700F0A7
:10109000CAF840F48040C5E78800FEFFFEE7000084
:1010A0002DE9F84305468C20984617460E4601F078
:1010B00043FEB8B3044601202149DDF8209084F8AE
:1010C000880084F87C0084F860001C48C4E90110A2
:1010D000132004F148012077204600F097FE20629B
:1010E00004F16401204600F091FE606204F180008A
:1010F000B9F1010F84F84290A4F83A80C4F8367030
:10110000A686256320610FD14FF0FF30022210FA2E
:1011100085F100EB154091FBF2F190FBF2F0A18715
:10112000012104E0002405E000200021A087A4F8AC
:101130004010E0872046BDE8F88300BF352900084D
:10114000BF290008FEE77047BD69044650470168A3
:1011500041F0020101607047306840F008003060E3
:10116000D4E90701326822F0F0021143316071685E
:1011700021F47F4141EA00207060704701234280E2
:10118000018083807047417440684A001946FFF728
:1011900043B8002398E8C0011B928A88ED683F6835
:1011A0001C920A884988D5E900C5199131681A92BC
:1011B000B0F84220B5F804906C88367C2D881891E0
:1011C000818F1791018F1691C18E1591B0F844103F
:1011D000C06DCDE911337047C4E90110022004F15C
:1011E00040012077204600F011BE91FBF2F2616AC7
:1011F000C96849680A807047411B0320022970476B
:1012000084F8A00084F8940084F87800042004F1A5
:1012100060012077204600F0F9BD206204F15C01F6
:10122000204600F0F3BDD1E90103C968184340EA44
:101230000120116821F47F41084310601068704755
:10124000016821F00201016070473060FFF738B992
:1012500008B000F000B830BCBDE8C08F0A6849682B
:1012600000F15008456AB0F832A0B0F830B07047CD
:10127000002084F83C00204670471598059014988B
:10128000069013980790DDE91903704700200121AB
:1012900084F83C0084F83D10704790F83C200446E8
:1012A0000220012A7047C1F30311515C01F01F01B4
:1012B000C8407047206204F17C01204600F0A6BDC2
:1012C000044690F83D000028704784F83D00002057
:1012D00010BD046801F02BBE012180F83D100020F4
:1012E00070474B68CA68194600F012B94068817CA3
:1012F000102970470220211D84F83D00206800F06D
:10130000A1B87047BCB51C4D04462868C0000FD476
:10131000286840F080502860286800F080500190D4
:101320000198FFF773F9296821F08051296001E0E5
:10133000FFF76CF9B0F5007F06D1812C0DD30120A9
:10134000A02C88BF022009E07F2C8FBF0220A4F1CF
:101350007000B0FA80F0400900E0002025490A68DA
:1013600022F00F0202440A60096801F00F01081A16
:1013700018BF0120BCBD00BF581002407047FFF7E6
:10138000A3B80000F0B597B012AC06461421204671
:10139000FEF769FF01AD2421281DFEF764FF154803
:1013A0000327016867F303010160FFF75FFA60201C
:1013B000102172080026099001200191022108964F
:1013C0000790CDE90D02CDE90B100420119110908A
:1013D00007200F902846FFF705FB0F200421CDE9D9
:1013E0001566CDE9137612902046FFF743F917B042
:1013F000F0BD00BF0020024010B50F48104CD0F8DF
:10140000801041F47001C0F880100C490A6842F065
:1014100001020A6000228A600B6823400B604FF4CF
:101420008053CB600B6823F480230B608A614FF0FC
:101430000061016010BD00BF08ED00E00010024037
:10144000FFFFF6EA70B5294A0368904218BFB0F171
:10145000804F3DD14C6823F070032343904217D056
:10146000B0F1804F14D0224CA04211D0214CA042A8
:101470000ED0224CA0420BD01F4CA04208D0204CD2
:10148000A04205D01F4CA04202D01F4CA04203D165
:10149000CC6823F4407323434E6923F080030C6827
:1014A0008D68334390420360C56284620BD0174A53
:1014B00002444FEAB222052A07D8012303FA02F2B6
:1014C00012F0390F01D0096901630121416170BD3A
:1014D000074CA042BED0074CA042BBD0064CA04255
:1014E000B8D0064CA042B5D0BAE700BF002C0140EE
:1014F000000400400008004000340140000C00409F
:1015000000400140004801400044014000CCFEBFC3
:1015100010B5036A046A24F001040462846924F0AB
:10152000F00444EA0212826123F00A0211430162CC
:1015300010BD036A23F010030362836923F4704330
:1015400043EA0232036A826123F0A00242EA0111F7
:1015500001627047FEE7000010B5074C00F00F0372
:10156000B0F1FF3F034A2344C8BF83180801187035
:1015700010BD00BF00E400E014ED00E000F0FC004E
:10158000042808BF072108467047000080B50C20DA
:1015900001F0D2FB012101720149016080BD00BF51
:1015A000E32D00080022602A04D081180B7A13B1C1
:1015B0000C32F8E700210846704770B5002200237E
:1015C000602A07D085186C6A24B1CE1823440C32E7
:1015D0002E62F5E7002070BD40F29311401A18BF4B
:1015E000012070472DE9F84F4FF0010A90468B46D5
:1015F00005466E46002BCDF800A018BF1E46BBF175
:10160000000F00F0F680DBF82070386800283846BC
:1016100006D000B301688268096901611046F8E7E5
:101620003869C8B94046FFF7BDFF0446007A01306B
:101630002072F86801F07BFC81073C6184F809A006
:1016400020F0030118BF081D6168884298BF084652
:10165000DBF82070606057B1B86840B13FB13869BD
:10166000002873D0407A012870D1BF68F6E7DBF814
:10167000081058468847AB4508D02846016819B17C
:1016800058450846FAD101E0C0F800B0DBF8104038
:101690009CB14046FFF786FF017A206080F809A0E0
:1016A0000131017261688A0721F0030218BF111D20
:1016B0004268914298BF1146416030680130306005
:1016C000DBF8200000F0BDFB5F4657F8240F00F068
:1016D000B8FB3C68002C00F08C80A068C0BB606840
:1016E000B0BBDBF82000017E19B3217E09B3404670
:1016F000FFF758FF002800F08080814640F201107B
:10170000A9F80800E06801F012FCDBF82410C1F829
:101710001090810720F0030118BF081DD9F80410AC
:10172000884298BF0846C9F80400584601F04EFBAD
:1017300001E000692061584601F042FBDBF824001B
:101740000068002855D0D0F814B058E7F82051E0D0
:10175000DBF82000017E31B3217E21B34FF0010977
:1017600084B3206870B34046FFF71CFF0028206157
:1017700043D0E06801F0DBFB810720F0030118BFD4
:10178000081DD4F810A0DAF80410884298BF084663
:10179000CAF80400204601F0C5FAA4688AF8099046
:1017A0008AF80800DCE7D0F810902046C4F81090C2
:1017B00001F0B8FA012189F8091099F808100844D5
:1017C00089F80800584601F001FB584601F0F8FA84
:1017D0003C6874B127464FB1386838B14169284632
:1017E00042463346FFF7FEFE7F68F4E704F1080740
:1017F000EEE7002040B200F002B8F920FAE718BC8A
:10180000BDE8E08FF8B50446006AE26C0168C9687B
:10181000C160497C002001F05BFAD4E90812D06075
:10182000C96801F007FBD4E90805216D6269C36846
:1018300089689868096800680844A16D0968411AB8
:10184000E868856829604AB1107AFFF797FE01467B
:10185000D4E90820C06883681960D368D3F804C04D
:1018600094F84820BCF8003073B1E58E278EB4F8A8
:1018700042602B44C7F10107013B012A18BF07FB57
:101880000633B3FBF5F500E0002543681D80BCF886
:10189000025075B1268F618EB4F844703544C1F1A1
:1018A0000101013D012A18BF01FB0755B5FBF6F503
:1018B00000E00025E16C012A5D80998014D10021AF
:1018C000628E0225A4F84010B4F84410531E594308
:1018D000238E91FBF5F15E1EE187B4F8421071434F
:1018E00091FBF5F1A18701E0238E628E03FB02F1EB
:1018F000BCF8042001FB02F501F019FB6843A0626B
:101900000020F8BD10B50446806928B9206D00F0AC
:10191000F6F8606D00F0F3F8002010BD2DE9F04FEF
:101920009BB0016AC9688A7C102A1BD1FFF796FC1C
:10193000B0F83EE04DF808EDFFF72BFC5DF808EB42
:1019400008ABCDE90D6CCDE90F45CDE90B08169834
:1019500086C3DDE917128DE8014EFFF78EFC00F01B
:1019600095FA1AE0FFF77AFCB0F83EE04DF808ED82
:10197000FFF70FFC5DF808EB08ABCDE90D6CCDE986
:101980000F45CDE90B08169886C3DDE917128DE8DF
:10199000014EFFF772FC00F07BFB00201BB000F053
:1019A00000B830BCBDE8C08F7CB50546A42001F06E
:1019B000C3F978B304460120FFF722FCFFF77AFC55
:1019C00060623A483A493B4AA56104F13006C4E9ED
:1019D0000121E060A868407C03281DD195F91C20F6
:1019E0006846012100F040FABDF804000121B080F2
:1019F00000983060684695F91E2001F019FABDF88C
:101A00000400012160870098C4F83600684695F903
:101A100022201FE0002447E095F91D2095F91C10B5
:101A2000684600F021FABDF80400B08000983060EC
:101A3000684695F91F2095F91E1001F0F9F9BDF8D7
:101A4000040060870098C4F83600684695F92320A2
:101A500095F9221000F010F9BDF8040004F15006C9
:101A6000A4F846000098C4F84200A869E06495F81C
:101A70002400083584F8480001282ECD2EC613D145
:101A8000218E0020628EA4F84000B4F84200013993
:101A9000013A4843022190FBF1F0A087B4F84400DA
:101AA000504390FBF1F0E08720467CBD051900080B
:101AB000051800081D190008B0B5016A0446086839
:101AC000C068457CC86001F0E2F902460020294662
:101AD00001F0FEF8D4E90812D060C96801F0AAF953
:101AE000606950B1616A007AC96889680968FFF75E
:101AF00045FD616AC968896808600020B0BD01F0D1
:101B000027BB00007FB5016A04460868C068C8604A
:101B100001F0BDF9024600200121012501F0D8F8AD
:101B2000616A0823C860D4E90C12ADF80E10D2E93E
:101B30000212CDE900530DF10E0301F0C8F9D4E90A
:101B40000803616B6269C0688968DB688568096839
:101B50009B682D682944E56B2D68491B196042B1CB
:101B6000107AFFF70BFDD4E90812D2689268106072
:101B7000C868084EB0472169226A40004860D068B2
:101B8000B0470546606AC068B0476843A06200205D
:101B900004B070BD2F2F000810B50446806928B925
:101BA000606BFFF7ACFFA06BFFF7A9FF002010BD33
:101BB0002DE9F04385B00446006AD4E90F23616B38
:101BC000C068D1F800801F881588D0F8009001F017
:101BD000AEF9626A2169A46BD2680968D2E9006231
:101BE00009681388226804914146CDE90075CDE962
:101BF000022682B2484600F047FB002005B0BDE84F
:101C0000F0830000B0B50546882001F095F850B388
:101C10000446012084F8840084F8780084F85C008D
:101C2000082004F144012077204600F0EFF82062FC
:101C300004F16001204600F0E9F80C49606204F10B
:101C40007C000B4A0B4BC4E90310A868C4E90132BD
:101C500001F01DF905F108032063A56104F13405C5
:101C60000FCB0FC500E000242046B0BD991B000833
:101C7000051B0008B11B0008FFF780BA20B1416ABC
:101C8000096811B14869FAE700207047BFB5016AD9
:101C900004460868C068457CC86001F0F8F8024650
:101CA0000020294601F014F8616AC860206AC06803
:101CB00001F03DF9ADF80E00D4E908100823012425
:101CC000CA68C068D2E90212CDE900430DF10E03E3
:101CD00001F0FDF8002004B0B0BD0020704710B541
:101CE0000446FEF7F5FA00B1846110BD0849D1F849
:101CF0008020D2070BD00968C90708D04FF0604197
:101D00000A680AB900BFFBE74FF0604108707047EE
:101D1000000E00E0B0B50446006AC068457C01F0E2
:101D2000B6F802460020294600F0D2FFD4E9081296
:101D3000D060C96801F07EF80020B0BDB0B5016A7E
:101D4000C46BC868056801F0F2F8024628462146CF
:101D5000FEF762FA0020B0BDBFB50546782000F05E
:101D6000EBFF04460020E4B184F87400012026490A
:101D700084F858002348FFF72FFAFFF74EFA606205
:101D80006868417C02290ED0406801291FBF838802
:101D90004288018802A801BF038802A8012101220C
:101DA00006E000242AE0406801214388028802A856
:101DB00001F03AF8BDF80C00A0860298206368682C
:101DC00001688268E1631168A163218EADF8081093
:101DD000D4F83210CDF80A1001F059F8024600206C
:101DE0000321032500F074FF226AA16BD060082252
:101DF000CDE9005202AB002201F08AF8204604B07F
:101E0000B0BD00BF151D00083D1D00084861084613
:101E1000704770B504469CB12546D4E9010420B151
:101E2000466801F095F93046F9E76869016A8D4224
:101E3000F1D0406A8542EED0284601F089F9EAE700
:101E400070BD10B530B1044624B1E06801F06FF800
:101E5000A468F9E710BD10B5044624B1E06801F0AC
:101E600077F9A468F9E710BDFFF788B9B0B550B1AC
:101E70004168044688470546606908B1016888479B
:101E80000020E06200E0FF2568B2B0BD2DE9F04F10
:101E90009BB0DDF8988009909A462D9DDDF8B8E05A
:101EA0004FF0000C0A9108FB03F02C9B1690581E73
:101EB000089008440790681E059010442A9A0490E0
:101EC00003FB0AF04FEA400905FB0AF048434000D3
:101ED00015902998404202902898404203903198EA
:101EE0000138B0FA80F04009019000200D900020E8
:101EF0000C902598844500F0C58002980021CDF80B
:101F00002CC011903498814200F0B1803398069132
:101F10000027484310902B9848432999401A049968
:101F2000091A0F910599081A0E9003981490339886
:101F3000874200F095800F9890FBF5F12798814239
:101F4000C8BF0146189107FB02F013972899401A61
:101F50000799091A91FBF3F74745C8BF47460E9901
:101F600091FBF5F121EAE1760899081A90FBF3F06C
:101F7000BEF1000F20EAE070179010D02F980C9A55
:101F80001EF90C1050F8220001FA00F0309951F8B7
:101F9000222001219140129200EB610007E030986D
:101FA0000C9950F821100120884012914010119A8C
:101FB0001499179C03FB041105FB06220A9B03FBE3
:101FC0000211099A0AFB01F102EB41030D99249ACF
:101FD000314408FB01410AFB012CC117189A9642B3
:101FE00022DADDF85CE0E34698461A961993BE457E
:101FF00012DA5D46434654464CB133F9026B15F98B
:10200000012B7243801841EBE271013CF4E7D344A9
:10201000C8440EF1010EEAE7169A1A9E199B9444E1
:10202000159A01361344D9E7129AFEF7E3F810998E
:10203000139F259ADDF82CC000F30F000DF1B00EB0
:10204000DDF898809EE828403944013701FB02C141
:10205000329A22F811002A9A14981044149066E7D4
:102060002B98119901441191069901314AE70D9875
:1020700027990CF1010C08440C990D90019801442A
:102080000C9136E71BB000F000B830BCBDE8C08F43
:102090002DE9F04F99B0DDF8A8A0DDF89080089008
:1020A0009946DDF8B0C0099108FB03F00AFB03F77D
:1020B0002B9B159003FB09F048431490AAF10100F3
:1020C0000790084400210690581E04901044289A56
:1020D00003902798404201902698404202902F9802
:1020E0000138B0FA80F04009009000200B900020E9
:1020F0000A902398814200F0C1800198109100213C
:102100000F903298814200F0AE8031980591002402
:1021100048430E90299848432799401A0399091A71
:102120000D910499081A0C900298139031988442EA
:1021300000F092800D9890FBF3F125988142C8BF82
:102140000146179104FB02F02699401A0699091AD4
:1021500091FBFAF24245C8BF42460C99129491FB9A
:10216000F3F121EAE1760799081A90FBFAF0BCF145
:10217000000F20EAE070169011D010992D980A9C5B
:1021800050F824001CF9011001FA00F02E9951F8C2
:1021900024400121A140119400EB610407E02E9836
:1021A0000A9950F8211001208840119144100F998C
:1021B0001398169D03FB06110AFB0500099B03FB00
:1021C0000100089909FB001E0B982299304408FB76
:1021D000005009FB00151798864220DADDF858A058
:1021E000189628467646924510DA0146F0464B4648
:1021F0003BB118F901BB11F901CB013B1CFB0B44AE
:10220000F6E74844BE440AF1010AECE71598B646E1
:102210000544149806EB000E189E0136DBE70E9875
:10222000DDF848E02399109ADDF89080DDE92AA3D3
:10223000DDF8B0C070440EF1010E00FB01201199D1
:10224000309A44FA01F1744601F307011154289AB7
:1022500013981044139069E729980F9901440F913E
:10226000059901314DE70B98259908440A990B907F
:10227000009801440A91109901313AE719B000F031
:1022800000B830BCBDE8C08F2DE9F04F89B00746DB
:102290000C20DDF84CC0DDE914E900EA820003906F
:1022A0000120CDF818E000FA0CF04FEA600802F0C7
:1022B000030002909008CDE90487CDE900309B0827
:1022C000180400F0B680BEF1000FCDE9073917D031
:1022D000069C129B94F90300984000EB080994F9BE
:1022E0000200984000EB080B94F90100984000EBC5
:1022F000080E94F90000043406949840804402E0EB
:10230000C146C346C646DDF804A0BC465FEA0A449F
:102310004DD09CF9004091F905609CF9017091F94C
:102320000D5091F90F00AAF1010A16FB04939CF9D4
:10233000026091F9079019FB063315FB07339CF9EE
:1023400003500CF1040C10FB053991F9040091F9CC
:10235000063010FB04B013FB060091F90C3013FBA0
:10236000070091F90E3013FB050B91F9010091F96B
:10237000033010FB04E013FB060091F9093013FB56
:10238000070091F90B3013FB050E91F9000091F94C
:10239000023010FB048013FB060091F9083013FB98
:1023A000070091F90A30103113FB0508AEE7029ED1
:1023B0000024300416D001EB84001CF904300134F1
:1023C000013E90F9035015FB039990F9025015FB5B
:1023D00003BB90F9015090F9000015FB03EE10FBD0
:1023E0000388E6E7DDF84CC0079B49FA0CF0DDF8FE
:1023F0002090013B00F3070089F803004BFA0CF032
:1024000000F3070089F802004EFA0CF0DDF850E006
:1024100000F3070089F8010048FA0CF0DDE90487B1
:1024200000F3070089F80000039809F1040901444A
:1024300046E7009800F0030003041DD0BEF1000F32
:1024400005D01EF9013B129CA340434402E04FF02B
:10245000000E43460024A24205D03D570E570134DA
:1024600016FB0533F7E743FA0CF31144013803F385
:10247000070309F8013BDFE709B000F000B830BC02
:10248000BDE8C08F2DE9F04F88B000240FFA84FC1E
:102490009C4556DA00940024189D019424B2AC4265
:1024A0004CDA179D65430395169D6C43149D651B7F
:1024B000129C02952C4400250794179C2EB2A6422C
:1024C00039DA159C0595139DDDF808900496744340
:1024D0006FF08006651B119C06952544079C0FFA3A
:1024E00089F844451DDD069F08FB01FE0FFA87FBB6
:1024F0005D4513DD8B45B8BF90450DDA47EA090A03
:102500000FFA8AF4002C07D40EEB0B0404FB03C46F
:102510000457A642B8BF26460137E7E709F101098B
:10252000DCE7DDE903452C441A9D04FB03C42E556A
:10253000059D0135C1E7019C0134ADE7009C0134E4
:10254000A4E7FEF785BE002241B1B0F90030B3F137
:10255000FF3FD8BF028002300139F5E77047002203
:1025600041B190F90030B3F1FF3FD8BF02700130A4
:102570000139F5E7704700008AB0FDF7AFFF18207A
:10258000FEF700FF4FF00008AD48AE4D00224FF4BB
:102590008144CDF81880016841F0020101604FF4D8
:1025A0008141006800F00200079007982846FDF777
:1025B00081FF0120CDE90488CDE9024002A9284627
:1025C000FDF7BAFEDFF88092A048CDF81480CDE97F
:1025D0000388CDF82480CDE907884C4644F8080FDD
:1025E0004FF0FF30C4E903082046C4F81880C4E95E
:1025F0000188FEF7C1FC4FF48050029002A92046EA
:10260000FEF7F2FCCDF82480CDF81C8007A9204607
:10261000FEF786FC2046FEF7D3FC20688021C0F838
:1026200024802846FDF73FFF4FF47A70FDF774FED3
:1026300028468021FDF737FF85A089A100F088FC9E
:1026400089A000F0E9FD2068406A019040F29310F3
:10265000FEF7C2FF894F384600F016FB8848FFF7A7
:102660007BFB054600908748DFF81CB2FC68D84722
:102670002946A047DFF814A2BE690446D047214688
:10268000B04704468248834EFD68B0472146A847BC
:1026900004468148FD68D8472146A847FEF754FD07
:1026A0002146A84704467D48FD68B0472146A84713
:1026B00004467B48FD68D8472146A847FEF744FDFD
:1026C0002146A84704467748FD68B0472146A847F9
:1026D00004467548FD68D8472146A847FEF734FDF3
:1026E0002146A84704467148FD68B0472146A847DF
:1026F00004466F48FD68D8472146A847FEF724FDE9
:102700002146A84704466B48FD68B0472146A847C4
:1027100004466948FD68FFF7E2FA2146A8470446E7
:102720006648FD68FFF76EFA2146A84704466448EC
:10273000FD6800F029FB2146A8470099024638466B
:1027400000F0C9F90FF2A01B6DA565A64FF0000AB5
:10275000B8F1960F49D03B484FF48041FDF7A3FEF6
:10276000584908EBC8004FF4906201EBC01156487D
:10277000FDF752FD414800F06AFA54A000F0E8FB72
:102780000024062C06D019F90410304600F0E0FBB6
:102790000134F6E70A2000F039FD00276FF07F00D2
:1027A0000021062907D019F901209042BCBF0F462D
:1027B00010460131F5E75846394600F0C9FB4F484D
:1027C00010F908402846214600F0C2FB1D484FF48E
:1027D0008041FDF768FE3220FDF79EFDA74208BF4D
:1027E0000AF1010A08F10108B2E7244800F0AEF945
:1027F000642096210AFB00F0B0FBF1F1D9F8080043
:10280000446A444800F0A4FB0198211A42A000F059
:102810009FFB0C4C80212046FDF745FE4FF47A705B
:10282000FDF77AFD20468021FDF73DFEFEF772FBA5
:102830004FF480400221FDF7FBFEFEF755FBF5E764
:102840004C1002400004004818000020000C00401A
:102850002044617461736574733A2025730A0A0019
:1028600064617461736574003D3D3D20496E666529
:102870007272696E67203D3D3D0A0000E40400204D
:1028800028D70208D8D60208A91900088D15000813
:1028900070D70208292A000818D6020830D7020883
:1028A00048D6020840D7020878D6020850D7020856
:1028B000A8D6020860D7020824D7020808D7020861
:1028C00080D702084C320008600000200A4D6F6477
:1028D000656C20657374696D617465203D2000002E
:1028E0005B25645D200000004F7574707574204C8A
:1028F0006162656C3A2025640A0000007CD50208FC
:10290000457870656374204C6162656C3A2025647B
:102910000A00000088D702080A20457865637574AC
:10292000696F6E2054696D65203D2025646D730AC2
:1029300000000000B0B5016A04460868C068457C24
:10294000C86000F0A4FA02460020294600F0C0F951
:10295000D4E90812D060C96800F06CFA606950B11F
:10296000616A007AC96889680968FEF707FE616ACA
:10297000C96889680860206A94F84220C068012A02
:102980004068018809D1E28E11440139FEF72DFC1F
:10299000228F43881344013B0AE0228E891AE28E7B
:1029A0001144FEF722FC628E43889B1A228F134447
:1029B00093FBF2F24A80808888800020B0BD2DE928
:1029C000F04F8BB0416ACF68797C012904D14FF078
:1029D000010C4FF0010E04E07968B1F800E0B1F8A5
:1029E00002C0016A458E068E3F68C48FB0F83C90E5
:1029F000B0F838A0B0F836B00020C968D1E900813D
:102A00008B880A884988CDE90807CDE9005602A8D5
:102A100080E8105E4046FFF735FD00200BB000F067
:102A200000B830BCBDE8C08FB0B58AB0044690F99C
:102A30000830007B012812D108A801211A46FFF7AF
:102A400013FA94F90A2006A8012100F0F1F925797A
:102A5000BDF81C30069ABDF82410089813E094F9CC
:102A6000092004A81946FFF7FFF994F90B2094F9FF
:102A70000A1002A800F0DCF92579BDF80C30029AA2
:102A8000BDF8141004980095FEF70AFB00B18461AC
:102A90000AB0B0BD00F1240100220020602A08BF66
:102AA00070478B580C321844F8E748610846704765
:102AB000B0B551B1054600680C46FFF7DFF830B1FC
:102AC000406A216A0160086002E0F92001E02C60A0
:102AD000002040B2B0BDBCB50446012001907CB3DB
:102AE0000D4669B3C4E900521AB92846FFF7C6F883
:102AF000606004F1200201AB28462946FEF772FD12
:102B00002046FFF7C7FF00F017F9D8B1014620466D
:102B1000FEF753FD204600F0C1F9204600F074F99D
:102B20002268002000213AB11368926A80181A4680
:102B300041F10001002BF6D1C4F88000002002E032
:102B4000FF2000E0F92040B2BCBD000090B370B59A
:102B500005680446DDB1E9682E6809B12846884752
:102B6000287F022802D1286AFFF775F9686AFFF703
:102B700072F9286AFFF74DF9686AFFF74AF9686940
:102B800000F0E6FA284600F0E3FA3546E2E7206A6C
:102B900000F0DEFA94F8850018B1204600F0D8FA6B
:102BA00003E020468821FDF75EFB6E4800210160AE
:102BB000BDE87040704700BFF8B581B1044670B100
:102BC0004E6A0D466EB1306860B137467668002EA9
:102BD000FBD1082000F0B0F80646786002E000243F
:102BE00014E00026206A68B1016861B10746806878
:102BF0000028FBD11C2000F09FF8B86010B1796963
:102C0000416100E00020696A306001602046F8BD43
:102C100013460A460221AFF3008082B07CB5044619
:102C2000CDE9062370B106A80D4600260190AE42FC
:102C300008DA0198011D019101682046FFF7BCFFE9
:102C40000136F4E72046BDE87C4002B07047002121
:102C5000AFF3008070B5A0B1066805468EB10C4692
:102C60003046FFF703F968B9EA691AB128463146D8
:102C7000904738B9A64202D03668002EF0D1002025
:102C800000E0FF2040B270BDB0B520B188210446FD
:102C9000FDF7E9FA06E0882000F04EF8044601202E
:102CA00084F8850005480649064A074B074DA06190
:102CB0002046C4E90253C4E90421B0BDAB2A000890
:102CC0001B2C0008112C0008B92B0008B12A0008A1
:102CD00070B50D46044618B1012C18D1960000E0DD
:102CE00004261420042100F014F800EB450000EB4A
:102CF000460000F021F850B1690000F1140245745B
:102D0000047411448B19C0E90121C36070BD002017
:102D100070BDB0FBF1F202FB1102891A002A18BF44
:102D20000844704728B10146002019B149680130B4
:102D3000FBE7002070470000B0B50446800724F090
:102D4000030018BF041D204600F02AFA054638B1DA
:102D5000044801682144016028462146FDF783FAB2
:102D60002846B0BDE0040020B0B5D0E90812C46B1D
:102D7000C8680568D06800F0DAF80246204629469F
:102D8000FDF74AFA0020B0BD10B50446FEF7E4FF97
:102D900030B10321044A846101770249C0E901216D
:102DA00010BD00BFB91A0008692D0008017A21B1D1
:102DB00001390172090600D0704700214172704745
:102DC000006910B10068FFF7F1BF704710B52030FF
:102DD00004682CB12069FFF7E9FF04F10800F7E768
:102DE00010BD10B5FEF782FA06D1FEF772FA014661
:102DF0002046FFF7A8FB05E0FEF76BFA01462046E8
:102E0000FFF7ADFB002010BD58B1006848B1416923
:102E100011B1426AD2684A6000680028F7D10020E8
:102E200000E0FF2040B270478380428001807047FD
:102E3000FEF7A4B970B504460D46087C217C884293
:102E40000CD1697C627C914208D1012808D1686864
:102E500000EB410030F8020C860002E0002414E090
:102E60000426A87CA9683246A074A068FDF7D4F9AE
:102E7000E968E0683246FDF7CFF9687C69686074FC
:102E800060686A7C5200FDF7C7F9204670BD417C3E
:102E9000406800EB410030F8020C70470068A0B1B8
:102EA00000F12001096829B1D1E9032308311B6829
:102EB0001360F7E700F1240109680029EED0D1E999
:102EC000032308311B681360F6E700207047F8B54C
:102ED0000E46069904461546FEF755F9217C0798DB
:102EE000012907D1617C626802EB410131F8021CC3
:102EF0008F0000E00427A074A06831463A46FDF731
:102F00008BF9E06829463A46FDF786F92046F8BD78
:102F100070B50D46049906461446FEF734F9D6E915
:102F20000201056005980C60B074304670BD60B158
:102F300010B54268417C012310888B4228BF10BD28
:102F400032F8134001336043F7E700207047000078
:102F50000FB4054B10B503A9044A029800F018F805
:102F600010BC5DF814FB0000ED1C00080000002000
:102F700002E008C8121F08C1002AFAD17047704742
:102F8000002001E001C1121F002AFBD170470000A0
:102F90002DE9FF4F8BB09A460F460546002606E006
:102FA00025280BD052460D9990476D1C761C287829
:102FB0000028F5D10FB0304600F0C6B80024A04676
:102FC0000122604900E0044315F8013F203B02FA6A
:102FD00003F00842F7D128782E2817D115F8010FF1
:102FE00044F004042A280ED06FF02F022878A0F1B4
:102FF000300109290AD808EB880102EB410100EBF6
:1030000001086D1CF2E757F8048B6D1C28786928BD
:103010003ED006DC0028CDD063280BD0642804D134
:1030200036E0732810D075284BD052460D99904742
:10303000761C85E017F8040B8DF8000000208DF851
:103040000100E946012003E057F8049B4FF0FF30F0
:1030500061074FF0000401D40AE0641C44450DDA16
:103060008442FADB19F804100029F6D106E0641C4A
:103070008442FCDB19F804100029F8D1264404E04E
:1030800019F8010B52460D999047641EF8D257E08B
:1030900001CF4FF00A0B002802DA40422D2102E056
:1030A000210504D52B218DF82410012103E0E1072F
:1030B00005D02021F7E70DF1200908910CE000214F
:1030C000F9E701CF4FF00A0BF9E75946FDF7D6F8BB
:1030D00001F1300209F8012D0028F6D1ADEB09000D
:1030E00000F1200B600701D44FF00108D84502DD44
:1030F000A8EB0B0000E000208046002406E009A8B1
:103100005246005D0D999047641C761C08988442D5
:10311000F5DB04E0302052460D999047761CB8F15B
:103120000001A8F10108F5DC05E019F8010B524691
:103130000D999047761CBBF10001ABF1010BF4DC5B
:103140006D1C34E70928010030BCBDE8C08F0000C9
:1031500010B5002821D0114B0022001F196803E090
:10316000814203D80A4649680029F9D152B113684F
:10317000841A9C4204D1006818441060104602E092
:10318000506000E0186039B102680B1A934203D115
:103190000B681A4402604968416010BD04000020B9
:1031A000F0B50B30154D20F007010024144A0FE054
:1031B00003688B420BD38B4205D95E1A43184768CC
:1031C000C3E9006700E04368136002C004E0021D29
:1031D00010680028ECD12046002802D1286808B1E8
:1031E0000020F0BD064A07481060074A121A22F074
:1031F0000702C0E9002401202860D7E7080000206A
:103200000400002074050020704500200149FEF7ED
:103210006DBD00000000002010B5044601E0FEF77F
:1032200065FD14F8010B04490028F8D1BDE81040F1
:103230000A20FEF75BBD0000000000200000000037
:10324000000000000102030406070809F2192A120F
:103250000D1D0CFC12F2183013151B0CFB17F21687
:1032600039150D1A0CFA1FF416371407160EFA1E2C
:10327000F117341009140BFA1CEE18350D0614085A
:10328000FB1EE91B340D041304FD1DE51C340D0366
:103290001300FE1EE71A360CFD1602FD20E81A3256
:1032A0000BFA1803FD1EEE1B2F0CFE1708FD1CF079
:1032B0001A2E0CFD160AFC1DED182F0DFD1707FB2D
:1032C0001EEF17310DFC1608FA20EE18310BFB1615
:1032D00008FB20EE1B2F0CFC1608FD1FF01C2E0B0C
:1032E000FB1609FD1FEE1B2C0AFC1607FD1EEE1B2C
:1032F0002B0AFC1707FD1EEE1C2B0AFC1707FD1FEF
:10330000EC1C2B0AFB1606FE1FEE1B2A0AF91607F9
:10331000FD1FEF1A280AFB1608FC1EF01D270AFCE9
:103320001609FE1EEE1E280AFA1607FF1FEE1C29BC
:103330000AF81407FD20ED1A270BF51506FB1FEA06
:103340001C260AF11803FD1FE91E2408EF1D02FECA
:103350001EEB1E2206F21E03FE1DED1F2005F71CAC
:1033600005FF1CEE1D2103F91B06FD1DF01A2204AA
:10337000F81907FB1EF31A1F06F8190BFB1CF31AAA
:103380001D09FA190BFB1BF3191E0EFB160AFA1C7A
:10339000F21A1E10FA1609FB1CEC1C1D0DF818047D
:1033A000FC1CEF1D1D0BF81807FD1CF31E1D09FC6E
:1033B000180AFD1CF21E1C07001709FD1CF31D1C3A
:1033C00007FF170AFD1CF11C1C07FB1708FC1DEF6B
:1033D0001B1C06FB1706FB1DEF1B1C06FB1707FB40
:1033E0001EEF1C1C07F91706FC1EEF1C1C06F81824
:1033F00006FC1EF01C1B08F81907FC1DF11C190A1D
:10340000F81808FC1CF11B180BF91908FB1CF01C20
:103410001809F91907FB1CF01C1806F81907FC1C01
:10342000F01D1908F71907FC1DF21D1A0BF71808F3
:10343000FC1EF41C1A0CF8180BFC1EF31D170CF9DB
:103440001609FC1CF01E1407FB1507FD19EE1E14CF
:1034500004FA1705FD19ED1E1605F71A04FD1BEFFA
:103460001D1706F81906FC1CF11D1706F81807FCB5
:103470001CF01D1707F71907FC1CF11C1808F81899
:1034800007FB1DF21D1708F81808FC1DF21E17088F
:10349000F81808FC1DF11F1708F61807FE1DF11F8C
:1034A0001607F41807FD1CF21D1405F51908FC1B7E
:1034B000F21C1505F61808FB1CF21D1706F7180874
:1034C000FC1CF21D1707F81708FC1DF31D1706FA60
:1034D0001709FB1CF41C1605FC1709FB1CF41D182E
:1034E0000600160AFC1DF51E190703170BFC1EF437
:1034F0001F1905021709FD1FEE1F1B03FD1804FD10
:1035000020E91E1D04F81800FD22ED1E1D05FA1706
:1035100004FC21F31D1B04FC1709FC20F01D1C05F5
:10352000FA1706FB20EF1D1C05FA1706FC20F21DFA
:103530001B05FB1708FC20F01D1D05F91606FC21D4
:10354000F01E1D05FA1706FC21F11E1C04FA1707D0
:10355000FC21F01E1C05F91706FC20F11D1C04FAC5
:103560001707FC20F01E1C04F91706FC20F01E1B98
:1035700004F91706FC1FF01E1A05F91707FC1FF0C7
:103580001E1B05F91706FC20F01D1B05F81807FC8B
:1035900020F01D1B05F81807FC1FF01E1A05F71870
:1035A00006FC1FF01E1A05F71907FC1EF01E1A056F
:1035B000F71907FC1FF11E1A05F71907FC1FF11E6A
:1035C0001B05F61907FC1FF01D1B05F61A07FC1F4B
:1035D000F01D1B05F71A07FC1FF01D1B05F61A0747
:1035E000FC1FF11D1B05F61A07FC1FF11D1B05F73B
:1035F0001A07FC1FF11D1B05F71907FC1FF11D1B06
:1036000006F61907FC1FF11D1C07F51907FC1FF131
:103610001D1C07F51907FC1FF11D1C08F61907FBF7
:103620001FF11D1C08F61907FC1FF11E1C07F619D7
:1036300007FC20F01F1D07F61907FD20F01F1D06CF
:10364000F61806FD20F01F1D05F51907FD20F11FD6
:103650001D05F61907FD20F11F1D04F61907FD20B1
:10366000F11F1E03F61907FD20F01F1D03F61907B1
:10367000FD20F01F1D03F61907FD20F01E1D03F6A7
:103680001907FD20F11E1C02F61907FC1FF11E1C74
:1036900002F61907FC1FF11D1C02F61807FC1FF1AA
:1036A0001D1B02F61807FC1FF11E1B02F71807FC72
:1036B0001FF11E1B01F71707FD1FF11E1B01F71756
:1036C00007FD1FF11E1C00F71707FD1FF21E17084C
:1036D000F81808FC1DF11F1708F61807FE1DF11F4A
:1036E0001607F41807FD1CF21D1405F51908FC1B3C
:1036F000F21C1505F61808FB1CF21D1706F7180832
:10370000FC1CF21D1707F81708FC1DF31D1706FA1D
:103710001709FB1CF41C1605FC1709FB1CF41D18EB
:103720000600160AFC1DF51E190703170BFC1EF4F4
:103730001F1905021709FD1FEE1F1B03FD1804FDCD
:1037400020E91E1D04F81800FD22ED1E1D05FA17C4
:1037500004FC21F31D1B04FC1709FC20F01D1C05B3
:10376000FA1706FB20EF1D1C05FA1706FC20F21DB8
:103770001B05FB1708FC20F01D1D05F91606FC2192
:10378000F01E1D05FA1706FC21F11E1C04FA17078E
:10379000FC21F01E1C05F91706FC20F11D1C04FA83
:1037A0001707FC20F01E1C04F91706FC20F01E1B56
:1037B00004F91706FC1FF01E1A05F91707FC1FF085
:1037C0001E1B05F91706FC20F01D1B05F81807FC49
:1037D00020F01D1B05F81807FC1FF01E1A05F7182E
:1037E00006FC1FF01E1A05F71907FC1EF01E1A052D
:1037F000F71907FC1FF11E1A05F71907FC1FF11E28
:103800001B05F61907FC1FF01D1B05F61A07FC1F08
:10381000F01D1B05F71A07FC1FF01D1B05F61A0704
:10382000FC1FF11D1B05F61A07FC1FF11D1B05F7F8
:103830001A07FC1FF11D1B05F71907FC1FF11D1BC3
:1038400006F61907FC1FF11D1C07F51907FC1FF1EF
:103850001D1C07F51907FC1FF11D1C08F61907FBB5
:103860001FF11D1C08F61907FC1FF11E1C07F61995
:1038700007FC20F01F1D07F61907FD20F01F1D068D
:10388000F61806FD20F01F1D05F51907FD20F11F94
:103890001D05F61907FD20F11F1D04F61907FD206F
:1038A000F11F1E03F61907FD20F01F1D03F619076F
:1038B000FD20F01F1D03F61907FD20F01E1D03F665
:1038C0001907FD20F11E1C02F61907FC1FF11E1C32
:1038D00002F61907FC1FF11D1C02F61807FC1FF168
:1038E0001D1B02F61807FC1FF11E1B02F71807FC30
:1038F0001FF11E1B01F71707FD1FF11E1B01F71714
:1039000007FD1FF11E1C00F71707FD1FF11E1C000D
:10391000F81708FD1FF11E1D00F81708FD20F11E05
:103920001B00F81707FD1FF11E1A00F81607FD1DF2
:10393000F11E1A00F81607FC1EF11D1B00F81707F0
:10394000FC1EF11C1A00F81607FC1EF11C1A00F8E8
:103950001607FB1EF11B1A00F81607FB1EF11C19B7
:1039600000F81607FB1DF11C1900F81707FB1DF0E6
:103970001C1901F81707FB1DF01C1A01F81707FCAA
:103980001DF11D1A00F81707FC1EF11D1A01F8178A
:1039900007FC1EF11D1A01F81707FC1EF11E1A0084
:1039A000F81707FD1EF11E1A00F81707FD1EF11D7E
:1039B0001A00F81707FC1EF11D1A01F81707FC1D65
:1039C000F01D1A01F81707FC1DF11D1901F8170762
:1039D000FC1DF11D1901F81708FD1DF11D1901F855
:1039E0001608FC1DF11D1900F91607FC1DF11D1923
:1039F00000F91607FC1DF11D1900F81607FC1DF053
:103A00001D1A00F81707FC1DF01D1B00F71707FC17
:103A10001EF01D1A00F71807FC1EF01D1901F718FB
:103A200007FC1DF01D1800F71807FC1CF11D1800FD
:103A3000F81707FC1CF11D1800F81708FC1CF11DF5
:103A40001800F81608FC1CF11D1800F91608FC1CDB
:103A5000F01D1900F81607FC1DF11D1A00F81707D4
:103A6000FC1DF01D1900F81707FC1DF01C1900F8CB
:103A70001807FC1DF01C1A00F81807FC1EF01C1A91
:103A800000F81807FC1EF01C1A01F81707FC1EF0BE
:103A90001C1A01F81807FC1EF01C1B01F71807FC84
:103AA0001EF11C1A01F81807FC1EF11D1901F81867
:103AB00008FC1DF11D1801F81708FC1CF11C190168
:103AC000F81707FC1DF01C1901F81707FC1DF01C66
:103AD0001A01F81707FB1DF01C1A01F91707FB1D47
:103AE000F01C1A01F81707FB1EF01C1A01F9170742
:103AF000FB1EF01C1A01F91707FB1DF01C1A01F838
:103B00001707FC1DF01C1A01F81707FB1DF01B1A04
:103B100001F91607FB1DF01B1B01F91607FB1EF030
:103B20001C1C01F91707FC1FF11E1D01F91807FDE8
:103B300020F11E1D01F81808FD20F11C1B01F918C9
:103B400008FC1EF01B1801F91707FB1CF11E1C00D6
:103B5000F81708FD1FF11E1D00F81708FD20F11EC3
:103B60001B00F81707FD1FF11E1A00F81607FD1DB0
:103B7000F11E1A00F81607FC1EF11D1B00F81707AE
:103B8000FC1EF11C1A00F81607FC1EF11C1A00F8A6
:103B90001607FB1EF11B1A00F81607FB1EF11C1975
:103BA00000F81607FB1DF11C1900F81707FB1DF0A4
:103BB0001C1901F81707FB1DF01C1A01F81707FC68
:103BC0001DF11D1A00F81707FC1EF11D1A01F81748
:103BD00007FC1EF11D1A01F81707FC1EF11E1A0042
:103BE000F81707FD1EF11E1A00F81707FD1EF11D3C
:103BF0001A00F81707FC1EF11D1A01F81707FC1D23
:103C0000F01D1A01F81707FC1DF11D1901F817071F
:103C1000FC1DF11D1901F81708FD1DF11D1901F812
:103C20001608FC1DF11D1900F91607FC1DF11D19E0
:103C300000F91607FC1DF11D1900F81607FC1DF010
:103C40001D1A00F81707FC1DF01D1B00F71707FCD5
:103C50001EF01D1A00F71807FC1EF01D1901F718B9
:103C600007FC1DF01D1800F71807FC1CF11D1800BB
:103C7000F81707FC1CF11D1800F81708FC1CF11DB3
:103C80001800F81608FC1CF11D1800F91608FC1C99
:103C9000F01D1900F81607FC1DF11D1A00F8170792
:103CA000FC1DF01D1900F81707FC1DF01C1900F889
:103CB0001807FC1DF01C1A00F81807FC1EF01C1A4F
:103CC00000F81807FC1EF01C1A01F81707FC1EF07C
:103CD0001C1A01F81807FC1EF01C1B01F71807FC42
:103CE0001EF11C1A01F81807FC1EF11D1901F81825
:103CF00008FC1DF11D1801F81708FC1CF11C190126
:103D0000F81707FC1DF01C1901F81707FC1DF01C23
:103D10001A01F81707FB1DF01C1A01F91707FB1D04
:103D2000F01C1A01F81707FB1EF01C1A01F91707FF
:103D3000FB1EF01C1A01F91707FB1DF01C1A01F8F5
:103D40001707FC1DF01C1A01F81707FB1DF01B1AC2
:103D500001F91607FB1DF01B1B01F91607FB1EF0EE
:103D60001C1C01F91707FC1FF11E1D01F91807FDA6
:103D700020F11E1D01F81808FD20F11C1B01F91887
:103D800008FC1EF01B1801F91707FB1CF01A17019D
:103D9000FA1607FA1BF01A1802FB1507FA1CF01C9A
:103DA0001A01FB1507FC1EF01E1E01FA1607FD2066
:103DB000F01E1E00F81807FD20F01D1C00F8190663
:103DC000FD1FF01C1B01F81807FC1EF01C1901F95F
:103DD0001807FC1DF11B1901F91708FB1CF11B1931
:103DE00001FA1608FB1CF11B1901FA1607FB1CF05F
:103DF0001C1A00FA1607FB1DF01C1C00F91707FC23
:103E00001FF01D1B01F81806FC1EF01C1C01F81801
:103E100007FC1FF01B1B01F81806FB1EF01A1A0204
:103E2000F81806FA1DF01A1A03F81707FA1DF01B06
:103E30001A03F81707FB1DF01B1B02F81707FB1EE0
:103E4000F01C1C03F81707FB1EF01C1C03F81707D7
:103E5000FB1FF01C1C03F81707FB1FF01D1C02F8CA
:103E60001706FC1EF01C1C02F81707FC1EF01C1B9A
:103E700002F81707FB1EF01C1B02F81807FC1EF0C7
:103E80001C1B02F81807FC1EF01D1B02F81807FC8B
:103E90001EF01C1C02F71807FC1EF01C1C03F71870
:103EA00007FB1EF01C1D03F71807FC1FF11C1C0369
:103EB000F71808FC1FF11C1C03F81808FC1FF01D64
:103EC0001C03F81707FC1FF01D1C03F81707FC1E46
:103ED000F01D1D03F81707FC1FF01D1D02F8170742
:103EE000FC1FF01D1D02F91607FC1FF01D1D01F936
:103EF0001607FC1FF01D1C01F91607FC1EF01C1B09
:103F000001F91607FC1EF01C1A01F91607FB1DF03B
:103F10001C1B01F91607FB1EF01C1C01F91607FB00
:103F20001EF01C1B00F91607FB1EF01C1B00F916E7
:103F300007FB1EF11C1A00F91607FB1DF01C1A00E6
:103F4000F91607FB1DF01B1A00F91607FB1DF01BE5
:103F50001900FA1607FA1CF01B1900FA1507FB1CCA
:103F6000F01B1900FA1607FB1CF01C1A00F91607C3
:103F7000FB1DF01C1A00F91607FB1DF01C1A00F9B6
:103F80001707FB1DF01C1B00F81707FB1EF01C1B7E
:103F900000F81707FB1EF01C1B00F81707FB1EF1AB
:103FA0001B1B00F81707FA1DF11B1B01F91707FA75
:103FB0001DF01C1A00F91607FB1DF01C1A00F9165B
:103FC00007FB1DF01C1A00F91607FB1DF01A17015C
:103FD000FA1607FA1BF01A1802FB1507FA1CF01C58
:103FE0001A01FB1507FC1EF01E1E01FA1607FD2024
:103FF000F01E1E00F81807FD20F01D1C00F8190621
:10400000FD1FF01C1B01F81807FC1EF01C1901F91C
:104010001807FC1DF11B1901F91708FB1CF11B19EE
:1040200001FA1608FB1CF11B1901FA1607FB1CF01C
:104030001C1A00FA1607FB1DF01C1C00F91707FCE0
:104040001FF01D1B01F81806FC1EF01C1C01F818BF
:1040500007FC1FF01B1B01F81806FB1EF01A1A02C2
:10406000F81806FA1DF01A1A03F81707FA1DF01BC4
:104070001A03F81707FB1DF01B1B02F81707FB1E9E
:10408000F01C1C03F81707FB1EF01C1C03F8170795
:10409000FB1FF01C1C03F81707FB1FF01D1C02F888
:1040A0001706FC1EF01C1C02F81707FC1EF01C1B58
:1040B00002F81707FB1EF01C1B02F81807FC1EF085
:1040C0001C1B02F81807FC1EF01D1B02F81807FC49
:1040D0001EF01C1C02F71807FC1EF01C1C03F7182E
:1040E00007FB1EF01C1D03F71807FC1FF11C1C0327
:1040F000F71808FC1FF11C1C03F81808FC1FF01D22
:104100001C03F81707FC1FF01D1C03F81707FC1E03
:10411000F01D1D03F81707FC1FF01D1D02F81707FF
:10412000FC1FF01D1D02F91607FC1FF01D1D01F9F3
:104130001607FC1FF01D1C01F91607FC1EF01C1BC6
:1041400001F91607FC1EF01C1A01F91607FB1DF0F9
:104150001C1B01F91607FB1EF01C1C01F91607FBBE
:104160001EF01C1B00F91607FB1EF01C1B00F916A5
:1041700007FB1EF11C1A00F91607FB1DF01C1A00A4
:10418000F91607FB1DF01B1A00F91607FB1DF01BA3
:104190001900FA1607FA1CF01B1900FA1507FB1C88
:1041A000F01B1900FA1607FB1CF01C1A00F9160781
:1041B000FB1DF01C1A00F91607FB1DF01C1A00F974
:1041C0001707FB1DF01C1B00F81707FB1EF01C1B3C
:1041D00000F81707FB1EF01C1B00F81707FB1EF169
:1041E0001B1B00F81707FA1DF11B1B01F91707FA33
:1041F0001DF01C1A00F91607FB1DF01C1A00F91619
:1042000007FB1DF01C1A00F91607FB1DF01C1B0014
:10421000F91607FB1DF01C1B00F91607FB1EF01C0E
:104220001B00F81606FB1EF01C1B00F81606FB1EF2
:10423000F01B1B00F91607FA1EF11B1A00F91607EE
:10424000FA1DF11A1A01F91608FA1DF11B1A00F9E4
:104250001607FA1DF01B1A00F91607FA1DF11C1AB1
:1042600000F91607FB1DF11C1A00F91608FB1DF1D9
:104270001B1B00F91608FA1EF11C1A00F91607FBA1
:104280001DF11C1A00F91607FB1DF01C1B00F91686
:1042900007FB1DF01B1A00F91707FA1DF01A190089
:1042A000F91706F91CF01A1800F91706F91CF01B8B
:1042B0001800F91607FA1CF01B1800F91607FA1C6B
:1042C000F01B1900FA1507FA1CF01C1A00FA150762
:1042D000FB1DF01C1A00FA1407FB1DF01C1900FA54
:1042E0001407FB1CF01C1800FA1406FA1CF01B192A
:1042F00000F91506FA1CF01B1A00F91507FA1DF053
:104300001B1900F91507FA1DF01B1900F91407FA1B
:104310001CF11C1A00FA1407FA1DF01C1A00FA14FA
:1043200007FA1DF01B1A00FA1407FA1DF01C1AFFF9
:10433000FA1406FA1DF01B1A00FA1506FA1DF01BF6
:104340001B00FA1507FA1DF01B1A00FA1507FA1DD3
:10435000F01B1A00FA1507FA1DF01B1A00FA1507D0
:10436000FA1DF01B1A00FA1507FA1DF01B1B00FAC4
:104370001506FA1DF01C1B00FA1507FA1EF11C1B8E
:1043800000FA1507FA1EF01D1B00FA1507FB1DF0B9
:104390001D1900FA1506FB1CF01E1900FA1507FB83
:1043A0001CF01D1B00FA1507FB1DF01D1C00FA1563
:1043B00007FB1EF11D1B00FA1407FB1EF11C1A005F
:1043C000FA1507FA1DF11C1A00FA1507FA1DF11C5F
:1043D0001A00FA1507FA1DF01C1A00FA1407FA1D44
:1043E000F01C1A00FA1506FA1DF01C1A00F9150740
:1043F000FA1DF11C1A01FA1507FA1DF11D1A01FA2E
:104400001507FA1DF11D1A01FA1507FA1DF11D1AFB
:1044100001FA1507FA1DF01C1901FA1507FA1CF02C
:104420001C1901FA1406FA1CF01D1901FA1407FAF6
:104430001CF01C1901FA1507FA1CF01D1801FA15D9
:1044400007FA1BF01D1801FA1507FA1BF01C1B00D8
:10445000F91607FB1DF01C1B00F91607FB1EF01CCC
:104460001B00F81606FB1EF01C1B00F81606FB1EB0
:10447000F01B1B00F91607FA1EF11B1A00F91607AC
:10448000FA1DF11A1A01F91608FA1DF11B1A00F9A2
:104490001607FA1DF01B1A00F91607FA1DF11C1A6F
:1044A00000F91607FB1DF11C1A00F91608FB1DF197
:1044B0001B1B00F91608FA1EF11C1A00F91607FB5F
:1044C0001DF11C1A00F91607FB1DF01C1B00F91644
:1044D00007FB1DF01B1A00F91707FA1DF01A190047
:1044E000F91706F91CF01A1800F91706F91CF01B49
:1044F0001800F91607FA1CF01B1800F91607FA1C29
:10450000F01B1900FA1507FA1CF01C1A00FA15071F
:10451000FB1DF01C1A00FA1407FB1DF01C1900FA11
:104520001407FB1CF01C1800FA1406FA1CF01B19E7
:1045300000F91506FA1CF01B1A00F91507FA1DF010
:104540001B1900F91507FA1DF01B1900F91407FAD9
:104550001CF11C1A00FA1407FA1DF01C1A00FA14B8
:1045600007FA1DF01B1A00FA1407FA1DF01C1AFFB7
:10457000FA1406FA1DF01B1A00FA1506FA1DF01BB4
:104580001B00FA1507FA1DF01B1A00FA1507FA1D91
:10459000F01B1A00FA1507FA1DF01B1A00FA15078E
:1045A000FA1DF01B1A00FA1507FA1DF01B1B00FA82
:1045B0001506FA1DF01C1B00FA1507FA1EF11C1B4C
:1045C00000FA1507FA1EF01D1B00FA1507FB1DF077
:1045D0001D1900FA1506FB1CF01E1900FA1507FB41
:1045E0001CF01D1B00FA1507FB1DF01D1C00FA1521
:1045F00007FB1EF11D1B00FA1407FB1EF11C1A001D
:10460000FA1507FA1DF11C1A00FA1507FA1DF11C1C
:104610001A00FA1507FA1DF01C1A00FA1407FA1D01
:10462000F01C1A00FA1506FA1DF01C1A00F91507FD
:10463000FA1DF11C1A01FA1507FA1DF11D1A01FAEB
:104640001507FA1DF11D1A01FA1507FA1DF11D1AB9
:1046500001FA1507FA1DF01C1901FA1507FA1CF0EA
:104660001C1901FA1406FA1CF01D1901FA1407FAB4
:104670001CF01C1901FA1507FA1CF01D1801FA1597
:1046800007FA1BF01D1801FA1507FA1BF01D190196
:10469000F91607FA1CF01D1900F91606FB1CF01D8F
:1046A0001A00F81706FB1DF01D1A00F81806FB1D6E
:1046B000F01D1A00F81806FB1DF01D1B00F8170767
:1046C000FB1DF01D1B00F81707FB1DF11E1B00F959
:1046D0001607FB1DF11D1A00F91608FB1DF11D1A26
:1046E00000FA1507FA1DF11D1900FA1408FA1CF159
:1046F0001D1900FB1407FA1CF11D1A00FB1407FA20
:104700001CF11C1A00FB1407FA1CF01B1900FB1407
:1047100007F91BF01B1800FA1407F91BF01B18000F
:10472000FA1407F91BF01A1800FA1507F81BF01B0A
:104730001901FA1506F91BF01B1901FA1506F91BE8
:10474000F01B1801FA1506F91BF01C1801FA1506E2
:10475000F91BF01C1801FA1506FA1BF01C1801FAD7
:104760001406F91BF01C1901FA1406FA1BF01D19A6
:1047700001FA1406FA1CF01C1901FA1506FA1CF0CD
:104780001C1901FA1507FA1BF01C1901FA1407F994
:104790001BF11C1901FB1407F91BF11C1901FA1478
:1047A00007FA1BF11C1901FA1407FA1BF11C190076
:1047B000FB1407FA1BF11C1900FA1407FA1CF11D6F
:1047C0001A00FB1407FA1CF01D1B00FB1407FA1D4E
:1047D000F01D1B00FA1407FA1DF01C1A00FA14074A
:1047E000F91CF01B1A01FA1407F91CF11B1A01FA43
:1047F0001407F91CF11D1A01FB1407FA1CF11D1A0C
:1048000001FB1407FA1CF11D1A01FB1407FA1CF036
:104810001D1A01FB1407FA1CF01D1A01FB1407FAFC
:104820001CF01D1B01FB1407FA1CF11D1A01FB14DF
:1048300007FA1CF11D1A01FB1407FA1BF01D1901E0
:10484000FB1407FA1BF01D1A02FB1406FA1BF01DDD
:104850001A02FA1406FA1BF01D1A02FA1406FA1CC0
:10486000F01E1B02FA1506FB1CF01F1C02F91707AD
:10487000FB1DF11E1C02F91707FB1DF11D1B02F9A0
:104880001707FA1DF11D1B02F91607FA1DF11D1B72
:1048900002FA1507FA1CF11D1A02FB1407FA1CF1A3
:1048A0001D1B02FB1407FA1DF11D1C02FB1407FA65
:1048B0001DF11D1C02FB1407FA1DF01E1B02FB1448
:1048C00007FA1CF01D1B02FB1507FA1CF01D19014D
:1048D000F91607FA1CF01D1900F91606FB1CF01D4D
:1048E0001A00F81706FB1DF01D1A00F81806FB1D2C
:1048F000F01D1A00F81806FB1DF01D1B00F8170725
:10490000FB1DF01D1B00F81707FB1DF11E1B00F916
:104910001607FB1DF11D1A00F91608FB1DF11D1AE3
:1049200000FA1507FA1DF11D1900FA1408FA1CF116
:104930001D1900FB1407FA1CF11D1A00FB1407FADD
:104940001CF11C1A00FB1407FA1CF01B1900FB14C5
:1049500007F91BF01B1800FA1407F91BF01B1800CD
:10496000FA1407F91BF01A1800FA1507F81BF01BC8
:104970001901FA1506F91BF01B1901FA1506F91BA6
:10498000F01B1801FA1506F91BF01C1801FA1506A0
:10499000F91BF01C1801FA1506FA1BF01C1801FA95
:1049A0001406F91BF01C1901FA1406FA1BF01D1964
:1049B00001FA1406FA1CF01C1901FA1506FA1CF08B
:1049C0001C1901FA1507FA1BF01C1901FA1407F952
:1049D0001BF11C1901FB1407F91BF11C1901FA1436
:1049E00007FA1BF11C1901FA1407FA1BF11C190034
:1049F000FB1407FA1BF11C1900FA1407FA1CF11D2D
:104A00001A00FB1407FA1CF01D1B00FB1407FA1D0B
:104A1000F01D1B00FA1407FA1DF01C1A00FA140707
:104A2000F91CF01B1A01FA1407F91CF11B1A01FA00
:104A30001407F91CF11D1A01FB1407FA1CF11D1AC9
:104A400001FB1407FA1CF11D1A01FB1407FA1CF0F4
:104A50001D1A01FB1407FA1CF01D1A01FB1407FABA
:104A60001CF01D1B01FB1407FA1CF11D1A01FB149D
:104A700007FA1CF11D1A01FB1407FA1BF01D19019E
:104A8000FB1407FA1BF01D1A02FB1406FA1BF01D9B
:104A90001A02FA1406FA1BF01D1A02FA1406FA1C7E
:104AA000F01E1B02FA1506FB1CF01F1C02F917076B
:104AB000FB1DF11E1C02F91707FB1DF11D1B02F95E
:104AC0001707FA1DF11D1B02F91607FA1DF11D1B30
:104AD00002FA1507FA1CF11D1A02FB1407FA1CF161
:104AE0001D1B02FB1407FA1DF11D1C02FB1407FA23
:104AF0001DF11D1C02FB1407FA1DF01E1B02FB1406
:104B000007FA1CF01D1B02FB1507FA1CF01D1B0108
:104B1000FB1507FA1CF01D1B01FB1507FA1CF01D05
:104B20001B01FA1507FA1CF11D1A01FA1607FA1BE8
:104B3000F01D1A02FA1607FA1BF11D1A01FA1507E1
:104B4000FA1CF11D1B01FA1507FA1CF11E1C01FAD3
:104B50001507FA1CF11E1D00FA1507FB1DF11F1D9C
:104B600000FA1607FB1DF11E1C00FA1607FB1DF1CB
:104B70001E1C00FA1507FB1DF11E1B00FA1507FA93
:104B80001CF11D1B00FA1507FA1CF11D1B01FA157B
:104B900007FA1CF11C1C01FA1407FA1DF11D1C0177
:104BA000FA1407FA1DF01E1C01FA1407FA1CF01D76
:104BB0001B01FA1406FA1CF01C1A01FA1406F91C5F
:104BC000F01C1A01FB1407F91BF11C1A02FB140755
:104BD000F91BF11C1B02FB1407FA1CF01C1B01FB48
:104BE0001407F91CF01C1B02FB1407F91CF01C1B1A
:104BF00002FB1406F91CF01C1B02FB1506FA1CF044
:104C00001C1B02FB1507FA1CF01C1B02FB1507F905
:104C10001CF01C1B02FB1506F91CF01C1A02FB15EC
:104C200007F91BF01C1A02FB1506F91CF01D1B02EC
:104C3000FA1607FA1CF01D1D02FA1606FA1DF01DE1
:104C40001D02F91607FA1EF01E1D02F91607FB1DBC
:104C5000F11D1D02F91607FA1DF11D1D02F91608B6
:104C6000FA1EF11E1C02FA1508FA1DF11E1C01FAAB
:104C70001407FB1DF01E1C01FA1407FB1DF01E1B80
:104C800001FA1407FB1CF11D1B01FB1307FA1CF1B1
:104C90001D1B01FB1307FA1CF11C1A01FB1307FA79
:104CA0001BF01C1A02FB1307F91BF01C1A02FA1363
:104CB00007F91BF01C1A02FA1307F91CF01C1A0260
:104CC000FA1307F91CF01C1B02FA1407F91CF01D5B
:104CD0001B02FA1507FA1CF01E1B02F91507FB1C34
:104CE000F01E1C02F91607FB1DF11E1D01F8170727
:104CF000FB1EF11E1E01F81707FB1EF11E1E02F916
:104D00001707FB1EF11E1D02F91707FA1EF11D1DE4
:104D100002FA1607FA1EF11D1C02FA1507FA1DF118
:104D20001D1A02FB1407FA1CF11C1B02FB1407FAE4
:104D30001CF11C1B02FB1407F91CF01C1A02FB13CC
:104D400007FA1CF11D1A02FB1307FA1CF01D1B01C8
:104D5000FB1507FA1CF01D1B01FB1507FA1CF01DC3
:104D60001B01FA1507FA1CF11D1A01FA1607FA1BA6
:104D7000F01D1A02FA1607FA1BF11D1A01FA15079F
:104D8000FA1CF11D1B01FA1507FA1CF11E1C01FA91
:104D90001507FA1CF11E1D00FA1507FB1DF11F1D5A
:104DA00000FA1607FB1DF11E1C00FA1607FB1DF189
:104DB0001E1C00FA1507FB1DF11E1B00FA1507FA51
:104DC0001CF11D1B00FA1507FA1CF11D1B01FA1539
:104DD00007FA1CF11C1C01FA1407FA1DF11D1C0135
:104DE000FA1407FA1DF01E1C01FA1407FA1CF01D34
:104DF0001B01FA1406FA1CF01C1A01FA1406F91C1D
:104E0000F01C1A01FB1407F91BF11C1A02FB140712
:104E1000F91BF11C1B02FB1407FA1CF01C1B01FB05
:104E20001407F91CF01C1B02FB1407F91CF01C1BD7
:104E300002FB1406F91CF01C1B02FB1506FA1CF001
:104E40001C1B02FB1507FA1CF01C1B02FB1507F9C3
:104E50001CF01C1B02FB1506F91CF01C1A02FB15AA
:104E600007F91BF01C1A02FB1506F91CF01D1B02AA
:104E7000FA1607FA1CF01D1D02FA1606FA1DF01D9F
:104E80001D02F91607FA1EF01E1D02F91607FB1D7A
:104E9000F11D1D02F91607FA1DF11D1D02F9160874
:104EA000FA1EF11E1C02FA1508FA1DF11E1C01FA69
:104EB0001407FB1DF01E1C01FA1407FB1DF01E1B3E
:104EC00001FA1407FB1CF11D1B01FB1307FA1CF16F
:104ED0001D1B01FB1307FA1CF11C1A01FB1307FA37
:104EE0001BF01C1A02FB1307F91BF01C1A02FA1321
:104EF00007F91BF01C1A02FA1307F91CF01C1A021E
:104F0000FA1307F91CF01C1B02FA1407F91CF01D18
:104F10001B02FA1507FA1CF01E1B02F91507FB1CF1
:104F2000F01E1C02F91607FB1DF11E1D01F81707E4
:104F3000FB1EF11E1E01F81707FB1EF11E1E02F9D3
:104F40001707FB1EF11E1D02F91707FA1EF11D1DA2
:104F500002FA1607FA1EF11D1C02FA1507FA1DF1D6
:104F60001D1A02FB1407FA1CF11C1B02FB1407FAA2
:104F70001CF11C1B02FB1407F91CF01C1A02FB138A
:104F800007FA1CF11D1A02FB1307FA1CF01E1A0285
:104F9000FB1307FB1BF01E1A01FB1407FB1BF01D84
:104FA0001B01FA1407FA1CF01D1B01FA1507FA1C65
:104FB000F01D1B01FB1507FA1CF01D1B01FA15075C
:104FC000FA1CF01D1B02FA1507FA1CF01D1B01FA52
:104FD0001506FA1CF01E1B01FA1506FB1DF01E1B20
:104FE00002FA1606FB1DF01D1C01FA1607FA1DF148
:104FF0001D1C01FA1607FA1DF11D1C01FA1507FA0E
:105000001DF11D1C01FA1507FA1DF11E1C01FA15F0
:1050100007FB1DF11E1C01FA1507FB1DF11E1C01EB
:10502000FA1507FB1DF11D1B01FA1507FA1DF01CEF
:105030001B01FA1507FA1CF01C1B02FA1507F91CD4
:10504000F11C1B02FA1507F91CF11C1B02FB1507CA
:10505000F91CF11C1B02FB1507F91CF11C1B02FBC0
:105060001507F91CF01C1A01FB1507FA1CF11C1995
:1050700001FB1507F91BF11C1801FB1507F91AF1C3
:105080001C1901FB1507FA1BF11D1B01FA1507FA84
:105090001CF11D1B01FA1607FA1CF11D1B01FA1663
:1050A00007FA1CF11D1C02FA1607FA1DF11D1C025D
:1050B000FA1607FA1DF11D1B02FA1607FA1DF11D5B
:1050C0001C02FA1507FA1DF11D1C01FA1507FA1D3D
:1050D000F11D1B01FB1507FA1DF11D1B01FB150737
:1050E000FA1DF11C1B01FA1507FA1CF11D1B02FA2F
:1050F0001507FA1DF11D1C01FA1507FA1DF11D1CFB
:1051000001FA1507FA1DF01D1B01FA1507FA1DF02B
:105110001D1A01FA1506FA1CF01D1A01FA1607FAF3
:105120001BF01D1A01FA1507FA1CF11D1B01FA15D7
:1051300007FA1CF11D1B01FA1507FA1CF01C1A01D5
:10514000FA1607FA1CF01C1A02FA1606F91CF01CD3
:105150001B02FA1606F91CF01C1B02FA1507FA1DB1
:10516000F01C1B02FA1507FA1CF01C1A01FA1507AD
:10517000FA1CF11C1B01FA1607FA1DF01C1B01FAA0
:105180001607FA1DF01C1A02FA1607F91CF01C1972
:1051900002FA1507F91BF11C1902FA1507F91BF0A1
:1051A0001C1902FA1507F91BF01C1A02FA1606FA66
:1051B0001CF01C1A02FA1607FA1CF01C1A02FA1646
:1051C00007F91CF01C1A02FA1606F91CF01E1A0246
:1051D000FB1307FB1BF01E1A01FB1407FB1BF01D42
:1051E0001B01FA1407FA1CF01D1B01FA1507FA1C23
:1051F000F01D1B01FB1507FA1CF01D1B01FA15071A
:10520000FA1CF01D1B02FA1507FA1CF01D1B01FA0F
:105210001506FA1CF01E1B01FA1506FB1DF01E1BDD
:1052200002FA1606FB1DF01D1C01FA1607FA1DF105
:105230001D1C01FA1607FA1DF11D1C01FA1507FACB
:105240001DF11D1C01FA1507FA1DF11E1C01FA15AE
:1052500007FB1DF11E1C01FA1507FB1DF11E1C01A9
:10526000FA1507FB1DF11D1B01FA1507FA1DF01CAD
:105270001B01FA1507FA1CF01C1B02FA1507F91C92
:10528000F11C1B02FA1507F91CF11C1B02FB150788
:10529000F91CF11C1B02FB1507F91CF11C1B02FB7E
:1052A0001507F91CF01C1A01FB1507FA1CF11C1953
:1052B00001FB1507F91BF11C1801FB1507F91AF181
:1052C0001C1901FB1507FA1BF11D1B01FA1507FA42
:1052D0001CF11D1B01FA1607FA1CF11D1B01FA1621
:1052E00007FA1CF11D1C02FA1607FA1DF11D1C021B
:1052F000FA1607FA1DF11D1B02FA1607FA1DF11D19
:105300001C02FA1507FA1DF11D1C01FA1507FA1DFA
:10531000F11D1B01FB1507FA1DF11D1B01FB1507F4
:10532000FA1DF11C1B01FA1507FA1CF11D1B02FAEC
:105330001507FA1DF11D1C01FA1507FA1DF11D1CB8
:1053400001FA1507FA1DF01D1B01FA1507FA1DF0E9
:105350001D1A01FA1506FA1CF01D1A01FA1607FAB1
:105360001BF01D1A01FA1507FA1CF11D1B01FA1595
:1053700007FA1CF11D1B01FA1507FA1CF01C1A0193
:10538000FA1607FA1CF01C1A02FA1606F91CF01C91
:105390001B02FA1606F91CF01C1B02FA1507FA1D6F
:1053A000F01C1B02FA1507FA1CF01C1A01FA15076B
:1053B000FA1CF11C1B01FA1607FA1DF01C1B01FA5E
:1053C0001607FA1DF01C1A02FA1607F91CF01C1930
:1053D00002FA1507F91BF11C1902FA1507F91BF05F
:1053E0001C1902FA1507F91BF01C1A02FA1606FA24
:1053F0001CF01C1A02FA1607FA1CF01C1A02FA1604
:1054000007F91CF01C1A02FA1606F91CF01C1A0205
:10541000FA1507F91CF01B1A02FA1507F91CF01C03
:105420001A02FA1607F91CF01C1902FA1607F91BE2
:10543000F01C1902FA1607F91BF01C1902FA1507DD
:10544000F91BF11C1902FA1507F91BF01C1A02FAD4
:105450001507F91BF01C1A02FA1506F91CF01C1AA4
:1054600002FA1506F91CF01C1B02FA1507F91DF0CB
:105470001C1B02FA1507F91CF11C1A02FA1507F990
:105480001CF11C1A02FA1507F91CF01C1A02FA1575
:1054900007F91CF01C1A02FA1507F91CF01C1A0275
:1054A000FA1507F91CF01C1902FA1507F91BF01D73
:1054B0001902FA1507FA1BF01C1A02FA1506FA1C53
:1054C000F01C1A01FA1406F91CF01C1A02FA140650
:1054D000F91BF01C1A02FA1507F91CF01C1A02FA43
:1054E0001507F91BF01C1902FA1506F91BF01C1917
:1054F00002FA1506F91BF01C1902FA1506F91BF041
:105500001C1A02FA1506F91CF01C1A02FA1507F902
:105510001CF01C1A02FA1507F91CF01C1A02FA15E5
:1055200007F91BF01D1902FA1506FA1BF01D1902E6
:10553000FA1506FA1BF01D1902FA1506F91BF11DE2
:105540001A01FA1507FA1BF11C1A02FB1508F91CBF
:10555000F11C1B02FA1507F91CF01D1B02FA1507B6
:10556000F91CF01D1B02FA1507F91CF01D1B02FAAD
:105570001607F91CF01C1B02FA1606F91CF01C1A7F
:1055800002FA1606F91CF01C1A02FA1606F91BF0AC
:105590001C1902FA1507F91BF01C1A02FA1507F973
:1055A0001BF01C1A02FA1507F91BF01C1A02FA1557
:1055B00007F91BF01D1A02FA1507F91BF11C1A0155
:1055C000FA1507F91CF11C1B01FA1507F91CF11C4F
:1055D0001C02FA1507F91DF11C1C02FA1507F91D2A
:1055E000F11C1B02FA1507F91CF11C1B02FA150726
:1055F000F91CF11C1A02FA1507F91CF11C1A02FA1F
:105600001507F91BF01C1A02FA1507F91BF01C1BF1
:1056100002FA1507F91CF11C1A02FA1507F91CF118
:105620001C1B02FA1507F91CF11D1A02FA1507F9DD
:105630001BF11D1A01FA1507F91BF01D1A01FA15C5
:1056400007F91BF01C1A02FA1507F91CF01C1A02C4
:10565000FA1507F91CF01B1A02FA1507F91CF01CC1
:105660001A02FA1607F91CF01C1902FA1607F91BA0
:10567000F01C1902FA1607F91BF01C1902FA15079B
:10568000F91BF11C1902FA1507F91BF01C1A02FA92
:105690001507F91BF01C1A02FA1506F91CF01C1A62
:1056A00002FA1506F91CF01C1B02FA1507F91DF089
:1056B0001C1B02FA1507F91CF11C1A02FA1507F94E
:1056C0001CF11C1A02FA1507F91CF01C1A02FA1533
:1056D00007F91CF01C1A02FA1507F91CF01C1A0233
:1056E000FA1507F91CF01C1902FA1507F91BF01D31
:1056F0001902FA1507FA1BF01C1A02FA1506FA1C11
:10570000F01C1A01FA1406F91CF01C1A02FA14060D
:10571000F91BF01C1A02FA1507F91CF01C1A02FA00
:105720001507F91BF01C1902FA1506F91BF01C19D4
:1057300002FA1506F91BF01C1902FA1506F91BF0FE
:105740001C1A02FA1506F91CF01C1A02FA1507F9C0
:105750001CF01C1A02FA1507F91CF01C1A02FA15A3
:1057600007F91BF01D1902FA1506FA1BF01D1902A4
:10577000FA1506FA1BF01D1902FA1506F91BF11DA0
:105780001A01FA1507FA1BF11C1A02FB1508F91C7D
:10579000F11C1B02FA1507F91CF01D1B02FA150774
:1057A000F91CF01D1B02FA1507F91CF01D1B02FA6B
:1057B0001607F91CF01C1B02FA1606F91CF01C1A3D
:1057C00002FA1606F91CF01C1A02FA1606F91BF06A
:1057D0001C1902FA1507F91BF01C1A02FA1507F931
:1057E0001BF01C1A02FA1507F91BF01C1A02FA1515
:1057F00007F91BF01D1A02FA1507F91BF11C1A0113
:10580000FA1507F91CF11C1B01FA1507F91CF11C0C
:105810001C02FA1507F91DF11C1C02FA1507F91DE7
:10582000F11C1B02FA1507F91CF11C1B02FA1507E3
:10583000F91CF11C1A02FA1507F91CF11C1A02FADC
:105840001507F91BF01C1A02FA1507F91BF01C1BAF
:1058500002FA1507F91CF11C1A02FA1507F91CF1D6
:105860001C1B02FA1507F91CF11D1A02FA1507F99B
:105870001BF11D1A01FA1507F91BF01D1A01FA1583
:1058800007F91BF01C1A02FA1507F91CF01C1B0281
:10589000FA1507F81CF11C1B02FA1507F91CF11C7C
:1058A0001A02FA1507F91BF01D1A02FA1507F91B5F
:1058B000F01C1A02FA1507F91BF01C1A02FA150758
:1058C000F91BF01C1B02FA1407F91CF01D1B02FA4D
:1058D0001507F91CF01D1B02FA1507F91CF01D1A1B
:1058E00002FA1507F91BF01D1B02FA1506F91BF049
:1058F0001C1B02FA1506F91CF01C1C02FA1506F90D
:105900001CF01C1C02FA1506F91DF01D1B02FA15ED
:1059100006F91CF01D1B02FA1507F91CF11D1B02EC
:10592000FA1507F91CF11D1A02FA1507F91BF11DEA
:105930001A02FA1407F91BF11D1A02FA1407F91BCF
:10594000F01D1A02FA1407F91BF01D1A02FA1407C7
:10595000F91BF01D1A02FB1407F91BF01D1A01FBBD
:105960001406F91BF01D1B01FA1406F91CF01D1B8F
:1059700002FA1507F91CF11D1B02FA1507F91CF1B3
:105980001D1B02FA1507F91CF01E1B02FA1507FA77
:105990001CF11E1B02FA1507FA1CF11E1B02FA1558
:1059A00007FA1CF11D1B02FA1507F91CF11D1B0259
:1059B000FA1507F91CF11D1B02FA1507F91BF01D5A
:1059C0001B02FA1507F91CF01D1C02FA1507F91D38
:1059D000F01D1C02FA1506F91CF01E1B02FA150632
:1059E000FA1CF01E1C02FA1507FA1CF01E1B02FA24
:1059F0001507FA1CF01E1A02FA1507FA1BF01E1BF7
:105A000002FA1507FA1BF01E1A02FA1507FA1BF024
:105A10001E1A02FA1507FA1BF01D1A02FA1507F9E9
:105A20001BF01E1A02FA1507FA1BF01E1B02FA15CC
:105A300007FA1CF01E1B02FA1507FA1CF01D1B02C8
:105A4000FA1507F91CF01D1C02FA1506F91CF01DC9
:105A50001C02FA1506F91CF01E1C02FA1506F91CA8
:105A6000F01E1B02FA1506F91CF01E1B02FA1507A0
:105A7000FA1CF01E1B02FA1506FA1CF01D1C02FA95
:105A80001506F91CF01D1C02FA1507F91CF01D1B68
:105A900002FA1506F91CF01E1B02FA1506FA1CF094
:105AA0001E1C02FA1507FA1CF01E1C02FA1506FA53
:105AB0001DF01E1C01FA1507FA1CF01E1B02FA1538
:105AC00007FA1CF01D1B02FA1507FA1CF01C1B023A
:105AD000FA1507F81CF11C1B02FA1507F91CF11C3A
