:020000040800F2
:10000000C8710020D1010008F5160008CD110008C4
:10001000F1160008A9020008CD1A0008000000002F
:10002000000000000000000000000000351800087B
:10003000AD0200080000000025170008691800083C
:10004000EB010008EB010008EB010008EB010008E0
:10005000EB010008EB010008EB010008EB010008D0
:10006000EB010008EB010008EB010008EB010008C0
:10007000EB010008EB010008EB010008EB010008B0
:10008000EB010008EB010008EB010008EB010008A0
:10009000EB010008EB010008EB010008EB01000890
:1000A000EB010008EB010008EB010008EB01000880
:1000B000EB010008EB010008EB010008EB01000870
:1000C000EB010008EB010008EB010008EB01000860
:1000D000EB010008EB010008EB010008EB01000850
:1000E000EB010008EB010008EB010008EB01000840
:1000F000EB010008EB010008EB0100080000000024
:10010000EB010008EB010008EB010008EB0100081F
:10011000EB010008EB010008EB010008EB0100080F
:10012000EB010008EB010008EB010008EB010008FF
:10013000EB010008EB010008EB010008EB010008EF
:10014000EB010008EB010008EB010008EB010008DF
:10015000EB010008EB010008EB010008EB010008CF
:10016000EB010008EB010008EB010008EB010008BF
:10017000EB010008EB010008000000000000000097
:10018000EB010008EB010008EB010008EB0100089F
:10019000EB010008EB010008000000000000000077
:1001A0000000000000000000EB010008EB01000867
:1001B000EB010008EB010008EB010008DFF80CD0B0
:1001C00000F060F800480047A12E0008C871002028
:1001D0000648804706480047FEE7FEE7FEE7FEE7E1
:1001E000FEE7FEE7FEE7FEE7FEE7FEE7E5180008AC
:1001F000BD01000810B5431A934209D2831888182C
:1002000003E010F8011D03F8011D521EF9D210BDC4
:1002100040EA01039B0703D009E008C9121F08C088
:10022000042AFAD203E011F8013B00F8013B521E08
:10023000F9D210BDD2B201E000F8012B491EFBD269
:1002400070470022F6E710B513460A4604461946E1
:10025000FFF7F0FF204610BD30B50B4601460020E9
:100260002022012409E021FA02F59D4205D303FA78
:1002700002F5491B04FA02F52844151EA2F10102F9
:10028000F1DC30BD064C074D06E0E06840F00103AC
:1002900094E8070098471034AC42F6D3FFF792FF7A
:1002A000F4CC010814CD0108FEE7000070470000FF
:1002B000B0B5682003F0EEF8044600284FF00000C7
:1002C00008BFB0BD1A22227742F2354242F2E13332
:1002D000C0F60002C0F6000304F13001C4E90123B6
:1002E000012284F86400204604F14C0584F848207B
:1002F00002F03EF920622046294602F039F9606298
:100300002046B0BDB0B5044600F0F0F8054640F216
:100310001400C2F200000068611C18BF044400BF52
:1003200000F0E4F8401BA042FAD3B0BD2DE9F04F35
:1003300083B00C68002C00F0C48000F1384241F614
:10034000004740F2004E4FEAB222C4F60007C4F262
:10035000010E01920822B8424FF001054FF000064D
:100360004FF000074FF0010808BF0722009209E094
:100370000C68043734FA08F208F1010806F10206A5
:1003800000F09F80A8F1010905FA09FB14EA0B0CA3
:10039000EED04C6844F01004122C12D16FF003021E
:1003A00002EA5904044407F01C050F22D4F820A0E7
:1003B00002FA05F30A692AEA0303AA4001251A434F
:1003C0002262026803234C68B3406FEA030A9A432F
:1003D00004F00303B3401A43122C026014D805FA48
:1003E00004F212F0061F0FD08268CB6802EA0A02FC
:1003F000B3401A4382604268C4F3001322EA0B023E
:1004000003FA09F31A434260C2688B6802EA0A02DF
:10041000B3401A43E300C260AAD541F26003C4F2BC
:1004200002031A684FF6084A42F001021A601A687D
:10043000CFF6FF7A02F001020292029A29F003023B
:10044000724452F80A3007F00C040F25A54023EA45
:100450000509019B009D072B38BF1D4605FA04F4D2
:1004600044EA090342F80A30DEF800204B6842EA09
:100470000C04DD0358BF22EA0C04CEF80040DEF87D
:1004800004209D0342EA0C0458BF22EA0C04CEF873
:100490000440DEF80820DD0242EA0C0440F20C457C
:1004A00058BF22EA0C04CEF80840C4F201052A68BD
:1004B0009B0242EA0C0458BF22EA0C042C6001257E
:1004C00056E703B000F000B830BCBDE8C08F0000B4
:1004D000426928230A4208BF1823C1507047000010
:1004E0001823002A08BF2823C150704741F2C010CA
:1004F000C2F200000068704740F2140041F2C011DF
:10050000C2F20000C2F2000100680A6810440860EC
:100510007047000080B5032000F062F8002000F072
:1005200009F800281CBF012080BD00F02FF8002032
:1005300080BD0000B0B540F21401C2F200010968AC
:1005400001B3044640F21000C2F200004FF47A7288
:100550000068B2FBF1F1B0FBF1F000F03DFD0F2CB3
:100560004FF001050CD858B94FF0FF30214600225A
:10057000002500F025F840F21800C2F200000460E7
:100580002846B0BD01252846B0BD000082B041F22A
:100590005800C4F20200816841F001018160816865
:1005A00001F0010101910199016841F08051016060
:1005B000006800F080500090009802B07047000082
:1005C00070B514460D46064601F09CFA29462246AF
:1005D00001F092F80146304601F09CFA70BD00002F
:1005E00080B501F0A9FA80BD47F20000C4F2000016
:1005F0000168322221F48041016040F21001C2F210
:100600000001096851434DF68362C4F21B32A1FB1D
:100610000212012101EB924143694A1E8A4203D230
:1006200013F400711146F7D140690321800501EAF6
:10063000E070704747F20000C4F20000016841F426
:10064000804101607047000047F20000C4F20000E2
:10065000016801F4C061B1F5806F0FBF4FF4806095
:10066000D0F880004FF4007101EA400070470000AC
:1006700010B50C4647F21401C4F2000109680028C5
:1006800001F4007004D0002808BFFFF7D3FF05E095
:1006900020B1FFF7A9FF002818BF10BD4EF610507B
:1006A000CEF200000168012C21F00401016004BFBA
:1006B00030BF10BD40BF20BF20BF10BD2DE9F047A7
:1006C000002800F0B08042F20008C4F2020804469C
:1006D000D8F800000D4600F00F0088420DD2D8F87F
:1006E000000020F00F002843C8F80000D8F80000F0
:1006F00000F00F00A84240F09680207841F2080AEE
:10070000C007C4F2020A0CD14FF00009206881072B
:1007100028D4B9F1800F2DD1DAF8001021F0F001C2
:1007200026E0606800286AD0022870D0032876D1BD
:100730005AF8080C800176D500F0F6FF4BF2004124
:10074000C0F2C44188420AD9DAF8000010F0F00F74
:1007500074D02078800702D5A06800286ED04FF0B2
:10076000000974E0DAF80010A26821F0F0011143EA
:10077000CAF80010D8F8001001F00F01A9420CD9F6
:10078000D8F8001021F00F012943C8F80010D8F85C
:10079000001001F00F01A94245D1410707D5DAF851
:1007A0000010E26821F4E0611143CAF8001000076C
:1007B00008D5DAF80000216920F4605040EAC10051
:1007C000CAF8000000F0D8F8DAF8001044F2C012BD
:1007D000C1F30311C0F60002515C40F2100201F0B7
:1007E0001F0120FA01F140F21800C2F20000006877
:1007F000C2F200021160FFF79DFEBDE8F0875AF8D3
:10080000080C80075CBF0120BDE8F0870EE05AF8B5
:10081000080C80035CBF0120BDE8F08706E05AF8B1
:10082000080C400502D40120BDE8F08700F0A4F8D0
:100830004BF20041C0F2C441884290D9DAF800007E
:10084000082161F307104FF08009CAF80000DAF8B8
:100850000000616820F003000843CAF80000FFF7B9
:1008600045FE064641F28837DAF80000616800F07C
:100870000C00B0EB810F3FF449AFFFF737FE801B50
:10088000B842F1D90320BDE8F087000070B541F20D
:100890000005C4F20205286840F001002860FFF757
:1008A00025FE04462868800706D4FFF71FFE001BBC
:1008B0000228F7D9032070BD2868062161F30710CC
:1008C00028600020A86040F21800C2F2000040F248
:1008D0001001006840F60012C2F20001C0F23D02B1
:1008E0000A60FFF727FE00281CBF012070BDFFF73C
:1008F000FDFD044641F28836A86810F00C0F06D0C2
:10090000FFF7F4FD001BB042F6D9032070BD286844
:100910004FF2FF41CEF6FE2108402860FFF7E6FDCA
:10092000044600BF286810F0285F06D0FFF7DEFD00
:10093000001B0228F6D9032070BD0020E860E9689A
:1009400041F48051E9602861296941F480512961AD
:100950006861696941F480516961296821F48021E5
:1009600029604FF0FF31A8612962D5F8941041F455
:100970000001C5F8941070BD41F20C01C4F20201EF
:1009800051F8040C10F00C02086805D00C2A40D174
:1009900000F0030001283CD151F80C0C000703D4EF
:1009A000D1F88800000A02E051F80C0C00094AF660
:1009B000D01300F00F00C0F6010353F82030002AD6
:1009C000184618BF00200C2A18BF7047086800F0AE
:1009D0000300022806D0032804BF41F20023C0F21E
:1009E0007A0303E042F20043C0F2F40308680A68A5
:1009F000C0F30310C2F30622096801305A43B2FB68
:100A0000F0F0C1F34161022202EB4101B0FBF1F0D1
:100A10007047042A07D0082A0BD141F20020002396
:100A2000C0F27A00CFE742F200400023C0F2F400A7
:100A3000C9E700200023C6E72DE9F04381B0002874
:100A400000F0728141F200060446C4F20206B0686A
:100A5000F168227800F00C08D00601F003071CD4DE
:100A60002078C00700F0E980B8F1080F45D0B8F150
:100A70000C0F08BF032F40D06568B5F5A02F00F01C
:100A8000B780B5F5803F00F0B780306820F4803043
:100A90003060306820F48020B1E0B8F1000F1DD044
:100AA000B8F10C0F08BF012F18D0A16930680029D8
:100AB0007AD040F001003060FFF718FD054600BF16
:100AC0003068800700F18280FFF710FD401B02288C
:100AD0004FF00300F4D901B0BDE8F083306880071F
:100AE00003D5A069002800F01F81206A316809073A
:100AF0000CD4D6F89410090909E03068800340F15D
:100B00009C806068002840F098800DE1316801F019
:100B1000F001884216D900F049FE002840F0048117
:100B2000306840F0080030603068D4E9072120F0D8
:100B3000F00008433060706820F47F4040EA0220F3
:100B4000706014E0316841F008013160316821F0D3
:100B5000F001014331607168E26921F47F4141EAAB
:100B60000221716000F022FE002840F0DD80FFF7D6
:100B700003FFB16844F2C012C1F30311C0F60002D2
:100B8000515C40F2100201F01F0120FA01F140F225
:100B90001800C2F200000068C2F200021160FFF704
:100BA000C9FC002897D15BE720F001003060FFF717
:100BB0009DFC0546306880077FF552AFFFF796FC35
:100BC000401B02284FF00300F4D984E7306840F05E
:100BD000080030603068D4E9072120F0F0000843B5
:100BE0003060706820F47F4040EA0220706037E790
:100BF000306840F480203060306840F480303060ED
:100C0000FFF774FC002D054614D000BF3068800348
:100C100013D4FFF76BFC401B64284FF00300F5D999
:100C200059E700BFFFF762FC401B64284FF0030048
:100C30003FF651AF30688003F4D4207880072BD57D
:100C4000B8F1040F1BD0B8F10C0F08BF022F16D05B
:100C5000E1683068002900F0468140F4807030601F
:100C6000FFF744FC054600BF306840050DD4FFF790
:100C70003DFC401B02284FF00300F5D92BE73068FC
:100C8000400502D5E06800284ED07068216920F048
:100C9000FE4040EA016070602078000748D4207868
:100CA00040075ED42078800600F19180A06AB8B336
:100CB000B8F10C0F40F0B980012835D0F068E16A36
:100CC00000F003028A422FD1226B6FF00F0300F075
:100CD000F00103EB0212914226D1616B00F4FE4257
:100CE000B2EB012F20D1A16B00F07842B2EBC16FC3
:100CF0001AD1E26B0023CFF6E07303EB025200F44B
:100D0000C0016FF3140291420ED1216C4FF07E426C
:100D100002EB016100F0C06001F07E41884203D126
:100D2000002001B0BDE8F083012001B0BDE8F083F0
:100D30006169D6F89400002963D040F00100C6F83C
:100D40009400FFF7D3FB0546D6F894008007A6D49D
:100D5000FFF7CCFB401B0228F6D9032001B0BDE809
:100D6000F083B06D10F0805908D1B06D40F0805024
:100D7000B065B06D00F080500090009847F2000719
:100D8000C4F200073868C00511D4386840F4807098
:100D90003860FFF7ABFB05463868C00507D4FFF79E
:100DA000A5FB401B02284FF00300F5D993E6A56888
:100DB000052D64D0012D68D0D6F8900020F00100F8
:100DC000C6F89000D6F8900020F0040061E0616A57
:100DD000D6F8980000293DD040F00100C6F89800F0
:100DE000FFF784FB054600BFD6F8980080073FF563
:100DF0005DAFFFF77BFB401B02284FF00300F3D9E8
:100E000069E620F00100C6F89400FFF76FFB054685
:100E1000D6F8940080077FF542AFFFF767FB401BD1
:100E200002284FF00300F3D955E63168022821F07B
:100E3000807131606AD1FFF759FB05463068800147
:100E400040F18280FFF752FB401B02284FF0030065
:100E5000F4D940E620F00100C6F89800FFF746FB01
:100E6000054600BFD6F8980080077FF51FAFFFF753
:100E70003DFB401B02284FF00300F3D92BE6D6F8C8
:100E8000900040F00400C6F89000D6F8900040F0C2
:100E90000100C6F89000FFF729FB002D054641F23E
:100EA000883713D0D6F89000800713D4FFF71EFBC5
:100EB000401BB8424FF00300F4D90CE6FFF716FBD5
:100EC000401BB8424FF003003FF605AED6F8900045
:100ED0008007F3D4B9F1000F7FF4E4AEB06D20F0D9
:100EE0008050B065DEE620F480703060FFF7FEFAD7
:100EF000054600BF306840057FF5CEAEFFF7F6FA35
:100F0000401B02284FF00300F4D9E4E5306810F0EC
:100F1000205F03D1F06820F00300F060F0684FF626
:100F2000FF71CFF6EE610840F060FFF7DFFA04468C
:100F3000306880017FF5F4AEFFF7D8FA001B022875
:100F40004FF00300F4D9C6E5F06848F20C01C0F296
:100F50009D1104F12C0700EA010C8ECF6FF00F00F9
:100F6000D4E90F5400EB02100022CFF6E07241EA00
:100F70000C0102EB055208436FF314024FF07E455B
:100F800040EA032005EB0465104305F07E4540EA86
:100F9000C7602843F060306840F080703060F068CF
:100FA00040F08070F060FFF7A1FA044630688001DD
:100FB0003FF5B6AEFFF79AFA001B02284FF0030088
:100FC000F4D988E54EF21000CEF20000016841F03D
:100FD000020101607047000080B500F02DFC80BD6B
:100FE0004EF21000CEF20000016821F00201016013
:100FF0007047000010B590F83C20012A4FF0020223
:101000002AD0012380F83C3080F83D20026843F26A
:101010000043D2F804E0D2F808C0C4F201039A42B7
:1010200005D042F60043C4F201039A4204D14C6851
:101030002EF4700344EA030E0C682EF070038968E6
:1010400023432CF08004214353609160012100224E
:1010500080F83D1080F83C20104610BD002804BFE9
:101060000120704710B5044690F83D0028B90020D3
:1010700084F83C00204600F00DF8022084F83D0082
:101080002068211D00F058FC012084F83D0000205C
:1010900010BD000081B0006840F60041C4F20001BC
:1010A000884201D001B0704741F25800C4F20200FA
:1010B000016841F008010160006800F0080000903C
:1010C000009801B0704700000146022081F83D0001
:1010D000086807238268C0F201031A40062A06D076
:1010E000B2F5803F03D0026842F0010202600122A3
:1010F000002081F83D20704710B5044690F83C0070
:1011000001284FF0020008BF10BD012284F83C20E6
:1011100084F83D00206888238268CFF6FE731A4069
:1011200082600A683F2A14DD5F2A18DD602A28D011
:10113000B2F5005F2DD0702A40D1D1E9012CCB68E7
:10114000614600F08BFC2068816841F07701816086
:1011500034E01F2A0FDC92B1102A10D02EE0402A72
:1011600023D0502A2AD14B68CA68194600F08AFC5D
:101170002068502120E0202A01D0302A1ED11146BB
:101180001AE04B68CA68194600F08EFC206860219E
:1011900012E0D1E9012CCB68614600F05FFC2068C9
:1011A000816841F48041816008E04B68CA68194653
:1011B00000F068FC2068402100F05CFC012084F80D
:1011C0003D00002084F83C0010BD0000FEE7000058
:1011D00040F60061CEF20001D1F88020D2071CBF9A
:1011E00009685FEAC17100D170474FF0604100BFEC
:1011F0000A680AB900BFFBE7087070472DE9F043A1
:1012000081B0814602F05CF944F2D01109EBC900CB
:10121000C0F6000140F26C0840F6F45501EBC01135
:1012200040F27000C2F20008C2F20005C2F20000F3
:101230004FF49062C8F80050FEF7DCFF284602F039
:1012400091F84BF26120C0F6010002F043FE41F23A
:10125000AC17C2F200074BF273257E1E0624C0F6BF
:10126000010500BF16F9011F284602F033FE013CBC
:10127000F8D10A2002F08CFF6FF07F0000210025DA
:101280007A569042BCBF10460D4601310629F7D16F
:1012900015A0294602F01EFE4AF60020C0F6010005
:1012A00050F829404BF24F20C0F60100214602F0D1
:1012B00011FED8F8000001F0F1FF40F26800C2F220
:1012C0000000056040F20C00C2F200000021A542BF
:1012D000017006D140F22400C2F200000168013121
:1012E000016001B0BDE8F0834F7574707574204CD7
:1012F0006162656C3A2025640A0000002DE9F04126
:1013000041F2B21740F26C080C460528C2F2000701
:10131000C2F2000800F2B780DFE800F003203D5A77
:10132000779402F087F944F6D07104EB4400C0F6DC
:10133000010140F67C6501EBC01140F2F040C2F2C1
:101340000005C2F200004FF4C072C8F80050FEF76A
:1013500051FF41F2B416C2F200068FE002F0F0F93C
:1013600044F6D07104EB4400C0F6010140F6047568
:1013700001EBC01140F27060C2F20005C2F2000041
:101380004FF4C072C8F80050FEF734FF41F2B616B1
:10139000C2F2000672E002F059FA44F6D07104EB92
:1013A0004400C0F6010140F68C7501EBC01140F21B
:1013B000F070C2F20005C2F200004FF4C072C8F82B
:1013C0000050FEF717FF41F2B816C2F2000655E0D2
:1013D00002F0C2FA44F6D07104EB4400C0F60101F9
:1013E00041F2140501EBC01140F67010C2F2000585
:1013F000C2F200004FF4C072C8F80050FEF7FAFEC7
:1014000041F2BA16C2F2000638E002F02BFB44F6B5
:10141000D07104EB4400C0F6010141F29C0501EBE0
:10142000C01140F6F020C2F20005C2F200004FF4F5
:10143000C072C8F80050FEF7DDFE41F2BC16C2F2E1
:1014400000061BE002F094FB44F6D07104EB44006C
:10145000C0F6010141F2241501EBC01140F67040C5
:10146000C2F20005C2F200004FF4C072C8F800508A
:10147000FEF7C0FE41F2BE16C2F20006284601F099
:1014800071FF308838804BF26120C0F6010002F015
:1014900021FD4BF273250026C0F60105B9572846F9
:1014A00002F018FD0136012EF8D00A2002F070FE7D
:1014B0006FF07F0100220020BB569942BCBF194645
:1014C00010460132012AF7D04AF60025C0F6010580
:1014D000E0B1012823D140F2680640F20C00C2F2CC
:1014E0000006C2F2000000223168027013A002F070
:1014F000F1FC306855F82410884210D140F22400E5
:10150000C2F2000001680131016008E040F20C0005
:10151000C2F20000012101700FA002F03FFE55F859
:1015200024104BF24F20C0F6010002F0D3FCD8F893
:10153000000001F0B3FEBDE8F08100BF4F7574708C
:101540007574204C6162656C2072656D61696E73A3
:101550003A205B25645D0A004F7574707574206CC9
:101560006162656C206368616E6765732C20696ECB
:10157000766F6B65204249470000000070B586B069
:10158000002541F24C000595CDE90355CDE9015503
:10159000C4F20200016840F2004441F0020101601F
:1015A0000068C4F6000400F0020000900098204695
:1015B0004FF4814100224FF48146FEF791FF012054
:1015C000CDE9020501A9204601960495FEF7AEFE7D
:1015D00006B070BDB0B588B040F2280440F60040B7
:1015E000C2F20004C4F2000000254BF680314FF037
:1015F000FF3284E8230020460795CDE90555CDE963
:101600000355CDE90155C4E90325A561FFF726FD82
:101610004FF48050049004A92046FFF76DFD01A906
:10162000204601950395FFF7E5FC2046FFF74CFDAA
:101630002068456208B0B0BD2DE9F04F81B0054685
:101640008C20984691468B4601F024FF002840D01C
:10165000044600F1480100F1640700F18006132000
:10166000207743F20D1043F27102C0F60000C0F67D
:101670000002C4E901020120DDF828A084F860001E
:1016800084F87C0084F88800204600F071FF206216
:101690002046394600F06CFFBAF1010F6062266106
:1016A0002563A4F834B0C4F83690A4F83A8084F8DE
:1016B00042A010D14FF0FF3010FA85F101EBD1714B
:1016C00000EB1540490800EBD070A18740100121C4
:1016D00004E0002405E000200021A087E087A4F8B2
:1016E0004010204601B000F000B830BCBDE8C08F0B
:1016F000FEE700007047000000F0070080F00703DD
:10170000042B28BF04234FF0FF3C03380CFA03F3EB
:1017100038BF0020994381400CFA00F022EA000013
:10172000084370477047000041F20C00C4F2020009
:10173000016801F00301012907D150F80C1C0907C9
:1017400005D4D0F88810090A04E000210AE050F816
:101750000C1C09094AF6D01201F00F01C0F6010273
:1017600052F82110026802F00302022A06D0032A6E
:1017700004BF41F20021C0F27A0103E042F20041CD
:10178000C0F2F40102680368C2F30312C3F3062334
:10179000006801325943B1FBF2F1C0F3416002220B
:1017A00002EB4000B1FBF0F070470000B0B582B032
:1017B00041F25805C4F2020529680446C9001AD44A
:1017C000286840F080502860286800F08050019020
:1017D0000198FEF739FF296821F080512960B0F5A2
:1017E000007F0DD07F2C8FBF0220A4F17000B0FAD3
:1017F00080F040090CE0FEF727FFB0F5007FF1D143
:10180000812C04D30120A02C88BF022000E00020FE
:1018100042F20001C4F202010A6822F00F020244FF
:101820000A60096801F00F01081A18BF012002B010
:10183000B0BD000070470000B0B501380024B4EB23
:10184000106F1CBF0120B0BD4EF21005CEF2000596
:1018500068604FF0FF300F2100F05CF90720AC60AA
:1018600028602046B0BD000080B5FEF745FE80BD73
:10187000F0B597B001AD04460026284644211696DF
:10188000CDE91466CDE91266FEF7DBFC42F20000FA
:10189000C4F202000168032767F303010160FEF749
:1018A000F5FF1020602101900120CDE9086102219F
:1018B0000790CDE90B100D9060080E9007200F9057
:1018C0000420109028461191FFF7B6F80F20CDE9BB
:1018D000120712A80421CDE914661696FEF7EEFE53
:1018E00017B0F0BD4EF68850CEF2000001684FF000
:1018F000000C41F47001016041F20001C4F20201E8
:101900000A6842F001020A60C1F808C00B684FF68D
:10191000FF72CEF6F6221A400A604FF48052CA6077
:101920000A6822F480220A60C1F818C04FF00061F2
:1019300040F8801C7047000080B540F6FF33026815
:10194000C4F2000398420FDCB0F1804F1ED040F289
:101950000043C4F20003984218D040F60003C4F2DA
:101960000003984212D015E040F60043C4F2000391
:1019700098420BD043F20043C4F20103984205D0D1
:1019800042F60043C4F20103984203D14B6822F0AF
:1019900070021A4342F6FF33C4F20103984214DD89
:1019A00043F6FF73C4F2010398421ADD44F20003C8
:1019B000C4F2010398422DD044F60003C4F201039F
:1019C000984227D044F2004313E040F2FF73C4F280
:1019D0000003984212DCB0F1804F1BD040F200436C
:1019E00014E042F60043C4F20103984212D043F2DD
:1019F0000043C4F2010398420CD00FE040F600030C
:101A0000C4F20003984205D040F60043C4F200033C
:101A1000984203D1CB6822F440721A434B6922F0FA
:101A2000800E8A6843EA0E03D1F800C00360C262E8
:101A3000A0F18042A2F596324FEAB222072AC0F8FE
:101A400028C007D8012303FA02F212F0E50F1CBFE9
:101A5000096901630121416180BD0000D0F808C01F
:101A600011432CF47F4C41EA032141EA0C018160CF
:101A700070470000826822F07002114341F00701B4
:101A800081607047D0F820C0036A23F0010303622D
:101A9000836923F0F00343EA02122CF00A0319438E
:101AA0008261016270470000036A23F01003036241
:101AB0008369D0F820C023F4704343EA02322CF04B
:101AC000A00343EA0111826101627047FEE7000052
:101AD00010F1800FBCBF6FF07F0070477F28A8BF58
:101AE0007F20704710F5004FBEBF48F20000CFF6D0
:101AF000FF70704747F6FF718842B8BF014608463D
:101B0000704700004EF60C50CEF200000068C0F3A3
:101B1000022070474EF6145300F00F02CEF200037D
:101B200009011A4400F16043B0F1FF3FC8BF03F55B
:101B300064421170704700004EF60C51CEF2000165
:101B40000A684FF6FF031A4060F30A2242F08060F1
:101B500040F0FD700860704700F0FC00042808BFEA
:101B6000072108467047000080B50C2001F092FC68
:101B700043F62551C0F6000101600121017280BDCC
:101B800000F10802002100BF13782BB101310829B0
:101B900002F10C02F8D1082101EB4102083918BF0B
:101BA00000EB82010846704710B560B1016800295A
:101BB00008BF10BD044640680028FBD1082001F092
:101BC00069FC606010BD002010BD000010B588B138
:101BD0000168002908BF10BD044680680028FBD1B9
:101BE0001C2001F057FCA06020B101466269A0688A
:101BF0004A6110BD002010BD10B500224FF0000E4C
:101C00008318D3F824C0BCF1000F06D00C3201EBCE
:101C10000E04602AE6441C62F2D1002010BD0000D0
:101C200040F29311401A18BF012070472DE9F04F80
:101C300081B06E46002B4FF0010A18BF1E460029E6
:101C4000CDF800A000F08F8091460F46804640F20C
:101C5000011B3D6A286848B105B300BF2868A96820
:101C60000069002928610D46F8D117E02869A8B954
:101C70004846FFF785FF0446007A411CE868217258
:101C800002F00EF9042101F0EFFB6168884288BF81
:101C9000014661602C6184F809A000BF386A58B120
:101CA000816849B1016900295FD0497A01295ED173
:101CB00080680028F6D100BFB9683846884740469A
:101CC000394600F0CDFC3D6995B14846FFF758FF15
:101CD0000446007A04210130207268682C6084F880
:101CE00009A001F0C1FB6168884288BF01466160BC
:101CF000306801303060384601F0E6FF7D6A002D23
:101D000000F08780A868B8BB6868A8BB386A017E05
:101D1000D1B1297EC1B14846FFF732FF00287CD0FF
:101D2000A0F808B00446E86802F0BAF8042101F00F
:101D30009BFB6168884288BF0146786A61600461E4
:101D4000384601F0E1FF01E000692861384601F002
:101D5000D1FF786A006800285DD04769002F7FF4C2
:101D600078AF002004E0002002E0F82000E0F82036
:101D700040B201B000F055B8386A017E11B3297E37
:101D800001B34FF0010A00BF286828B34846FFF7A7
:101D9000F7FE0028286142D0E86802F081F80421AB
:101DA00001F062FB2C696168884288BF01462846C1
:101DB000616001F063FBAD682072002D84F809A01A
:101DC000E2D109E0046928462C6101F057FB217A31
:101DD0000844207201206072384601F095FF3846B1
:101DE00001F088FF7C6A1CB90020C1E7A46874B1C7
:101DF000254600BF28680028F8D0416940464A4679
:101E00003346FFF713FF6D68002DF3D1EEE7002096
:101E1000AEE70020ACE70020AAE7F920A8E7F92008
:101E2000A6E730BCBDE8C08F2DE9F04381B0044681
:101E3000006AE26C0168CB68597CC360002001F045
:101E4000F1FAD4E90821C860D16801F09FFF206A47
:101E5000216DC0688968806809680268636A1144F6
:101E6000A26DDB6812686069891A9A68116030B1E6
:101E7000007AFFF771FE616AC96889680860206AA4
:101E800094F84860C068218ED0F80490E38EB9F8C9
:101E90000000B4F842503246009500F085F9616ABE
:101EA0003246D1F80C80D8F804502880B9F80200E6
:101EB000618E238FB4F84470009700F075F9688044
:101EC000E06C012EA88014D1608EB4F84410013863
:101ED000484300EBD0704008E087208EB4F84210F1
:101EE0000138484300EBD0704008A0870020A4F8D8
:101EF0004000608E218EB9F80420484300FB02F5B3
:101F0000404601F0CDFF05FB00F10020A16201B0C9
:101F1000BDE8F08310B50446806908B1002010BD0B
:101F2000206D00F077F9606D00F074F9002010BDAD
:101F30002DE9F04F9BB0016AC9688A7C102A46D10E
:101F4000D1E90013D0F824E017915988DEF80C503D
:101F50001A911988D5E9008519919988D0E9144614
:101F60001891418EB5F804C01591018F6B881491BA
:101F7000C18E2D88876DB0F83090B0F83EA0B0F8D3
:101F80003CB01691B0F84410B0F84220C06D3668ED
:101F9000D4F800E0247C10950025CDE9115508AD5A
:101FA000CDE90B07159846C502A981E8010E1498E2
:101FB0000F9306901A99DDE91832DDE91670CDE924
:101FC0000D48CDE900EC079700F056FB42E0D1E95F
:101FD0000013476A17915988FF681A911988D7E941
:101FE000008719919988D0E914651891418EB7F846
:101FF00004C01591018F7B881491C18E3F88846D38
:10200000B0F83090B0F83EA0B0F83CB02D68169112
:10201000B0F84410B0F84220C06DD6F800E0367C2D
:1020200010970027CDE9117708AF26C70BA981E8E3
:102030005101159802A981E8010E14980F9306909A
:102040001A99DDE91832DDE91670CDE900EC079741
:1020500000F042FC00201BB000F000B830BCBDE82E
:10206000C08F000070B582B00546A42001F012FABE
:10207000002847D0044600F1600100F17C060420EE
:102080002077012084F8780084F8940084F8A00078
:10209000204600F06DFA20622046314600F068FAD2
:1020A000606241F63170C0F6000041F6296141F6E8
:1020B0001572231DC0F60001C0F6000207C3A5611A
:1020C000A86804F13006407C03281DD195F91C2036
:1020D0006846012100F08AFABDF804000099B0803A
:1020E000316095F91E206846012101F049FEBDF8D6
:1020F000040000996087C4F8361095F922206846DC
:1021000001211FE000244BE095F91C1095F91D20DA
:10211000684600F06BFABDF804000099B0803160A9
:1021200095F91E1095F91F20684601F029FEBDF8AB
:10213000040000996087C4F8361095F9221095F9CB
:102140002320684600F036F9BDF804000099A4F891
:102150004600C4F84210A86905F10806E06495F845
:10216000240004F1500C84F848004ECE01288CE87D
:102170000E00E66514D1208EB4F8421001384843B1
:1021800000EBD0704008A087608EB4F8441001388E
:10219000484300EBD0704008E0870020A4F84000DE
:1021A000204602B070BD0000002804BF0020704728
:1021B00018440138DDF800C0C1F10101012A18BF3F
:1021C00001FB0C00B0FBF3F070470000B0B5016AF2
:1021D00004460868C068457CC86001F003FE0246FA
:1021E0000020294601F01EF9D4E90821C860D16811
:1021F00001F0CCFD606950B1616A007AC9688968F4
:102200000968FFF7A9FC616AC9688968086000204D
:10221000B0BD0000002808BF704780B501F05AFF2C
:10222000BDE880407047000070B584B0016A044684
:102230000868C068C86001F0D5FD02460020012191
:10224000012601F0EFF8616AD4E90C32C860D2E9E6
:102250000212ADF80E3008250DF10E03009601951F
:1022600001F0E2FD206A616BC068896880680968D6
:102270000268636A1144E26BDB6812686069891A5C
:102280009A68116030B1007AFFF766FC616AC9682C
:1022900089680860206AC06801F002FE4100206A77
:1022A0002269C068516001F0FBFD616A0546C9689A
:1022B000084601F0F5FD00FB05F10020A16204B025
:1022C00070BD000010B50446806908B1002010BD43
:1022D000606BFFF79FFFA06BFFF79CFF002010BD16
:1022E0002DE9F04385B00446006A616BD4E90F32F2
:1022F000C06817881D88D0F80080D1F8009001F0E0
:10230000CFFD616A2269C968A46BD1E90013126824
:1023100024681B881668CDE9024182B240464946CE
:10232000CDE90075049600F0EBFB002005B0BDE898
:10233000F0830000F0B581B00546882001F0AAF8CE
:10234000A0B3044600F1440100F1600600F17C07EF
:1023500008202077012084F85C0084F8780084F855
:102360008400204600F004F920622046314600F047
:10237000FFF8606242F2E120C0F6000042F229213B
:1023800042F2C522231DC0F60001C0F6000207C3B9
:10239000A868276101F026FD05F1080320630FCB33
:1023A00004F1340C8CE80F00A56100E00024204605
:1023B00001B0F0BD80B5012301F0DEFC80BD00005E
:1023C000002804BF00207047416A0968002908BF3F
:1023D000704700BF4869416A09680029FAD170470F
:1023E000B0B584B0016A04460868C068457CC8601E
:1023F00001F0F8FC02460020294601F013F8D4E968
:102400000821C860D06801F04BFDD4E90812ADF88E
:102410000E00CB68D568D3E9021201200824009091
:102420000DF10E032846019401F0FEFC002004B0DB
:10243000B0BD00000020704710B50446FDF738FF1E
:10244000002818BF846110BD10B50446FEF7C0FE19
:10245000204610BDB0B50446006AC068457C01F056
:10246000C1FC02460020294600F0DCFFD4E9082127
:10247000C860D16801F08AFC0020B0BDB0B5016A27
:10248000C46BC9680D68084601F00AFD024628467B
:102490002146FDF7AFFE0020B0BD000070B584B04E
:1024A0000546782000F0F6FF044600284FF00000B3
:1024B00029D00222227742F27D4242F25543C0F6F1
:1024C0000002C0F6000304F14001C4E90123012227
:1024D00084F87400204604F15C0684F8582000F06B
:1024E00047F820622046314600F042F86062686892
:1024F000417C022909D001290CD1406801210388BF
:1025000002A801220BE000242FE04068012102888C
:10251000438803E0406801884288838802A801F06C
:102520002BFCBDF80C000299A08621636868016845
:102530008268E1631168D4F83220A163218ECDF85E
:102540000A20ADF8081001F04DFC024600200321DE
:10255000032500F067FF226AA16BD060082602AB5A
:1025600000220095019601F085FC204604B070BD64
:10257000024608464A61704770B5002808BF70BD22
:10258000044600E0ACB12546D4E9010430B100BFF7
:10259000466801F09FFD002E3046F9D16869016A56
:1025A0008D42EFD0406A8542ECD0284601F092FD82
:1025B000E8E770BD10B5002808BF10BD044600BF95
:1025C000E06801F06DFCA468002CF9D110BD00009A
:1025D00010B5002808BF10BD044600BFE06801F038
:1025E00079FDA468002CF9D110BD000080B501234D
:1025F00001F0C2FB80BD0000002808BF704710B585
:10260000C168044609B120468847207F022802D1CC
:10261000206AFFF7DDFF606AFFF7DAFF206AFFF745
:10262000ABFF606AFFF7A8FF606901F053FD204629
:1026300001F050FDBDE8104070470000B0B560B13A
:102640004168044688476169054611B10A68084631
:1026500090470020E06268B2B0BDFF2568B2B0BD0F
:10266000884207D0026822B18842104608BF7047EE
:10267000F8E70160704700002DE9F04F9DB09946E2
:10268000279B0691002B00F0218133992EAF013951
:10269000B1FA81F14909D0CF269B0291711E0591B3
:1026A00011440491591E0C91023806990B9006FBB7
:1026B00009F048434000179004FB09F04600DDE9AB
:1026C0002A20289B013C4042214401900020DDF853
:1026D000B0800E9103FB09F1079000201691514242
:1026E000139000200A94039112900EE00298129A1F
:1026F000139902442798013113918142299807992F
:1027000012920144079100F0E18036980028EDD044
:1027100000200990019808900AE000BF09993698B6
:102720000131099181422D98089901440891DDD029
:1027300035980028F2D02D98DDF824C02B990CFB99
:1027400000F0401A0599049B2F9A091A181A91FB58
:10275000F2F190FBF2F3299821EAE17E8342C8BFAF
:10276000034632981299002550F8210008991090DC
:10277000359802FB0E110CFB00F00F900798289A79
:10278000704450430D900698039A199300FB01245E
:10279000CDF844E024E000BF109B21FA03F0C3F120
:1027A000200102FA01F10843B3F1200158BF42FAB7
:1027B00001F0FFF797F90F99149D279A139B29446D
:1027C00001FB0231349ADDF8B08022F8110035980F
:1027D000159C0135309FDDF844E0854244449DD08E
:1027E0002A9905FB08F0431A0E982E99C01A90FBFF
:1027F000F1F028998842C8BF08468FB11399319AE1
:1028000017F901C01299329F52F8212057F8217010
:102810000CFA02F10122BA4001EB620108E000BFAC
:102820003299129A51F82210012202FA01F149104C
:10283000199ACDE9145496454FEAE172ACDA0A9F31
:102840000C9DFB1A2E9FCDF870E093FBF7F323EA63
:10285000E37C0D9B07FB0C47634409FB035A09FB10
:1028600007F30B9FCDF860C007EB430710E000BFF4
:10287000169BDDF86CA01C9F9A44199B01371C978E
:102880009F42179B1A9FDDF860C01F443FF484AF3E
:102890008445CDE91A7A07DBEAE700BF0CF1010CA9
:1028A000CA4484453744E3D0B9F1000FF6D03D4621
:1028B000D6464C4635F902BF1EF9018F08FB0BF3D3
:1028C000C91842EBE372013CF4D1E7E71DB000F018
:1028D00000B830BCBDE8C08F2DE9F04F99B09B46E1
:1028E000239B0591002B00F00481DDE92E81DDE9B9
:1028F0002AC60139B1FA81F14909229D0191711E5F
:10290000049111440391691E0B91013805990A90B5
:1029100006FB0BF048431590DDE92620249EACF120
:102920000103194440422C9FDDF8A0E00D9106FB05
:102930000BF100900020149151420CFB0BF6069015
:1029400000204FF000090993029111900DE000BFA3
:102950000198119981442398013111918142259860
:1029600006990144069100F0C48032980028EFD007
:10297000002008900098CDF8389007900AE000BF3A
:1029800008993298013108918142299807990144A8
:102990000791DDD031980028F2D02998DDF820C0C9
:1029A00027990CFB00F0401A0499039B2B9A091AF3
:1029B000181A90FBF2F3259891FBF2F18342C8BFFD
:1029C0000346319821EAE17A0CFB00F007990F9059
:1029D000069802FB0A11249A504450430C90059823
:1029E000029A002400FB01251793CDF840A01DE0BA
:1029F000DDF8B880DDF8389058F8290041FA00F089
:102A0000FFF766F80F99129C239A119B214401FB52
:102A10000231309ADDF8A0E050543198139D013412
:102A20002C9FDDF840A084427544A9D0269904FB70
:102A30000EF0421A0D982A99801A90FBF1F0249911
:102A40008842C8BF08466FB111992D9B795653F83B
:102A5000293058F8297099400123BB4001EB6301EC
:102A600006E000BF58F82910012303FA01F14910CC
:102A7000179BCDE912459A45BADA099B0B9F9A1A22
:102A80002A9B92FBF3F222EAE27C0C9A03FB0C53A2
:102A900062440BFB027E0A9A55460BFB0329CDF8D4
:102AA00058C00BE0149ADDF860E001359644179A9F
:102AB000DDF858C09542159A914499D08445CDF8D7
:102AC00060E0EFDA4A4605E00CF1010CDE44844593
:102AD0003244E7D0BBF1000FF6D0174673465C4690
:102AE00017F901AF13F9018F013C18FB0A11F7D157
:102AF000EAE719B000F000B830BCBDE8C08F0000B4
:102B00002DE9F04F8BB00A91179FDDE915B6002132
:102B10009246B1EB930F00F0DE80012101FA0BF138
:102B200049109A084FEA9A0402910AF00305011F1E
:102B3000CDE90560CDE903430795CDE9001A23E00F
:102B4000159C4EFA04F0FEF7C3FF099F07F8040B2B
:102B500048FA04F0FEF7BCFF07F8030C49FA04F04A
:102B6000FEF7B6FF07F8020C4BFA04F0A346FEF797
:102B7000AFFF089A07F8010C013ADDE90343DDE9EC
:102B80000605110400F0A780002EB446CDE9082701
:102B900076D0059E149B96F90110029F96F90220AB
:102BA000994001EB070802FA03F196F9000001EBE6
:102BB000070996F903109840994000EB070E321D63
:102BC00001EB070B0592002C61D00A98009AA0F146
:102BD0001001234611F9105F12F9046F91F90500F5
:102BE00015FB06EE91F9045092F9024091F901C0EB
:102BF00010FB06BB91F9020092F9017015FB0699D2
:102C000091F908501CFB068C92F903A010FB04E01C
:102C100091F90A6015FB070091F9035016FB0A0EA3
:102C200091F9096015FB04C591F90B0016FB0756D5
:102C300091F9065010FB0A6891F9070015FB0496FC
:102C400010FB04B091F90C5091F90D4015FB07668B
:102C500014FB070091F90E7091F90F50013B17FB1F
:102C60000A691F0415FB0A0BB4D1DDF804A0169EF7
:102C7000079D01F1100004320A906DB960E700BFB2
:102C8000DDF808E0F346F146F046002C9DD1069AA7
:102C90006646002D3FF454AF0A98B446011F013A2E
:102CA0002B4600BF12F9010F11F9047F013B17FBFE
:102CB00000EE91F9017091F9026017FB008891F91B
:102CC000037016FB00991E0417FB00BBEAD1081D18
:102CD00066460A9034E713F0030835D0012101FA63
:102CE0000BF14FEA6109013809900AE040FA0BF054
:102CF000FEF7EEFEA8F101085FEA084107F8010BB4
:102D000022D04EB116F9010B149988404844BAF10B
:102D1000000F06D1EAE700BF00264846BAF1000FCF
:102D2000E4D00A9C099AB446611ED64612F9016F96
:102D300011F9015FBAF1010A15FB0600F6D1F2465E
:102D4000744466460A94D1E70BB000F000B830BC7A
:102D5000BDE8C08F2DE9F04F8AB0002B7AD04FF03C
:102D60000008002706E000BF009F01370FFA87F830
:102D700098456FDA00971A9F002FF5D0002700269C
:102D8000019606E0019F1A9E013701973FB2B742B4
:102D9000EADA199E002EF5D0189E169D7E43751B0B
:102DA000149E0FFA85FB2E440996199E02957743CF
:102DB000002400250397CDF810B011E06FF08009D2
:102DC000039F059E069D37440135199E2CB207FBD3
:102DD0000387B4421C9EDDF810B006F80790D1DAE4
:102DE000099FCDE905455F45E8DD179F159E6743BF
:102DF000BE1B139F34B2079606EB070A029E6FF0C4
:102E00008009089407E000BF0136099F0FFA86FB8E
:102E1000089C5F45D4DDA245F6DDDDF81CC00BFB48
:102E200001F705E00CF1010C0FFA8CF4A245EBDD83
:102E30008C42B8BF9345F5DA4CEA060E0FFA8EF5D0
:102E4000002DEFD4E51905FB03854557A945B8BF0B
:102E5000A946E7E70AB000F000B830BCBDE8C08F73
:102E6000002908BF70470022B0F90030B3F1FF3FDE
:102E7000D8BF0280013900F10200F5D1704700008F
:102E8000002908BF7047002290F90030B3F1FF3FDE
:102E9000D8BF0270013900F10100F5D17047000080
:102EA00040F20044C4F60004FDF734FB3020FEF786
:102EB000DFFCFEF763FBFEF78DFB20468021FDF76C
:102EC00007FB4FF47A70FDF71DFA20468021FDF7CD
:102ED000FFFA4FF47A70FDF715FA44A047A100F00D
:102EE000F9FF48A001F05AF940F22800C2F20000B0
:102EF000006840F20C07D0F8248040F2680A40F2E3
:102F000020060025C2F20007C2F2000A0FF20819DB
:102F10000FF2281BC2F2000608E000BF20464FF463
:102F20008041FDF7D5FA01353C2D1DD020464FF4E8
:102F30008041FDF7CDFA387848B9DAF800104846F4
:102F400000F0C8FFDAF800002946FEF7D7F9387814
:102F50000028E3D0584601F021F92846FEF74EF943
:102F6000306801303060D9E740F22800C2F200003A
:102F700000686421456A40F22400C2F20000006843
:102F8000484348F68901C8F6880151FB0000411109
:102F900001EBD0714BF21C20C0F6010000F09AFF4B
:102FA00031684BF23820C0F6010000F093FFA5EB2A
:102FB000080128A000F08EFF4FF47A70FDF7A2F907
:102FC00020468021FDF784FA4FF47A70FDF79AF9D4
:102FD00020468021FDF77CFAFEF702F84FF480408E
:102FE0000221FDF745FBFDF7EDFFF5E72044617495
:102FF00061736574733A2025730A0A006461746111
:10300000736574003D3D3D20496E66657272696E60
:1030100067203D3D3D0A00000A5B256474685D2021
:10302000534D414C4C206D6F64656C206973206971
:103030006E66657272696E673A0A000042494720FF
:103040006D6F64656C20697320696E666572726964
:103050006E673A000A20457865637574696F6E2063
:1030600054696D65203D2025646D730A00000000E1
:10307000B0B5016A04460868C068457CC86000F0C5
:10308000B1FE02460020294600F0CCF9D4E908211F
:10309000C860D16800F07AFE606950B1616A007A58
:1030A000C96889680968FEF757FD616AC968896857
:1030B0000860206A94F84220C068012A40680188AC
:1030C0000DD1E28E636A1144DB68013991FBF2F2A3
:1030D00059680A804388228F1344013B0EE0228EF8
:1030E000636A891AE28EDB68114491FBF2F2596837
:1030F0000A804388658E228F5B1B134493FBF2F298
:103100004A80828800208A80B0BD00002DE9F04FFF
:103110008BB0416ACD68697C012904D14FF0010868
:103120004FF0010E04E06968B1F80280B1F800E0E8
:10313000016A2D68C968468ED1E900C3078EC48F25
:10314000B0F83C90B0F838A0B0F836B000205988FC
:103150001A889B88CDE9080502A880E8100E604611
:10316000CDE90067CDF81880CDF81CE0FFF7F2FD3F
:1031700000200BB000F000B830BCBDE8C08F0000EC
:1031800010B58AB00446007B94F90830012813D1A9
:1031900008A801211A46FFF729FA94F90A2006A87F
:1031A000012100F0EDFD94F804C00898BDF824104A
:1031B000069ABDF81C3014E094F9092004A81946B9
:1031C000FFF714FA94F90A1094F90B2002A800F002
:1031D000D7FD94F804C00498BDF81410029ABDF805
:1031E0000C30CDF800C0FEF727FA002818BF846124
:1031F0000AB010BD00F118010020082251F80C3F60
:10320000013A1844FAD17047024608464A617047AD
:10321000B0B551B1054600680C46FFF7D1F838B19A
:10322000216A406A0160086003E0F92040B2B0BD45
:103230002C60002040B2B0BDB0B582B00446012081
:1032400001904FF0FF002CB30D4619B3256062606A
:103250001AB92846FFF7B4F8606004F1200201AB08
:1032600028462946FEF7E2FC2046FFF7C3FF00F0A0
:1032700011F970B101462046FEF7BEFC204600F071
:10328000B9FD204600F066FD204600F08FF80020D2
:1032900000E0F92040B202B0B0BD0000002808BF35
:1032A0007047B0B50446006830B100BF0568FFF74D
:1032B000A3F9002D2846F9D1206A00F00BFF94F8FD
:1032C000850018B1204600F005FF03E02046882164
:1032D000FCF7B7FF40F6F050C2F200000021016099
:1032E000BDE8B0407047000070B5044600284FF0BC
:1032F00000000FD00D46002908BF70BD686AFEF7B8
:1033000053FC216A06460846FEF760FC696A306095
:103310000160204670BD000080B513460A460221B8
:1033200000F002F880BD000082B0B0B582B0069215
:10333000079378B10D46044606A8012901900ADBDF
:103340000198011D019101682046FFF7CDFF013D65
:10335000F6D100E00024204602B0BDE8B04002B043
:103360007047000080B5002100F002F880BD000029
:1033700070B5A8B10668044696B10D463046FFF711
:103380005DF958B9E2691AB120463146904728B92B
:10339000AE4208D03668002EF0D1002040B270BD99
:1033A000FF2040B270BD002040B270BD0368002114
:1033B000002200BF43B1D3F828C01B6811EB0C01F9
:1033C00042F10002002BF5D1C0F8801070470000D8
:1033D00010B520B188210446FCF733FF06E08820B1
:1033E00000F058F80446012084F8850043F21120CB
:1033F000C0F6000043F2E92143F2193243F22933C7
:1034000043F2092C04F1080EC0F60001C0F60002D8
:10341000C0F60003C0F6000C8EE80F002046C4F88A
:1034200018C010BD70B504460D4618B1012C18D156
:10343000960000E004261420042100F015F800EBAB
:10344000450000EB460000F025F850B1690000F19E
:10345000140211448B19C0E90121C360457404743E
:1034600070BD002070BD0000B0FBF1F202FB110244
:10347000891A002A18BF084470470000002804BFBA
:103480000020704701460020496801300029FBD127
:1034900070470000B0B50421FFF7E6FF044600F0D6
:1034A00041FE054650B140F6F050C2F200000168FE
:1034B0002144016028462146FCF7C3FE2846B0BDE2
:1034C000F0B581B040F29310FEF7AAFB40F6F45439
:1034D000C2F200042046FFF77BFF4BF23C00C0F62F
:1034E0000100FEF7DBFF05464AF60C60E668C0F611
:1034F0000100FEF7B7FD2946B047A7690646FEF76B
:1035000033FB3146B84706464BF27410E768C0F605
:103510000100FFF735FE3146B84706464AF60C3043
:10352000E768C0F60100FEF79DFD3146B847A76980
:103530000646FEF719FB3146B84706464BF27400C3
:10354000E768C0F60100FFF71BFE3146B8470646A4
:103550004AF65C40E768C0F60100FEF783FD31469D
:10356000B847A7690646FEF7FFFA3146B847064650
:103570004BF2E400E768C0F60100FFF701FE3146B8
:10358000B84706464AF69450E768C0F60100FEF7D1
:1035900069FD3146B847A7690646FEF7E5FA3146A8
:1035A000B84706464BF25410E768C0F60100FFF733
:1035B000E7FD3146B84706464AF6C450E768C0F60C
:1035C0000100FEF74FFD3146B847A7690646FEF7F2
:1035D000CBFA3146B84706464BF26410E768C0F6AE
:1035E0000100FFF7CDFD3146B84706464BF22000FB
:1035F000E768C0F60100FEF71FFF3146B8470646F0
:103600004AF65C70E768C0F60100FEF793FE3146AB
:10361000B84706464BF2E410E768C0F6010000F038
:103620003DFB3146B847024620462946FFF704FED7
:1036300001B0F0BDF0B581B040F29310FEF7F0FAA2
:1036400040F67C64C2F200042046FFF7C1FE4BF254
:103650004400C0F60100FEF721FF05464AF634603B
:10366000E668C0F60100FEF7FDFC2946B047A769F1
:103670000646FEF779FA3146B84706464BF2841003
:10368000E768C0F60100FFF77BFD3146B847064604
:103690004AF63430E768C0F60100FEF7E3FC314635
:1036A000B847A7690646FEF75FFA3146B8470646AF
:1036B0004BF28400E768C0F60100FFF761FD314678
:1036C000B84706464AF68440E768C0F60100FEF7B0
:1036D000C9FC3146B847A7690646FEF745FA3146A8
:1036E000B84706464BF2F400E768C0F60100FFF762
:1036F00047FD3146B84706464BF22400E768C0F65E
:103700000100FEF799FE3146B84706464AF6747046
:10371000E768C0F60100FEF70DFE3146B8470646E1
:103720004BF2EC10E768C0F6010000F0B7FA314642
:10373000B847024620462946FFF77EFD01B0F0BD9E
:10374000F0B581B040F29310FEF76AFA40F60474C7
:10375000C2F200042046FFF73BFE4BF24C00C0F6DD
:103760000100FEF79BFE05464AF65C60E668C0F67F
:103770000100FEF777FC2946B047A7690646FEF729
:10378000F3F93146B84706464BF29410E768C0F6A5
:103790000100FFF7F5FC3146B84706464AF65C30B3
:1037A000E768C0F60100FEF75DFC3146B847A7693F
:1037B0000646FEF7D9F93146B84706464BF2940063
:1037C000E768C0F60100FFF7DBFC3146B847064664
:1037D0004AF6AC40E768C0F60100FEF743FC31460C
:1037E000B847A7690646FEF7BFF93146B84706460F
:1037F0004BF20410E768C0F60100FFF7C1FC314648
:10380000B84706464BF22800E768C0F60100FEF70D
:1038100013FE3146B84706464AF68C70E768C0F694
:103820000100FEF787FD3146B84706464BF2F4101B
:10383000E768C0F6010000F031FA3146B8470246A9
:1038400020462946FFF7F8FC01B0F0BDF0B581B085
:1038500040F29310FEF7E4F940F68C74C2F20004D3
:103860002046FFF7B5FD4BF25400C0F60100FEF70D
:1038700015FE05464AF68460E668C0F60100FEF7CC
:10388000F1FB2946B047A7690646FEF76DF93146B8
:10389000B84706464BF2A410E768C0F60100FFF7F0
:1038A0006FFC3146B84706464AF68430E768C0F6F2
:1038B0000100FEF7D7FB3146B847A7690646FEF779
:1038C00053F93146B84706464BF2A400E768C0F604
:1038D0000100FFF755FC3146B84706464AF6D4408A
:1038E000E768C0F60100FEF7BDFB3146B847A7699F
:1038F0000646FEF739F93146B84706464BF2141032
:10390000E768C0F60100FFF73BFC3146B8470646C2
:103910004BF22C00E768C0F60100FEF78DFD314642
:10392000B84706464AF6A470E768C0F60100FEF7FD
:1039300001FD3146B84706464BF2FC10E768C0F679
:10394000010000F0ABF93146B8470246204629464F
:10395000FFF772FC01B0F0BDF0B581B040F29310FA
:10396000FEF75EF941F21404C2F200042046FFF7AC
:103970002FFD4BF25C00C0F60100FEF78FFD0546FF
:103980004AF6AC60E668C0F60100FEF76BFB29461C
:10399000B047A7690646FEF7E7F83146B84706463E
:1039A0004BF2B410E768C0F60100FFF7E9FB3146BF
:1039B000B84706464AF6AC30E768C0F60100FEF7A5
:1039C00051FB3146B847A7690646FEF7CDF83146A8
:1039D000B84706464BF2B400E768C0F60100FFF7AF
:1039E000CFFB3146B84706464AF6FC40E768C0F6CA
:1039F0000100FEF737FB3146B847A7690646FEF7D8
:103A0000B3F83146B84706464BF22410E768C0F6D3
:103A10000100FFF7B5FB3146B84706464BF23000D0
:103A2000E768C0F60100FEF707FD3146B8470646D5
:103A30004AF6BC70E768C0F60100FEF77BFC314631
:103A4000B84706464BF20420E768C0F6010000F0D4
:103A500025F93146B847024620462946FFF7ECFBD8
:103A600001B0F0BDF0B581B040F29310FEF7D8F888
:103A700041F29C04C2F200042046FFF7A9FC4BF27D
:103A80006400C0F60100FEF709FD05464AF6D46061
:103A9000E668C0F60100FEF7E5FA2946B047A769D7
:103AA0000646FEF761F83146B84706464BF2C410A9
:103AB000E768C0F60100FFF763FB3146B8470646EA
:103AC0004AF6D430E768C0F60100FEF7CBFA31467B
:103AD000B847A7690646FEF747F83146B847064695
:103AE0004BF2C400E768C0F60100FFF749FB31461E
:103AF000B84706464AF62450E768C0F60100FEF7CC
:103B0000B1FA3146B847A7690646FEF72DF83146A7
:103B1000B84706464BF23410E768C0F60100FFF7DD
:103B20002FFB3146B84706464BF23400E768C0F633
:103B30000100FEF781FC3146B84706464AF6D470CC
:103B4000E768C0F60100FEF7F5FB3146B8470646C8
:103B50004BF20C20E768C0F6010000F09FF83146F8
:103B6000B847024620462946FFF766FB01B0F0BD84
:103B7000F0B581B040F29310FEF752F841F22414F0
:103B8000C2F200042046FFF723FC4BF26C00C0F6A3
:103B90000100FEF783FC05464AF6FC60E668C0F6C5
:103BA0000100FEF75FFA2946B047A7690646FDF710
:103BB000DBFF3146B84706464BF2D410E768C0F643
:103BC0000100FFF7DDFA3146B84706464AF6FC30F9
:103BD000E768C0F60100FEF745FA3146B847A76925
:103BE0000646FDF7C1FF3146B84706464BF2D40002
:103BF000E768C0F60100FFF7C3FA3146B84706464A
:103C00004AF64C50E768C0F60100FEF72BFA314641
:103C1000B847A7690646FDF7A7FF3146B8470646ED
:103C20004BF24410E768C0F60100FFF7A9FA3146ED
:103C3000B84706464BF23800E768C0F60100FEF7C9
:103C4000FBFB3146B84706464AF6EC70E768C0F61B
:103C50000100FEF76FFB3146B84706464BF21420D1
:103C6000E768C0F6010000F019F83146B84702468F
:103C700020462946FFF7E0FA01B0F0BDB0B5D0E923
:103C80000812C46BC968D0680D6800F009F90246D3
:103C900020462946FCF7AEFA0020B0BD10B5044618
:103CA000FEF7FCFB002808BF10BD0321017743F697
:103CB0007D4142F2CD12C0F60001C0F600028461DF
:103CC000C0E9011210BD000010B50446006AFEF7FD
:103CD00071FC606AFEF76EFC10BD0000017A0029DD
:103CE0001CBF01390172017A002904BF0021417211
:103CF0007047000080B50069002808BF80BD0068DB
:103D0000FFF7ECFF80BD000010B5046A002C08BF6F
:103D100010BD00BF2069FFF7E1FFA468002CF9D1B6
:103D200010BD000010B54068817C102908D10468DE
:103D300000F0B6F801462046FFF792F8002010BDCB
:103D4000046800F0ADF801462046FFF799F800201E
:103D500010BD000008B1006820B9FF2040B27047D4
:103D6000006830B141690029FAD0426AD2684A60DD
:103D7000F6E7002040B270470180428083807047A0
:103D800080B50123FFF7F8FF80BD000070B5044641
:103D90000D46087C217C88420AD1697C627C914274
:103DA00006D1012806D1284600F01CF8860002E062
:103DB000002070BD0426AA7CA068A968A2743246BF
:103DC000FCF718FAE068E9683246FCF713FA687CF9
:103DD000696860746A7C60685200FCF70BFA2046E0
:103DE00070BD00004168407C01EB400030F8020CDF
:103DF000704700000068002804BF00207047016A77
:103E000039B100BFD1E9033212681A60896800290C
:103E1000F8D1416A0029EDD0D1E9033212681A6065
:103E200089680029F8D1E5E72DE9F0410E46DDE982
:103E3000061804464174406815464A001946FCF7C6
:103E4000D9F9207C012804D12046FFF7CBFF870059
:103E500000E00427A06831463A4684F81280FCF757
:103E6000C9F9E06829463A46FCF7C4F92046BDE89E
:103E7000F0810000F0B581B00D46DDE90617064679
:103E80004174406814464A001946FCF7B3F9D6E974
:103E90000201B774056030460C6001B0F0BD00004F
:103EA000002804BF002070474268437C0146108808
:103EB000022B38BF7047497C023A022998BF022181
:103EC000494200BF9388013158434B1C02F1020262
:103ED000F8D170470FB4054B10B503A9044A0298F6
:103EE00000F018F810BC5DF814FB0000492400082D
:103EF0000000002002E008C8121F08C1002AFAD101
:103F000070477047002001E001C1121F002AFBD159
:103F1000704700002DE9FF4F8BB09A460F460546CB
:103F2000002606E025280BD052460D9990476D1CBF
:103F3000761C28780028F5D10FB0304600F0C6B8BE
:103F40000024A0460122604900E0044315F8013F27
:103F5000203B02FA03F00842F7D128782E2817D127
:103F600015F8010F44F004042A280ED06FF02F0238
:103F70002878A0F1300109290AD808EB880102EB62
:103F8000410100EB01086D1CF2E757F8048B6D1C32
:103F9000287869283ED006DC0028CDD063280BD0D5
:103FA000642804D136E0732810D075284BD05246CF
:103FB0000D999047761C85E017F8040B8DF80000EA
:103FC00000208DF80100E946012003E057F8049B2A
:103FD0004FF0FF3061074FF0000401D40AE0641C89
:103FE00044450DDA8442FADB19F804100029F6D1B1
:103FF00006E0641C8442FCDB19F804100029F8D1A7
:10400000264404E019F8010B52460D999047641EAE
:10401000F8D257E001CF4FF00A0B002802DA4042F5
:104020002D2102E0210504D52B218DF8241001213A
:1040300003E0E10705D02021F7E70DF12009089101
:104040000CE00021F9E701CF4FF00A0BF9E75946E0
:10405000FCF702F901F1300209F8012D0028F6D130
:10406000ADEB090000F1200B600701D44FF001080F
:10407000D84502DDA8EB0B0000E0002080460024BC
:1040800006E009A85246005D0D999047641C761C15
:1040900008988442F5DB04E0302052460D999047A1
:1040A000761CB8F10001A8F10108F5DC05E019F86B
:1040B000010B52460D999047761CBBF10001ABF104
:1040C000010BF4DC6D1C34E70928010030BCBDE8AD
:1040D000C08F000010B5002821D0114B0022001F16
:1040E000196803E0814203D80A4649680029F9D1DA
:1040F00052B11368841A9C4204D1006818441060BD
:10410000104602E0506000E0186039B102680B1AF6
:10411000934203D10B681A4402604968416010BDA4
:1041200004000020F0B50B30154D20F007010024ED
:10413000144A0FE003688B420BD38B4205D95E1AF9
:1041400043184768C3E9006700E04368136002C092
:1041500004E0021D10680028ECD12046002802D19E
:10416000286808B10020F0BD064A07481060074AD9
:10417000121A22F00702C0E9002401202860D7E7C4
:104180000800002004000020CC110020C8510020AD
:104190000149FEF759B900000000002010B504469F
:1041A00001E0FEF751F914F8010B04490028F8D199
:1041B000BDE810400A20FEF747B9000000000020CB
:1041C00000000000000000000102030406070809C7
:1041D000F31F2718001F0C0E2BF91F2F16001D10A0
:1041E0000E30011E3619FE1D180E360C193521FC35
:1041F0001D210A3512123129FC192705320F0E2D07
:104200002EFA1624022F060C232DF7111C0127FB72
:104210000B1A25F708120021F00E131CF8040902EE
:104220001CEC0F0214F60705030FF108F50DFD084D
:1042300009FF04F603FC0706000EFB09F107080658
:1042400005FC0AFE14E80D110AFEFF02021ADF1235
:10425000180AF300FB051FD713120AEA01F5061B23
:10426000D810090CE805F50414D80C040CE90BF57A
:104270000110D708FE10EB0EF4FF0BDB060316EE61
:104280000FF8FE10DC0C0A1DEF12F90115E11706FC
:1042900021ED14FD0912E81D0921ED15030D14EBA4
:1042A0001F0922F013050F14EF1F0B23F312080F41
:1042B00016F4201128F4150D101BF7220E31F318F7
:1042C000101118FC240E34F71914131802300F2E95
:1042D000FF121A1B190644111E070A1D2A1A074C41
:1042E000190D0D0D1E30200A3C1E0C0C112124242A
:1042F0000E1A1916070F240A200FFD0E17000725A6
:10430000F51700EC0411FAFA17E910E1EE000BFCC6
:10431000EFFDEA0DD4FE0909F9F2F3F614E81112E3
:1043200016EEFF02031A081B0C24EA141F0B1621B9
:104330001B091FF421350B13181E101300192D0D26
:10434000180222110904151A1019F124120000197B
:104350000A121ACF2B14FF0018EE171BC92A13FCE0
:104360000220E9161BE02414F50425FD121BD324BA
:1043700015EF071FF2111CD22217EC081EF1101DB9
:10438000DF211CEF071FFC0F20D61A26F5061EF4AE
:104390000928DE112CFD021CFB032DDE162508FE6C
:1043A0001BFC0627DB1C2010001EF90B23EC21242C
:1043B000110021060F26EE252B11FE1F09122CF7E6
:1043C000233312FB1B101032FE223615F717160F7F
:1043D00033FD293018F71315152F0F2C2D18F8124F
:1043E00025172C13242718F41229102804131A1542
:1043F000EF111C041EF3051010EE0F0DFB16E60660
:104400000A0BF41001FB11EE0A0B09FF1608FE124D
:10441000F20A100A011A0BFE16F20B150AFC130B16
:10442000FF19F20C1D0CF7090C0020EC0C1F13F106
:1044300008070021E60E1A18F00B01001DDC121807
:104440001BF20AFA021BD618151DEE0CF40719D739
:104450001E1321E911F60C17DD231122E717FA10BC
:1044600016E0270E20E91BFD1314DE291220EB1C99
:10447000FB1316DC2B161FEC1DFA151AE02C181D69
:10448000ED21FD161BE92A1D1EEE2304141FF42B3B
:10449000201FF1230E1521FB2F1E1FF62113181FBD
:1044A000FE371D1AF920161E1F0547230EFD1D1D80
:1044B00029230D4E2B020218232F2A0C4930000607
:1044C00018232B2D143A3104081929202E1C242ED0
:1044D000080414300F2B0E0F1E08FE0A240020F3D0
:1044E000FB0507FC000CF20CDBF90306FB04F8F0FB
:1044F0000BD10E140BF410F00018DD181713EA1A84
:10450000FA061AFB1C1515E924130A181A24150DAE
:10451000F3272E101821211307FF25350D17042628
:10452000170504241C111AE2271AFF051CFE121C91
:10453000D0241EF60217EF101FCD2D21F8001FEC1E
:104540001621D7291FFA0229F41420DB2621F504AD
:104550002DF81121D82521F50129F61122DC1B2582
:10456000F60023F90924DF192CF90120FC082AE2BE
:10457000193000021DFE082DE51F3006011E000C3B
:104580002DEC2B2F07012006162CFC2C30020120CD
:1045900014162D00253100001D18112DFC1C3105AD
:1045A000FD16140A2D021B320EF9141A0A2E1120C0
:1045B0002F16F516270D2C1A1A2619F1162E092674
:1045C00009091314F21420FD17EEF4040CF70E0879
:1045D000ED0BECF80A05FB0906F010F409130600D0
:1045E000140DFE17F40B170902200DFF1AF60C200C
:1045F00006FC120F0021F10D2205F3020A0023E44C
:104600000A1F08ED0600FF21E20C1F0CED0AFE0058
:1046100020DD081B15EE0CFAFD1ED60A171AEC1148
:10462000F4FF1BD510111AEA12F30216D6120D1E52
:10463000EC14F40413DB1C0F1DED15F80B14E1242E
:10464000101BF015FE1115E32C111CF117FF1717A5
:10465000F20A100A011A0BFE16F20B150AFC130BD4
:10466000FF19F20C1D0CF7090C0020EC0C1F13F1C4
:1046700008070021E60E1A18F00B01001DDC1218C5
:104680001BF20AFA021BD618151DEE0CF40719D7F7
:104690001E1321E911F60C17DD231122E717FA107A
:1046A00016E0270E20E91BFD1314DE291220EB1C57
:1046B000FB1316DC2B161FEC1DFA151AE02C181D27
:1046C000ED21FD161BE92A1D1EEE2304141FF42BF9
:1046D000201FF1230E1521FB2F1E1FF62113181F7B
:1046E000FE371D1AF920161E1F0547230EFD1D1D3E
:1046F00029230D4E2B020218232F2A0C49300006C5
:1047000018232B2D143A3104081929202E1C242E8D
:10471000080414300F2B0E0F1E08FE0A240020F38D
:10472000FB0507FC000CF20CDBF90306FB04F8F0B8
:104730000BD10E140BF410F00018DD181713EA1A41
:10474000FA061AFB1C1515E924130A181A24150D6C
:10475000F3272E101821211307FF25350D170426E6
:10476000170504241C111AE2271AFF051CFE121C4F
:10477000D0241EF60217EF101FCD2D21F8001FECDC
:104780001621D7291FFA0229F41420DB2621F5046B
:104790002DF81121D82521F50129F61122DC1B2540
:1047A000F60023F90924DF192CF90120FC082AE27C
:1047B000193000021DFE082DE51F3006011E000CF9
:1047C0002DEC2B2F07012006162CFC2C300201208B
:1047D00014162D00253100001D18112DFC1C31056B
:1047E000FD16140A2D021B320EF9141A0A2E11207E
:1047F0002F16F516270D2C1A1A2619F1162E092632
:1048000009091314F21420FD17EEF4040CF70E0836
:10481000ED0BECF80A05FB0906F010F4091306008D
:10482000140DFE17F40B170902200DFF1AF60C20C9
:1048300006FC120F0021F10D2205F3020A0023E409
:104840000A1F08ED0600FF21E20C1F0CED0AFE0016
:1048500020DD081B15EE0CFAFD1ED60A171AEC1106
:10486000F4FF1BD510111AEA12F30216D6120D1E10
:10487000EC14F40413DB1C0F1DED15F80B14E124EC
:10488000101BF015FE1115E32C111CF117FF171763
:10489000E8341819F217021D1CEE331D16F2170822
:1048A0001C20F2342016F21D0B1D22F5342219F3C0
:1048B0001F0D1D23FB34221AF61A131D24033A225E
:1048C00011FE0F1B21230A452301040D2129240E6B
:1048D0004C23F90915242E25123921F7091728210F
:1048E0002316141BF201092B051F08F611E9F7F333
:1048F0001FEF17EBEC0AEBF9EC05E712D7FC12F906
:10490000F7FAF5F318DA111D0CE90EF70321F71D7C
:104910001B18E5210F0B1F161F1109F1222B0D1774
:10492000161C0CFAFD1A2B0B13FA1E10FB001C129E
:104930000C16DE1E19F7FF1AFB0C1DD11B1BF50010
:1049400016EF0A1FD4221AF9001FF20F1EDC281BD3
:10495000F70024F9131FDD2A18F10224FA151CDAD6
:104960002D1AE90023F7171ED5291DE50021F3159F
:1049700021D52520EA0022F31222DD1E25EDFF209D
:10498000FA0D27E41A28EF001D000A29F0222DF560
:10499000011B0A102D002733F803181713320522C4
:1049A00034FB02181C0F32001B3403FF14170A32A9
:1049B000FB1D300DFE0F130C2F0A1D2713FA1921B2
:1049C0000B2816121714F51F2B041C0902080DF5ED
:1049D000131FF911F1F90902F5080AF111DD0707B2
:1049E00001FA12FAFC10E6190601001E01090FF681
:1049F000160EFFFF1F0F0715F00F1300F9190A021B
:104A000019EC0A1301F40D06FF19E8061303F20965
:104A100003FB19DD0B120CF10FFA0018DC11121157
:104A2000F10FF90318DC151113F010F90618DA1B51
:104A30001214EF12F80A18DE231210ED12FB1018F0
:104A4000DE2A110FEC17FA1518E02D120EEE1AFCE3
:104A50001819E12D120EEE1DFD1718E02A120FEFA6
:104A600021FC1519E828130EF11F021419EF29145F
:104A700011F31F08141AF6291814F81E0F141DFF3D
:104A80002A1C13FC1716152003361E0BFF0F1A1EC7
:104A900021094B1DFF000E202D210F541BF8051579
:104AA00025341F1A401BF708172E251F1F1C18F34B
:104AB000020A320B1D0B0013EFFDF721F619EBF480
:104AC0000CF1FDF204ED14D1FF0DF7FAFEF0F51430
:104AD000E8341819F217021D1CEE331D16F21708E0
:104AE0001C20F2342016F21D0B1D22F5342219F37E
:104AF0001F0D1D23FB34221AF61A131D24033A221C
:104B000011FE0F1B21230A452301040D2129240E28
:104B10004C23F90915242E25123921F709172821CC
:104B20002316141BF201092B051F08F611E9F7F3F0
:104B30001FEF17EBEC0AEBF9EC05E712D7FC12F9C3
:104B4000F7FAF5F318DA111D0CE90EF70321F71D3A
:104B50001B18E5210F0B1F161F1109F1222B0D1732
:104B6000161C0CFAFD1A2B0B13FA1E10FB001C125C
:104B70000C16DE1E19F7FF1AFB0C1DD11B1BF500CE
:104B800016EF0A1FD4221AF9001FF20F1EDC281B91
:104B9000F70024F9131FDD2A18F10224FA151CDA94
:104BA0002D1AE90023F7171ED5291DE50021F3155D
:104BB00021D52520EA0022F31222DD1E25EDFF205B
:104BC000FA0D27E41A28EF001D000A29F0222DF51E
:104BD000011B0A102D002733F80318171332052282
:104BE00034FB02181C0F32001B3403FF14170A3267
:104BF000FB1D300DFE0F130C2F0A1D2713FA192170
:104C00000B2816121714F51F2B041C0902080DF5AA
:104C1000131FF911F1F90902F5080AF111DD07076F
:104C200001FA12FAFC10E6190601001E01090FF63E
:104C3000160EFFFF1F0F0715F00F1300F9190A02D8
:104C400019EC0A1301F40D06FF19E8061303F20923
:104C500003FB19DD0B120CF10FFA0018DC11121115
:104C6000F10FF90318DC151113F010F90618DA1B0F
:104C70001214EF12F80A18DE231210ED12FB1018AE
:104C8000DE2A110FEC17FA1518E02D120EEE1AFCA1
:104C90001819E12D120EEE1DFD1718E02A120FEF64
:104CA00021FC1519E828130EF11F021419EF29141D
:104CB00011F31F08141AF6291814F81E0F141DFFFB
:104CC0002A1C13FC1716152003361E0BFF0F1A1E85
:104CD00021094B1DFF000E202D210F541BF8051537
:104CE00025341F1A401BF708172E251F1F1C18F309
:104CF000020A320B1D0B0013EFFDF721F619EBF43E
:104D00000CF1FDF204ED14D1FF0DF7FAFEF0F514ED
:104D1000D00E1703F10FEE011CED1C1B0DEC20064D
:104D20000B1F13231502F42528101A1D1A0FF5FE68
:104D30001D300916021B13F6001A190A19E6221A69
:104D4000F5FF1B010F1ED82317F20018F5101CD514
:104D50002B16F3FE1BF3161BDC2B15EE0021F816A9
:104D60001ADC2513E40622F91219D6251CDF0823C4
:104D7000F3121FD31F25E50623F00D26D71C2AEFBB
:104D80000323F40B2AE21B29F5051EFE0A29E81B62
:104D900028F70816020A28EC242EF6071505112C10
:104DA000F32933F705180B1430FA2338FB001611DA
:104DB0001034FA1A3702FC11110A33F919310CFFB9
:104DC0000C10092F05252A0F000E1C122A172C1D66
:104DD0000BFB162B171F1B1D1906F8192E0C1C0B8D
:104DE0000115FCF90C21F81AF1F507F3FE0009EFA3
:104DF0000EE3040BF5010BFEFB11ED1316F6001983
:104E000006041AF71117F8FA130F031BF1071CFC1D
:104E1000F20E09FD1FEA001C01EE0E03F81EE4016C
:104E2000190DEE0BFFF81CDA061613EE0FF7FC1A3D
:104E3000D70F0E12EC10F40214D51B1212E912F265
:104E40000B17D5261612E819F2131ADF27140FE9EB
:104E500019FB1418E3261612EB19FE131AE527178F
:104E600016EE1700141BE9271B18F21202131EEA94
:104E70002A231BF415031624EF2C241DF3190817FD
:104E800025F52C211EF41B0D172202351E1BF813CD
:104E9000191E201049200EFF09252D220E5F24FE29
:104EA0000511233D240E6023F70A18233E241346E0
:104EB00021F90B11272A22141F1BF20006290E1EAE
:104EC0000AFE13E8F6F81FF517F0F60BEAF5EF08FF
:104ED000EF12D9FF0EF1F3FDF5F614D7081BFFE929
:104EE0000FF4FE1EF5121E0BE91B0D04201A1A16F4
:104EF00001F31F2E091A1E2011F6FA1A310E17039C
:104F00002A11F2FB1C191616E62B13E8FD1F0016DA
:104F100018D52310E5FF1CF31115D42310EB002244
:104F2000F11116DC2316ED0029F8111ADF1F18EB1A
:104F3000042AFB0E1BDB1F1BEB0329F70E1ED61DDD
:104F40001BEDFF25F30C1ED61C1EF0FF26F30B20D5
:104F5000D00E1703F10FEE011CED1C1B0DEC20060B
:104F60000B1F13231502F42528101A1D1A0FF5FE26
:104F70001D300916021B13F6001A190A19E6221A27
:104F8000F5FF1B010F1ED82317F20018F5101CD5D2
:104F90002B16F3FE1BF3161BDC2B15EE0021F81667
:104FA0001ADC2513E40622F91219D6251CDF082382
:104FB000F3121FD31F25E50623F00D26D71C2AEF79
:104FC0000323F40B2AE21B29F5051EFE0A29E81B20
:104FD00028F70816020A28EC242EF6071505112CCE
:104FE000F32933F705180B1430FA2338FB00161198
:104FF0001034FA1A3702FC11110A33F919310CFF77
:105000000C10092F05252A0F000E1C122A172C1D23
:105010000BFB162B171F1B1D1906F8192E0C1C0B4A
:105020000115FCF90C21F81AF1F507F3FE0009EF60
:105030000EE3040BF5010BFEFB11ED1316F6001940
:1050400006041AF71117F8FA130F031BF1071CFCDB
:10505000F20E09FD1FEA001C01EE0E03F81EE4012A
:10506000190DEE0BFFF81CDA061613EE0FF7FC1AFB
:10507000D70F0E12EC10F40214D51B1212E912F223
:105080000B17D5261612E819F2131ADF27140FE9A9
:1050900019FB1418E3261612EB19FE131AE527174D
:1050A00016EE1700141BE9271B18F21202131EEA52
:1050B0002A231BF415031624EF2C241DF3190817BB
:1050C00025F52C211EF41B0D172202351E1BF8138B
:1050D000191E201049200EFF09252D220E5F24FEE7
:1050E0000511233D240E6023F70A18233E2413469E
:1050F00021F90B11272A22141F1BF20006290E1E6C
:105100000AFE13E8F6F81FF517F0F60BEAF5EF08BC
:10511000EF12D9FF0EF1F3FDF5F614D7081BFFE9E6
:105120000FF4FE1EF5121E0BE91B0D04201A1A16B1
:1051300001F31F2E091A1E2011F6FA1A310E170359
:105140002A11F2FB1C191616E62B13E8FD1F001698
:1051500018D52310E5FF1CF31115D42310EB002202
:10516000F11116DC2316ED0029F8111ADF1F18EBD8
:10517000042AFB0E1BDB1F1BEB0329F70E1ED61D9B
:105180001BEDFF25F30C1ED61C1EF0FF26F30B2093
:10519000DD1A25F4FE24F90A25E51526FB001E007C
:1051A0000727E7192801021D010928EB202A02011F
:1051B0001C040F2AFA273001001E11142E02273575
:1051C00005FA1C191431001D300DFB18160D2E04A4
:1051D0001A2F12FE161B0A2D151A2815FB18290B5B
:1051E000281B141715FA1B2F061B07040B0EF813A8
:1051F0001EFB12EAF80A05FA0A03F111E6050D0092
:10520000021100FC13EE150B00041A070712EC1133
:105210000C00001D050413F10C1200F9150A00170B
:10522000EE0B1600F30B07001AE1071904F00EFD50
:10523000FE1CE009150BEF11FCFF19DC0D100EF040
:105240000CF90116D814100EF00FF50616DD20101B
:1052500011EF11F90F16DF251411EE14FB1319E1EC
:10526000261610EC1BFD131AE226150FEB1AFE137F
:105270001AE125140DED19FD1219EA26130FF01C81
:10528000041318F3281813F51E0C151CF72C1D1504
:10529000F7210F1820F9321B16F81D101C1E0039BB
:1052A0001912FB1618211D0A441908FF1620291D82
:1052B0000A4618FF0519202B1C103B19F80C1B255A
:1052C000231D192C1DF60D162D181F10191BF20584
:1052D0000826091EF8FF13EDFCFA10F618DFF10B93
:1052E000EDF8F2FCEC12DBFA0EF1F5FBF8F314E842
:1052F0000418FDF00C02FB1CF60D1C08ED140E0149
:105300001F0F171A05F31525081D1D1A13FCF91395
:10531000310A1803240DF2FD191A1213EA2B0EE9B3
:10532000031E041714D92010E6081BF60F15CE1D16
:1053300012E9051DEC0D17D91D18E60622F60C1B07
:10534000DD191AE60A22F9091DD81B1DE70A23F503
:105350000B1FDA1823E90722F70924D71729F205CA
:1053600022F40828DB1928F50321F80A27E51B2772
:10537000F3021D000B26EB242BF5001A051229F76A
:10538000262FF700190F132CFB1E33FD011B130DE5
:105390002FF51A3404FF1B0E0A30F31E310B0014D4
:1053A0000C0D2EFB29310EFF1013152D0B2B2A0E81
:1053B000F91922172916171D0FF3232B081E0AF9B6
:1053C000100AF41721F214F2EF0C01FA0B0BEB1296
:1053D000DD1A25F4FE24F90A25E51526FB001E003A
:1053E0000727E7192801021D010928EB202A0201DD
:1053F0001C040F2AFA273001001E11142E02273533
:1054000005FA1C191431001D300DFB18160D2E0461
:105410001A2F12FE161B0A2D151A2815FB18290B18
:10542000281B141715FA1B2F061B07040B0EF81365
:105430001EFB12EAF80A05FA0A03F111E6050D004F
:10544000021100FC13EE150B00041A070712EC11F1
:105450000C00001D050413F10C1200F9150A0017C9
:10546000EE0B1600F30B07001AE1071904F00EFD0E
:10547000FE1CE009150BEF11FCFF19DC0D100EF0FE
:105480000CF90116D814100EF00FF50616DD2010D9
:1054900011EF11F90F16DF251411EE14FB1319E1AA
:1054A000261610EC1BFD131AE226150FEB1AFE133D
:1054B0001AE125140DED19FD1219EA26130FF01C3F
:1054C000041318F3281813F51E0C151CF72C1D15C2
:1054D000F7210F1820F9321B16F81D101C1E003979
:1054E0001912FB1618211D0A441908FF1620291D40
:1054F0000A4618FF0519202B1C103B19F80C1B2518
:10550000231D192C1DF60D162D181F10191BF20541
:105510000826091EF8FF13EDFCFA10F618DFF10B50
:10552000EDF8F2FCEC12DBFA0EF1F5FBF8F314E8FF
:105530000418FDF00C02FB1CF60D1C08ED140E0106
:105540001F0F171A05F31525081D1D1A13FCF91353
:10555000310A1803240DF2FD191A1213EA2B0EE971
:10556000031E041714D92010E6081BF60F15CE1DD4
:1055700012E9051DEC0D17D91D18E60622F60C1BC5
:10558000DD191AE60A22F9091DD81B1DE70A23F5C1
:105590000B1FDA1823E90722F70924D71729F20588
:1055A00022F40828DB1928F50321F80A27E51B2730
:1055B000F3021D000B26EB242BF5001A051229F728
:1055C000262FF700190F132CFB1E33FD011B130DA3
:1055D0002FF51A3404FF1B0E0A30F31E310B001492
:1055E0000C0D2EFB29310EFF1013152D0B2B2A0E3F
:1055F000F91922172916171D0FF3232B081E0AF974
:10560000100AF41721F214F2EF0C01FA0B0BEB1253
:10561000E8051101001002FB16F112110001160A33
:105620000415F70C15FB00170F0018F0061EFDFA05
:105630001009FC1FE9042002F40203FA21E7052205
:1056400009EF0502FB22E10A1C0BEF0CFDFF1DD93F
:1056500010130AF00BF60217D816160DED0FF60709
:1056600019D81B180DED13F50B1AD91E170CEB15D5
:10567000F60C1ADD1F170FE818F90D1AE326160DA0
:10568000EB16FF1219E92E170DEB1804181AE83261
:10569000180CEB1B021B1BE9331A08EF1C031C1D23
:1056A000EE311E09F11D071B20F52E200BF31C0DFA
:1056B0001821FB2E2010F31C131821FF321E13F7A4
:1056C0001C161B1F063B1C0600161D211E0E482320
:1056D000F50511242B2314462CEA050F292A2A1933
:1056E0002C2BECFF0E2D172A19071BEDFB002DFCB0
:1056F0001D07E804E901EB1EE40CE7E6FFEE05E810
:1057000001E207D5FF0FFAFCFAF2F514E2161B09C5
:10571000EE11FE061DFD241110EF211410150D23AE
:105720000B01F91F230F11082011F400191E0D168B
:10573000F32412F2021E0B1016DF1E13F0011EFBE3
:105740000B17D41916F0001DF10819D21915F1FE26
:1057500020F00819DA181AF0001FF7071CD91F21CA
:10576000F20421F60C22D52421F40024F31022D6D1
:105770002521F3FE20F31121D62522F1FE21F3117C
:1057800023DF2324F1FC21FC0F24E92527F3FE1C51
:10579000031026F6282EF500160E132B012C37F6D3
:1057A0000011181632FD2A38F80015141533FA24A2
:1057B0003200FD1612102FFE232E09FA15150F2C9C
:1057C000071F2610F4191E0C2623131915EF1B357D
:1057D000031C2CFF1117F5183DF41505F40F0CFBF5
:1057E000061CED14DA0D0FFFFAF6F7FF14DE230E98
:1057F000FEFC09FB0F13F41A0EFFFF1F0C0913F335
:105800000F11FBFC130C0016EE0B16FCF80907FE3B
:1058100019E4071802F40DFFFB1BDC0A1508F10858
:10582000F8FE19DC0F120DF40AF90016D513120E4A
:10583000F20CF30317D41B1212ED0BF20916DA1F48
:105840001015EB16F70C15DE211015E719FB0E15D8
:10585000E8051101001002FB16F112110001160AF1
:105860000415F70C15FB00170F0018F0061EFDFAC3
:105870001009FC1FE9042002F40203FA21E70522C3
:1058800009EF0502FB22E10A1C0BEF0CFDFF1DD9FD
:1058900010130AF00BF60217D816160DED0FF607C7
:1058A00019D81B180DED13F50B1AD91E170CEB1593
:1058B000F60C1ADD1F170FE818F90D1AE326160D5E
:1058C000EB16FF1219E92E170DEB1804181AE8321F
:1058D000180CEB1B021B1BE9331A08EF1C031C1DE1
:1058E000EE311E09F11D071B20F52E200BF31C0DB8
:1058F0001821FB2E2010F31C131821FF321E13F762
:105900001C161B1F063B1C0600161D211E0E4823DD
:10591000F50511242B2314462CEA050F292A2A19F0
:105920002C2BECFF0E2D172A19071BEDFB002DFC6D
:105930001D07E804E901EB1EE40CE7E6FFEE05E8CD
:1059400001E207D5FF0FFAFCFAF2F514E2161B0983
:10595000EE11FE061DFD241110EF211410150D236C
:105960000B01F91F230F11082011F400191E0D1649
:10597000F32412F2021E0B1016DF1E13F0011EFBA1
:105980000B17D41916F0001DF10819D21915F1FEE4
:1059900020F00819DA181AF0001FF7071CD91F2188
:1059A000F20421F60C22D52421F40024F31022D68F
:1059B0002521F3FE20F31121D62522F1FE21F3113A
:1059C00023DF2324F1FC21FC0F24E92527F3FE1C0F
:1059D000031026F6282EF500160E132B012C37F691
:1059E0000011181632FD2A38F80015141533FA2460
:1059F0003200FD1612102FFE232E09FA15150F2C5A
:105A0000071F2610F4191E0C2623131915EF1B353A
:105A1000031C2CFF1117F5183DF41505F40F0CFBB2
:105A2000061CED14DA0D0FFFFAF6F7FF14DE230E55
:105A3000FEFC09FB0F13F41A0EFFFF1F0C0913F3F2
:105A40000F11FBFC130C0016EE0B16FCF80907FEF9
:105A500019E4071802F40DFFFB1BDC0A1508F10816
:105A6000F8FE19DC0F120DF40AF90016D513120E08
:105A7000F20CF30317D41B1212ED0BF20916DA1F06
:105A80001015EB16F70C15DE211015E719FB0E1596
:105A9000E3281118E818FF1216E42D1418EA1AFF6B
:105AA0001618E7351715EC14011C1AED351713F00D
:105AB00017061D1AF12F1912F31809181CF7311EB9
:105AC00017F4150F1A20FA2E201CF71511172100B4
:105AD000321E18FC0B181A200A421F0E020721263C
