:020000040800F2
:1000000070620020D1010008471100089D1000080F
:1000100045110008CD02000851150008000000003D
:10002000000000000000000000000000791300083C
:10003000CF02000800000000FD1200087B1300083A
:10004000EB010008EB010008EB010008EB010008E0
:10005000EB010008EB010008EB010008EB010008D0
:10006000EB010008EB010008EB010008EB010008C0
:10007000EB010008EB010008EB010008EB010008B0
:10008000EB010008EB010008EB010008EB010008A0
:10009000EB010008EB010008EB010008EB01000890
:1000A000EB010008EB010008EB010008EB01000880
:1000B000EB010008EB010008EB010008EB01000870
:1000C000EB010008EB010008EB010008EB01000860
:1000D000EB010008EB010008EB010008EB01000850
:1000E000EB010008EB010008EB010008EB01000840
:1000F000EB010008EB010008EB0100080000000024
:10010000EB010008EB010008EB010008EB0100081F
:10011000EB010008EB010008EB010008EB0100080F
:10012000EB010008EB010008EB010008EB010008FF
:10013000EB010008EB010008EB010008EB010008EF
:10014000EB010008EB010008EB010008EB010008DF
:10015000EB010008EB010008EB010008EB010008CF
:10016000EB010008EB010008EB010008EB010008BF
:10017000EB010008EB010008000000000000000097
:10018000EB010008EB010008EB010008EB0100089F
:10019000EB010008EB010008000000000000000077
:1001A0000000000000000000EB010008EB01000867
:1001B000EB010008EB010008EB010008DFF80CD0B0
:1001C00000F072F8004800477525000870620020B2
:1001D0000648804706480047FEE7FEE7FEE7FEE7E1
:1001E000FEE7FEE7FEE7FEE7FEE7FEE7F5130008A1
:1001F000BD010008202A06DBCB17203A41FA02F0A5
:1002000043EAE07306E041FA02F3D040C2F1200273
:10021000914008431946704710B5431A934209D2DA
:100220008318881803E010F8011D03F8011D521E01
:10023000F9D210BD40EA01039B0703D009E008C9C9
:10024000121F08C0042AFAD203E011F8013B00F89B
:10025000013B521EF9D210BDD2B201E000F8012BD1
:10026000491EFBD270470022F6E710B513460A4636
:1002700004461946FFF7F0FF204610BD30B50B4687
:10028000014600202022012409E021FA02F59D42C6
:1002900005D303FA02F5491B04FA02F52844151E9A
:1002A000A2F10102F1DC30BD064C074D06E0E0682A
:1002B00040F0010394E8070098471034AC42F6D3AD
:1002C000FFF780FF4417010864170108FEE7704735
:1002D00010B5682002F008FD04460020BCB184F887
:1002E000640001200B4984F848000948C4E9011062
:1002F0001A2004F130012077204601F085FD2062AC
:1003000004F14C01204601F07FFD6062204610BDE3
:10031000891C0008D71C0008B0B5044600F0D0F8CE
:1003200005468548611C406818BF044400F0C8F8C1
:10033000401BA042FAD3B0BD2DE9F84F534A4FF00D
:1003400008094FF0000E4FF0010A4FF0000B9042E9
:1003500000F1384208BF4FF007094FEAB223072BDC
:1003600038BF4FEAB22900220C6834FA02F508BF00
:1003700000F096B80AFA02F714EA070800F0808045
:100380004C6844F01005122D13D10BF01C040F2300
:1003900003FA04F56FF0030303EA520C00EB0C03BD
:1003A0001E6A26EA05050E6906FA04F42C431C624F
:1003B0004C680325066804F0030305FA0EF503FAFA
:1003C0000EF3AE43ED433343122C036011D80AFA07
:1003D00004F313F0061F0CD08368CE682B4006FA96
:1003E0000EF633438360230946689340BE4333438C
:1003F0004360C3682B408D6805FA0EF52B43C3603C
:10040000E3003DD5244C224F22F0030523683D44F0
:1004100043F00103236023680F2403F001030093DA
:100420000BF00C03009E9C4009FA03F31B4EB446EC
:10043000AE5926EA0404234345F80C303B684D6866
:1004400043EA0804EE0358BF23EA08043C60AE0305
:100450007B6843EA080458BF23EA08047C60EE0284
:10046000BB680C4E43EA080458BF23EA0804BC608A
:10047000AD02336843EA080458BF23EA0804346035
:100480000EF1020E0BF1040B01326DE7001C004867
:10049000000401400C0401406010024008FCFFFF12
:1004A00018BCBDE8E08F426928230A4208BF182320
:1004B000C15070471823002A08BF2823C150704735
:1004C00005480068704700BF1B48034940680A6838
:1004D00010440860704700BF6802002080B5032008
:1004E00000F060F8002000F007F808B1012080BD9E
:1004F00000F024F8002080BD70B50F4E04467068EF
:10050000B0B14FF47A71B1FBF0F0D7490968B1FB93
:10051000F0F000F0EDFC01250F2C0AD848B94FF09F
:10052000FF3021460022002500F020F8346000E072
:100530000125284670BD00BF0C00002082B00A488B
:10054000816841F001018160816801F00101019140
:100550000199016841F080510160006800F080500D
:100560000090009802B070475810024070B5134BCD
:100570004FF0FF351B68C3F30223DC1E83F0070333
:1005800038BF002405FA04F6B243042B28BF042325
:1005900005FA03F39943A1401143BDE8704000F010
:1005A000D9BF00BF05494FF6FF030A681A4060F340
:1005B0000A22034810430860704700BF0CED00E0BA
:1005C0000000FA0519483222016821F480410160D7
:1005D000D84909685143094AB1FBF2F101314A1E79
:1005E00043698A4203D213F400711146F7D140697E
:1005F0000321800501EAE070704700BF40420F0010
:100600000A48016841F48041016070470748016869
:1006100001F4C061B1F5806F0FBF4FF48060D0F876
:1006200080004FF4007101EA400070470070004004
:1006300010B50C460D49096801F4007118B139B9BB
:10064000FFF7DEFF04E019B1FFF7BCFF00B110BDFA
:100650000748012C016821F00401016004BF30BF8C
:1006600010BD40BF20BF20BF10BD00BF14700040B0
:1006700010ED00E02DE9F047002800F0EA80764D0B
:1006800004468946286800F00F0088420BD228688B
:1006900020F00F0040EA09002860286800F00F00F1
:1006A000484540F0D68020686C4EC10703D18107D1
:1006B00000F19A809EE06168E9B1022920D0032907
:1006C00023D156F8081C890140F1C380716801F0FC
:1006D000030101292CD156F8081CC14A090747BF5C
:1006E00056F8081C0909D6F88C10090A01F00F0108
:1006F00052F821101DE056F8080C80070AD4A8E033
:1007000056F8080C800305D4A3E056F8080C400501
:1007100040F19F8000F016F95149AA46884233D92A
:10072000306808214FF0010861F30710306031E0B4
:1007300000217268AA4602F00302022A03D0032AAB
:1007400008BFA64900E0A449726873683546766818
:100750000227C2F30312C3F30623C6F341665943CB
:10076000013207EB4606B1FBF2F13D4AB1FBF6F16F
:1007700091420CD929682E4611F0F00FD0D0800795
:1007800002D5A0680028CBD04FF0000802E04FF05F
:1007900000082E4660683168354621F003010843A1
:1007A00000F050FD064641F2883729466068296806
:1007B00001F00C01B1EB800F07D0FFF781FE801B29
:1007C000B842F2D90320BDE8F0872068810709D438
:1007D000B8F1000F1EBF296821F0F00129602E46F4
:1007E000554607E02E465546A168326822F0F002D1
:1007F00011433160296801F00F0149450AD9296880
:1008000021F00F0141EA09012960296801F00F0177
:1008100049451ED1410705D5E168326822F4E062FE
:1008200011433160000706D52069316821F4605119
:1008300041EAC000306000F085F83168094A00F0F4
:100840002FFD3C4908603D480068BDE8F047FFF7D0
:1008500053BE0120BDE8F08700200240081002408E
:1008600000B4C404EC3100081400002070B5594DE8
:10087000286840F001002860FFF722FE044628683F
:10088000800706D4FFF71CFE001B0228F7D90320BF
:1008900070BD2868062161F30710274928600020F1
:1008A000A8602448016025480068FFF725FE08B1CC
:1008B000012070BDFFF704FE044641F28836A868A7
:1008C00010F00C0F05D0FFF7FBFD001BB042F6D96E
:1008D000DDE728681A4908402860FFF7F1FD044663
:1008E000286810F0285F05D0FFF7EAFD001B0228FA
:1008F000F6D9CCE70020E860E96841F48051E9606E
:100900002861296941F4805129616861696941F46C
:1009100080516961296821F4802129604FF0FF31FD
:10092000A8612962D5F8941041F40001C5F894102B
:1009300070BD00BF1400002000093D000C00002025
:10094000FFF4FEEA10B523498A68C86812F00C0269
:1009500005D00C2A1FD100F0030001281BD1086824
:100960001F4B000747BF08680009D1F89400000A30
:10097000002A00F00F0053F82030184618BF00205E
:100980000C2A21D1C86800F00300022809D00328EE
:1009900008BF124B06E0042A17D0082A17D10F48C7
:1009A00010BD0D4BC868CA68C9680224C2F306228C
:1009B000C0F30310C1F341615A43013004EB41011C
:1009C000B2FBF0F0B0FBF1F010BD034810BD002009
:1009D0000023D5E7001002400024F40000127A0042
:1009E000FC1201082DE9F843002800F05381D74E8E
:1009F0000446B06800F00C08F06800F003072078A7
:100A0000C0061BD42078C00758D0B8F1080F4ED0CC
:100A1000B8F10C0F08BF032F49D06068B0F5803FD4
:100A200007D0B0F5A02F40F0B281306840F48020AC
:100A30003060306840F480303060B3E1B8F1000FCE
:100A400019D0B8F10C0F08BF012F14D03068A1697C
:100A5000002900F0448140F0010000F0F3FB05465E
:100A60003068800700F14A81FFF72AFD00F0C1FBE2
:100A7000F6D9BDE8F8833068800703D5A06900285F
:100A800000F00881206A316809075ABFD6F894102F
:100A90000909316801F0F001884240F2E88000F075
:100AA0002FFC002840F0F68000F053FBF5E03068A2
:100AB000800303D56068002800F0EC802078800770
:100AC00028D5B8F1040F17D0B8F10C0F08BF022FCA
:100AD00012D03068E168002900F0728140F4807023
:100AE00000F0B0FB0546306840050CD4FFF7E8FC89
:100AF00000F07FFBF7D9BCE73068400503D5E0681C
:100B0000002800F0C7802069716821F0FE4141EAA9
:100B1000006070602078000747D4207840075BD4DD
:100B20002078800600F18C80A06AD8B3B8F10C0F51
:100B300040F0E780012800F0AD80E16AF06800F045
:100B400003028A4240F0A680216B6FF00F0202EB95
:100B5000011100F0F0028A4240F09C80616B00F4C9
:100B6000FE42B2EB012F40F09580A16B00F078427D
:100B7000B2EBC16F40F08E80E16BDA4A02EB0151BB
:100B800000F4C0026FF314018A4240F08380216CAC
:100B90004FF07E4200F0C06002EB016101F07E4147
:100BA000884277D10020BDE8F883D6F894006169C7
:100BB000002900F0828040F00100C6F89400FFF7A1
:100BC0007FFC0546D6F894008007A6D4FFF778FC92
:100BD000401B0228F6D9D7E0B06D10F0805908D13B
:100BE000B06D40F08050B065B06D00F08050009066
:100BF0000098B94F3868C0050FD4386840F4807049
:100C00003860FFF75DFC05463868C00505D4FFF77E
:100C100057FC00F0EEFAF7D92BE7A068012808D0BE
:100C2000052840F09580D6F8900040F00400C6F802
:100C30009000D6F8900040F00100C6F8900095E0D2
:100C4000D6F89800616A00296ED040F00100C6F81D
:100C50009800FFF735FC0546D6F8980080073FF569
:100C600063AFFFF72DFC00F0C4FAF5D901E7316856
:100C700041F008013160316821F0F0010143316039
:100C8000E169726822F47F4242EA0121716000F05A
:100C900037FB10B10120BDE8F883FFF753FEB168C0
:100CA0008A4A00F0FDFA8A4908608A480068FFF71E
:100CB00023FC00287FF4DDAEA4E620F00100C6F896
:100CC0009400FFF7FDFB0546D6F8940080077FF5FA
:100CD00024AFFFF7F5FB00F08CFAF5D9C9E620F058
:100CE000010000F0AFFA0546306880077FF58AAE54
:100CF000FFF7E6FB00F07DFAF6D9BAE600F029FA34
:100D000080E63168022821F08071316067D1FFF7F9
:100D1000D7FB05463068800140F19480FFF7D0FB97
:100D200000F067FAF6D9A4E620F00100C6F89800B2
:100D3000FFF7C6FB0546D6F8980080077FF5F4AEAE
:100D4000FFF7BEFB00F055FAF5D992E6001002401D
:100D5000D6F89010002821F00101C6F89010D6F8BE
:100D6000901021F00401C6F8901052D0FFF7A8FBB4
:100D7000054641F28837D6F89000800759D4FFF72E
:100D80009FFB401BB842F6D90320BDE8F8833168C9
:100D9000002821F480313160316821F480213160F4
:100DA00000F08680FFF78CFB0546306880033FF536
:100DB00085AEFFF785FB411B03206429F5D958E672
:100DC00020F4807000F03EFA0546306840057FF55B
:100DD000A1AEFFF775FB00F00CFAF6D949E63068D2
:100DE00010F0205F03D1F06820F00300F060F0689D
:100DF0003A490840F060FFF763FB04463068800121
:100E00007FF5D0AEFFF75CFB011B03200229F5D96B
:100E10002FE6FFF755FB054641F28837D6F89000DC
:100E2000800706D5FFF74CFB411B0320B942F5D9DB
:100E30001FE6B9F1000F7FF473AEB06D20F0805063
:100E4000B0656DE604F12C036FF00F05244F0FCB56
:100E500005EB0111F5683D4028430843E16B40EA8A
:100E60000220204A02EB01514FF07E426FF3140141
:100E70000843216C40EAC36002EB016101F07E414E
:100E80000843F060306840F080703060F06840F0F7
:100E90008070F060FFF714FB0446306880013FF576
:100EA00081AEFFF70DFB011B03200229F5D9E0E518
:100EB000FFF706FB0546306880037FF5FFADFFF7BF
:100EC000FFFA411B03206429F5D9D2E5EC31000873
:100ED000140000200C00002000700040FFFFEEFE18
:100EE0000C809D010000E0FF0C4800F02DB900BF10
:100EF000411E0020B0EB116F1CBF01207047074A54
:100F0000F023516002490B70072190601160704717
:100F100023ED00E0014800F090B900BF10E000E0D0
:100F2000B0B590F83C300222012B1ED080F83D2055
:100F30000F4D026854689368AA4202D00D4DAA4230
:100F400003D14D6824F470042C430D68896824F0A3
:100F5000700423F080032C431943546091600022F5
:100F6000012180F83C2080F83D101046B0BD00BF44
:100F700000340140002C014060B110B500F09DF933
:100F800003D100F072F900F007F800F0B0F9012089
:100F900000F098B90120704781B000680749884285
:100FA00009D1F448016841F008010160006800F0CF
:100FB00008000090009801B0704700BF000C00408E
:100FC0000221084B80F83D1001688A681A40062A01
:100FD00006D0B2F5803F03D00A6842F001020A60F1
:100FE00000F077B907000100B0B500F053F91CD04C
:100FF00084F83D000120284D84F83C00206802461A
:1010000052F8083F2B4013600B682BB1102B03D014
:10101000202B18BF302B09D1106820F07000184326
:1010200040F00700106000F02EF9B0BD402B0DD04D
:10103000502B15D0602B1DD0B3F5005F27D0702B3F
:10104000F1D100F0EDF840F07700EBE700F046F961
:10105000226852F8080F40F0470020F03000E1E726
:1010600000F03CF9226852F8080F40F0570020F0D9
:101070002000D7E74B68CA68194600F058FA226882
:1010800052F8080F40F0670020F01000CAE700F0A7
:10109000C7F840F48040C5E78800FEFFFEE7000087
:1010A0002DE9F84305468C20984617460E4601F078
:1010B0001BFEB8B3044601202149DDF8209084F8D6
:1010C000880084F87C0084F860001C48C4E90110A2
:1010D000132004F148012077204600F095FE20629D
:1010E00004F16401204600F08FFE606204F180008C
:1010F000B9F1010F84F84290A4F83A80C4F8367030
:10110000A686256320610FD14FF0FF30022210FA2E
:1011100085F100EB154091FBF2F190FBF2F0A18715
:10112000012104E0002405E000200021A087A4F8AC
:101130004010E0872046BDE8F88300BFE52800089E
:101140006F290008FEE77047016841F00201016065
:101150007047306840F008003060D4E90701326819
:1011600022F0F00211433160716821F47F4141EABD
:1011700000207060704701234280018083807047A7
:10118000417440684A001946FFF746B8002398E8C2
:10119000C0011B928A88ED683F681C920A884988C2
:1011A000D5E900C5199131681A92B0F84220B5F816
:1011B00004906C88367C2D881891818F1791018F4F
:1011C0001691C18E1591B0F84410C06DCDE9113360
:1011D0007047C4E90110022004F140012077204645
:1011E00000F012BE91FBF2F2616AC96849680A8098
:1011F0007047411B03200229704784F8A00084F83F
:10120000940084F87800042004F1600120772046DF
:1012100000F0FABD206204F15C01204600F0F4BD4C
:10122000D1E90103C968184340EA0120116821F49B
:101230007F410843106010687047016821F0020187
:10124000016070473060FFF73BB908B000F000B8AC
:1012500030BCBDE8C08F0A68496800F15008456A93
:10126000B0F832A0B0F830B07047002084F83C00ED
:10127000204670471598059014980690139807908B
:10128000DDE9190370470020012184F83C0084F84F
:101290003D10704790F83C2004460220012A704718
:1012A000C1F30311515C01F01F01C8407047206277
:1012B00004F17C01204600F0A7BD044690F83D00F3
:1012C0000028704784F83D00002010BD046801F03C
:1012D00006BE012180F83D10002070474B68CA68A7
:1012E000194600F013B94068817C1029704702202C
:1012F000211D84F83D00206800F0A2B8704700006E
:10130000BCB51C4D04462868C0000FD4286840F0C6
:1013100080502860286800F0805001900198FFF705
:1013200075F9296821F08051296001E0FFF76EF915
:10133000B0F5007F06D1812C0DD30120A02C88BFF1
:10134000022009E07F2C8FBF0220A4F17000B0FAC8
:1013500080F0400900E0002025490A6822F00F02D1
:1013600002440A60096801F00F01081A18BF012041
:10137000BCBD00BF581002407047FFF7A5B8000081
:10138000F0B597B012AC064614212046FEF76BFF6D
:1013900001AD2421281DFEF766FF154803270168CB
:1013A00067F303010160FFF761FA60201021720802
:1013B0000026099001200191022108960790CDE9AD
:1013C0000D02CDE90B1004201191109007200F9011
:1013D0002846FFF707FB0F200421CDE91566CDE96C
:1013E000137612902046FFF745F917B0F0BD00BF05
:1013F0000020024010B50F48104CD0F8801041F486
:101400007001C0F880100C490A6842F001020A60BD
:1014100000228A600B6823400B604FF48053CB603E
:101420000B6823F480230B608A614FF00061016038
:1014300010BD00BF08ED00E000100240FFFFF6EA1B
:1014400070B5294A0368904218BFB0F1804F3DD172
:101450004C6823F070032343904217D0B0F1804FC3
:1014600014D0224CA04211D0214CA0420ED0224CCC
:10147000A0420BD01F4CA04208D0204CA04205D067
:101480001F4CA04202D01F4CA04203D1CC6823F4D1
:10149000407323434E6923F080030C688D68334307
:1014A00090420360C56284620BD0174A02444FEA3F
:1014B000B222052A07D8012303FA02F212F0390FEB
:1014C00001D0096901630121416170BD074CA0424F
:1014D000BED0074CA042BBD0064CA042B8D0064CB0
:1014E000A042B5D0BAE700BF002C01400004004084
:1014F0000008004000340140000C00400040014062
:10150000004801400044014000CCFEBF10B5036A12
:10151000046A24F001040462846924F0F00444EABB
:101520000212826123F00A021143016210BD036AB4
:1015300023F010030362836923F4704343EA023209
:10154000036A826123F0A00242EA0111016270473E
:10155000FEE7000010B5074C00F00F03B0F1FF3FAD
:10156000034A2344C8BF83180801187010BD00BF88
:1015700000E400E014ED00E000F0FC00042808BFE7
:10158000072108467047000080B50C2001F0ACFB35
:10159000012101720149016080BD00BF932D000847
:1015A0000022602A04D081180B7A13B10C32F8E7BC
:1015B00000210846704770B500220023602A07D03A
:1015C00085186C6A24B1CE1823440C322E62F5E7DC
:1015D000002070BD40F29311401A18BF01207047DF
:1015E0002DE9F84F4FF0010A90468B4605466E46AE
:1015F000002BCDF800A018BF1E46BBF1000F00F075
:10160000F680DBF8207038680028384606D000B332
:1016100001688268096901611046F8E73869C8B94C
:101620004046FFF7BDFF0446007A01302072F8689B
:1016300001F055FC81073C6184F809A020F003010A
:1016400018BF081D6168884298BF0846DBF8207003
:10165000606057B1B86840B13FB13869002873D0B5
:10166000407A012870D1BF68F6E7DBF808105846C9
:101670008847AB4508D02846016819B15845084647
:10168000FAD101E0C0F800B0DBF810409CB1404650
:10169000FFF786FF017A206080F809A0013101720E
:1016A00061688A0721F0030218BF111D4268914248
:1016B00098BF11464160306801303060DBF820008F
:1016C00000F0BDFB5F4657F8240F00F0B8FB3C6804
:1016D000002C00F08C80A068C0BB6068B0BBDBF859
:1016E0002000017E19B3217E09B34046FFF758FF61
:1016F000002800F08080814640F20110A9F808001F
:10170000E06801F0ECFBDBF82410C1F810908107D1
:1017100020F0030118BF081DD9F80410884298BFB3
:101720000846C9F80400584601F028FB01E00069AA
:101730002061584601F01CFBDBF8240000680028FB
:1017400055D0D0F814B058E7F82051E0DBF820006D
:10175000017E31B3217E21B34FF0010984B32068AB
:1017600070B34046FFF71CFF0028206143D0E068BB
:1017700001F0B5FB810720F0030118BF081DD4F864
:1017800010A0DAF80410884298BF0846CAF804008E
:10179000204601F09FFAA4688AF809908AF80800A8
:1017A000DCE7D0F810902046C4F8109001F092FACF
:1017B000012189F8091099F80810084489F80800EF
:1017C000584601F0DBFA584601F0D2FA3C6874B191
:1017D00027464FB1386838B14169284642463346FA
:1017E000FFF7FEFE7F68F4E704F10807EEE700204C
:1017F00040B200F002B8F920FAE718BCBDE8E08F6B
:10180000F8B50446006AE26C0168C968C160497CA9
:10181000002001F035FAD4E90812D060C96801F05F
:10182000E1FAD4E90805216D6269C368896898689E
:10183000096800680844A16D0968411AE86885686C
:1018400029604AB1107AFFF797FE0146D4E90820D3
:10185000C06883681960D368D3F804C094F848203E
:10186000BCF8003073B1E58E278EB4F842602B448B
:10187000C7F10107013B012A18BF07FB0633B3FB81
:10188000F5F500E0002543681D80BCF8025075B1F5
:10189000268F618EB4F844703544C1F10101013DD9
:1018A000012A18BF01FB0755B5FBF6F500E000253E
:1018B000E16C012A5D80998014D10021628E02259D
:1018C000A4F84010B4F84410531E5943238E91FBE2
:1018D000F5F15E1EE187B4F84210714391FBF5F11A
:1018E000A18701E0238E628E03FB02F1BCF8042085
:1018F00001FB02F501F0F3FA6843A0620020F8BD95
:1019000010B50446806928B9206D00F0F6F8606DC6
:1019100000F0F3F8002010BD2DE9F04F9BB0016AF4
:10192000C9688A7C102A1BD1FFF795FCB0F83EE00D
:101930004DF808EDFFF72AFC5DF808EB08ABCDE9A0
:101940000D6CCDE90F45CDE90B08169886C3DDE98E
:1019500017128DE8014EFFF78DFC00F095FA1AE0A2
:10196000FFF779FCB0F83EE04DF808EDFFF70EFC0C
:101970005DF808EB08ABCDE90D6CCDE90F45CDE97D
:101980000B08169886C3DDE917128DE8014EFFF7A4
:1019900071FC00F07BFB00201BB000F000B830BCF5
:1019A000BDE8C08F7CB50546A42001F09DF978B351
:1019B00004460120FFF721FCFFF779FC60623A48FA
:1019C0003A493B4AA56104F13006C4E90121E060CF
:1019D000A868407C03281DD195F91C206846012188
:1019E00000F040FABDF804000121B080009830609A
:1019F000684695F91E2001F0F3F9BDF804000121B5
:101A000060870098C4F83600684695F922201FE0E8
:101A1000002447E095F91D2095F91C10684600F058
:101A200021FABDF80400B08000983060684695F94E
:101A30001F2095F91E1001F0D3F9BDF8040060874E
:101A40000098C4F83600684695F9232095F92210CD
:101A500000F010F9BDF8040004F15006A4F84600A7
:101A60000098C4F84200A869E06495F8240008359D
:101A700084F8480001282ECD2EC613D1218E0020D7
:101A8000628EA4F84000B4F842000139013A48439C
:101A9000022190FBF1F0A087B4F84400504390FB82
:101AA000F1F0E08720467CBD01190008011800080C
:101AB00019190008B0B5016A04460868C068457C79
:101AC000C86001F0BCF902460020294601F0D8F8B0
:101AD000D4E90812D060C96801F084F9606950B196
:101AE000616A007AC96889680968FFF745FD616A1B
:101AF000C968896808600020B0BD01F001BB000022
:101B00007FB5016A04460868C068C86001F097F9AB
:101B1000024600200121012501F0B2F8616A082384
:101B2000C860D4E90C12ADF80E10D2E90212CDE96A
:101B300000530DF10E0301F0A2F9D4E90803616B23
:101B40006269C0688968DB68856809689B682D6878
:101B50002944E56B2D68491B196042B1107AFFF7E3
:101B60000BFDD4E90812D26892681060C868084E6C
:101B7000B0472169226A40004860D068B0470546F6
:101B8000606AC068B0476843A062002004B070BDBE
:101B9000DF2E000810B50446806928B9606BFFF796
:101BA000ACFFA06BFFF7A9FF002010BD2DE9F043AB
:101BB00085B00446006AD4E90F23616BC068D1F890
:101BC00000801F881588D0F8009001F088F9626ABB
:101BD0002169A46BD2680968D2E900620968138898
:101BE000226804914146CDE90075CDE9022682B212
:101BF000484600F047FB002005B0BDE8F083000038
:101C0000B0B50546882001F06FF850B304460120B6
:101C100084F8840084F8780084F85C00082004F1DB
:101C200044012077204600F0EFF8206204F16001C3
:101C3000204600F0E9F80C49606204F17C000B4A90
:101C40000B4BC4E90310A868C4E9013201F0F7F8AE
:101C500005F108032063A56104F134050FCB0FC51E
:101C600000E000242046B0BD951B0008011B0008C1
:101C7000AD1B0008FFF77FBA20B1416A096811B1B6
:101C80004869FAE700207047BFB5016A0446086852
:101C9000C068457CC86001F0D2F8024600202946A1
:101CA00000F0EEFF616AC860206AC06801F017F9B1
:101CB000ADF80E00D4E9081008230124CA68C068F2
:101CC000D2E90212CDE900430DF10E0301F0D7F87D
:101CD000002004B0B0BD0020704710B50446FEF7E8
:101CE000F7FA00B1846110BD0849D1F88020D2070D
:101CF0000BD00968C90708D04FF060410A680AB9DB
:101D000000BFFBE74FF0604108707047000E00E035
:101D1000B0B50446006AC068457C01F090F8024600
:101D20000020294600F0ACFFD4E90812D060C96851
:101D300001F058F80020B0BDB0B5016AC46BC868A6
:101D4000056801F0CCF8024628462146FEF764FA01
:101D50000020B0BDBFB50546782000F0C5FF0446A1
:101D60000020E4B184F874000120264984F858006A
:101D70002348FFF72EFAFFF74DFA60626868417C4E
:101D800002290ED0406801291FBF8388428801883C
:101D900002A801BF038802A80121012206E0002455
:101DA0002AE0406801214388028802A801F014F863
:101DB000BDF80C00A08602982063686801688268FC
:101DC000E1631168A163218EADF80810D4F83210D8
:101DD000CDF80A1001F033F8024600200321032554
:101DE00000F04EFF226AA16BD0600822CDE90052BC
:101DF00002AB002201F064F8204604B0B0BD00BF81
:101E0000111D0008391D000848610846704770B56B
:101E100004469CB12546D4E9010420B1466801F08E
:101E20006FF93046F9E76869016A8D42F1D0406A7E
:101E30008542EED0284601F063F9EAE770BD10B59F
:101E400030B1044624B1E06801F049F8A468F9E72C
:101E500010BD10B5044624B1E06801F051F9A46842
:101E6000F9E710BDFFF787B9B0B550B14168044636
:101E700088470546606908B1016888470020E0622C
:101E800000E0FF2568B2B0BD2DE9F04F9BB0DDF852
:101E9000988009909A462D9DDDF8B8E04FF0000C2F
:101EA0000A9108FB03F02C9B1690581E08900844DA
:101EB0000790681E059010442A9A049003FB0AF0CC
:101EC0004FEA400905FB0AF0484340001590299865
:101ED0004042029028984042039031980138B0FA6D
:101EE00080F04009019000200D9000200C90259872
:101EF000844500F0C58002980021CDF82CC01190D7
:101F00003498814200F0B18033980691002748430D
:101F100010902B9848432999401A0499091A0F9157
:101F20000599081A0E90039814903398874200F090
:101F300095800F9890FBF5F127988142C8BF014624
:101F4000189107FB02F013972899401A0799091A6C
:101F500091FBF3F74745C8BF47460E9991FBF5F152
:101F600021EAE1760899081A90FBF3F0BEF1000F20
:101F700020EAE070179010D02F980C9A1EF90C10E0
:101F800050F8220001FA00F0309951F82220012186
:101F90009140129200EB610007E030980C9950F8E4
:101FA00021100120884012914010119A1499179C19
:101FB00003FB041105FB06220A9B03FB0211099A8D
:101FC0000AFB01F102EB41030D99249A314408FB0D
:101FD00001410AFB012CC117189A964222DADDF85A
:101FE0005CE0E34698461A961993BE4512DA5D46C0
:101FF000434654464CB133F9026B15F9012B724339
:10200000801841EBE271013CF4E7D344C8440EF17F
:10201000010EEAE7169A1A9E199B9444159A013606
:102020001344D9E7129AFEF7E5F81099139F259A01
:10203000DDF82CC000F30F000DF1B00EDDF8988034
:102040009EE828403944013701FB02C1329A22F848
:1020500011002A9A14981044149066E72B9811994D
:1020600001441191069901314AE70D9827990CF125
:10207000010C08440C990D90019801440C9136E72D
:102080001BB000F000B830BCBDE8C08F2DE9F04FA8
:1020900099B0DDF8A8A0DDF8908008909946DDF8A9
:1020A000B0C0099108FB03F00AFB03F72B9B1590C6
:1020B00003FB09F048431490AAF10100079008447B
:1020C00000210690581E04901044289A03902798E7
:1020D000404201902698404202902F980138B0FA71
:1020E00080F04009009000200B9000200A90239877
:1020F000814200F0C1800198109100210F90329828
:10210000814200F0AE8031980591002448430E9042
:10211000299848432799401A0399091A0D9104995F
:10212000081A0C90029813903198844200F0928023
:102130000D9890FBF3F125988142C8BF0146179195
:1021400004FB02F02699401A0699091A91FBFAF24B
:102150004245C8BF42460C99129491FBF3F121EA23
:10216000E1760799081A90FBFAF0BCF1000F20EA1B
:10217000E070169011D010992D980A9C50F8240008
:102180001CF9011001FA00F02E9951F824400121A8
:10219000A140119400EB610407E02E980A9950F8D1
:1021A000211001208840119144100F991398169D19
:1021B00003FB06110AFB0500099B03FB01000899BC
:1021C00009FB001E0B982299304408FB005009FBC4
:1021D00000151798864220DADDF858A01896284690
:1021E0007646924510DA0146F0464B463BB118F967
:1021F00001BB11F901CB013B1CFB0B44F6E7484442
:10220000BE440AF1010AECE71598B6460544149855
:1022100006EB000E189E0136DBE70E98DDF848E06D
:102220002399109ADDF89080DDE92AA3DDF8B0C08B
:1022300070440EF1010E00FB01201199309A44FA0E
:1022400001F1744601F307011154289A13981044C0
:10225000139069E729980F9901440F91059901316D
:102260004DE70B98259908440A990B900098014472
:102270000A91109901313AE719B000F000B830BC6A
:10228000BDE8C08F2DE9F04F89B007460C20DDF87E
:102290004CC0DDE914E900EA820003900120CDF88A
:1022A00018E000FA0CF04FEA600802F00300029018
:1022B0009008CDE90487CDE900309B08180400F0B0
:1022C000B680BEF1000FCDE9073917D0069C129BEE
:1022D00094F90300984000EB080994F90200984033
:1022E00000EB080B94F90100984000EB080E94F9FC
:1022F0000000043406949840804402E0C146C3467E
:10230000C646DDF804A0BC465FEA0A444DD09CF9FD
:10231000004091F905609CF9017091F90D5091F917
:102320000F00AAF1010A16FB04939CF9026091F9CF
:10233000079019FB063315FB07339CF903500CF18A
:10234000040C10FB053991F9040091F9063010FBDB
:1023500004B013FB060091F90C3013FB070091F950
:102360000E3013FB050B91F9010091F9033010FBBE
:1023700004E013FB060091F9093013FB070091F903
:102380000B3013FB050E91F9000091F9023010FBA0
:10239000048013FB060091F9083013FB070091F944
:1023A0000A30103113FB0508AEE7029E002430040A
:1023B00016D001EB84001CF904300134013E90F981
:1023C000035015FB039990F9025015FB03BB90F9DC
:1023D000015090F9000015FB03EE10FB0388E6E7BF
:1023E000DDF84CC0079B49FA0CF0DDF82090013B6A
:1023F00000F3070089F803004BFA0CF000F3070024
:1024000089F802004EFA0CF0DDF850E000F3070006
:1024100089F8010048FA0CF0DDE9048700F30700B1
:1024200089F80000039809F10409014446E700987F
:1024300000F0030003041DD0BEF1000F05D01EF90B
:10244000013B129CA340434402E04FF0000E434680
:102450000024A24205D03D570E57013416FB053328
:10246000F7E743FA0CF31144013803F3070309F8C3
:10247000013BDFE709B000F000B830BCBDE8C08F19
:102480002DE9F04F88B000240FFA84FC9C4556DA01
:1024900000940024189D019424B2AC424CDA179D9C
:1024A00065430395169D6C43149D651B129C029514
:1024B0002C4400250794179C2EB2A64239DA159CAD
:1024C0000595139DDDF80890049674436FF080061F
:1024D000651B119C06952544079C0FFA89F8444515
:1024E0001DDD069F08FB01FE0FFA87FB5D4513DD2E
:1024F0008B45B8BF90450DDA47EA090A0FFA8AF40E
:10250000002C07D40EEB0B0404FB03C40457A642B3
:10251000B8BF26460137E7E709F10109DCE7DDE945
:1025200003452C441A9D04FB03C42E55059D01351B
:10253000C1E7019C0134ADE7009C0134A4E7FEF73C
:1025400084BE002241B1B0F90030B3F1FF3FD8BFE3
:10255000028002300139F5E77047002241B190F95D
:102560000030B3F1FF3FD8BF027001300139F5E709
:10257000704700008AB0FDF7B1FF1820FEF700FF9A
:102580004FF000089E489F4D00224FF48144CDF843
:102590001880016841F0020101604FF48141006838
:1025A00000F00200079007982846FDF783FF0120FE
:1025B000CDE90488CDE9024002A92846FDF7BCFE1A
:1025C000DFF844929148CDF81480CDE90388CDF826
:1025D0002480CDE907884C4644F8040F4FF0FF30C3
:1025E000C4E903082046C4F81880C4E90188FEF74E
:1025F000C3FC4FF48050029002A92046FEF7F4FC81
:10260000CDF82480CDF81C8007A92046FEF788FC71
:102610002046FEF7D5FC20688021C0F8248028469B
:10262000FDF741FF4FF47A70FDF776FE28468021D2
:10263000FDF739FF76A07AA100F062FC7AA000F0E5
:10264000C3FD2068406A019040F29310FEF7C2FF7C
:102650007A4F384600F0F0FA7948FFF77BFB0546E1
:1026600000907848DFF8E0B1FC68D8472946A047D9
:10267000DFF8D8A1BE690446D0472146B0470446DA
:102680007348744EFD68B0472146A8470446724817
:10269000FD68D8472146A847BD690446D047214672
:1026A000A84704466D48FD68B0472146A847044640
:1026B0006B48FD68D8472146A847BD690446D04706
:1026C0002146A84704466748FD68B0472146A84709
:1026D00004466548FD68FFF700FB2146A84704460D
:1026E0006248FD68FFF78CFA2146A8470446604817
:1026F000FD6800F021FB2146A847009902463846B4
:1027000000F0C1F90FF2901B69A461A64FF0000A16
:10271000B8F1960F49D03B484FF48041FDF7C3FE16
:10272000544908EB48004FF4C07201EBC011524805
:10273000FDF772FD414800F062FA50A000F0E0FBA6
:102740000025022D06D019F90510304600F0D8FBFF
:102750000135F6E70A2000F031FD00276FF07F0019
:102760000021022907D019F901209042BCBF0F4671
:1027700010460131F5E75846394600F0C1FB4B4899
:1027800010F908502046294600F0BAFB1D484FF4C6
:102790008041FDF788FE3220FDF7BEFDAF4208BF45
:1027A0000AF1010A08F10108B2E7244800F0A6F98D
:1027B000642096210AFB00F0B0FBF1F1D9F8040087
:1027C000446A404800F09CFB0198211A3EA000F0AA
:1027D00097FB0C4C80212046FDF765FE4FF47A7084
:1027E000FDF79AFD20468021FDF75DFEFEF792FB86
:1027F0004FF480400221FDF71BFFFEF775FBF5E764
:102800004C1002400004004818000020000C00405A
:102810002044617461736574733A2025730A0A0059
:1028200064617461736574003D3D3D20496E666569
:102830007272696E67203D3D3D0A0000E001002094
:102840007814010828140108A51900088915000842
:10285000A0140108D9290008C81301088014010830
:10286000F8130108901401087414010858140108A1
:10287000B0140108FC3100085C0000200A4D6F64B0
:10288000656C20657374696D617465203D2000007E
:102890005B25645D200000004F7574707574204CDA
:1028A0006162656C3A2025640A0000002C1301085F
:1028B000457870656374204C6162656C3A202564CC
:1028C0000A000000B81401080A2045786563757491
:1028D000696F6E2054696D65203D2025646D730A13
:1028E00000000000B0B5016A04460868C068457C75
:1028F000C86000F0A4FA02460020294600F0C0F9A2
:10290000D4E90812D060C96800F06CFA606950B16F
:10291000616A007AC96889680968FEF72DFE616AF4
:10292000C96889680860206A94F84220C068012A52
:102930004068018809D1E28E11440139FEF752FC4A
:10294000228F43881344013B0AE0228E891AE28ECB
:102950001144FEF747FC628E43889B1A228F134472
:1029600093FBF2F24A80808888800020B0BD2DE978
:10297000F04F8BB0416ACF68797C012904D14FF0C8
:10298000010C4FF0010E04E07968B1F800E0B1F8F5
:1029900002C0016A458E068E3F68C48FB0F83C9035
:1029A000B0F838A0B0F836B00020C968D1E900818D
:1029B0008B880A884988CDE90807CDE9005602A826
:1029C00080E8105E4046FFF75BFD00200BB000F092
:1029D00000B830BCBDE8C08FB0B58AB0044690F9ED
:1029E0000830007B012812D108A801211A46FFF700
:1029F00039FA94F90A2006A8012100F0F1F92579A5
:102A0000BDF81C30069ABDF82410089813E094F91C
:102A1000092004A81946FFF725FA94F90B2094F928
:102A20000A1002A800F0DCF92579BDF80C30029AF2
:102A3000BDF8141004980095FEF732FB00B18461D4
:102A40000AB0B0BD00F1240100220020602A08BFB6
:102A500070478B580C321844F8E7486108467047B5
:102A6000B0B551B1054600680C46FFF705F930B125
:102A7000406A216A0160086002E0F92001E02C60F0
:102A8000002040B2B0BDBCB50446012001907CB32B
:102A90000D4669B3C4E900521AB92846FFF7ECF8AD
:102AA000606004F1200201AB28462946FEF798FD3C
:102AB0002046FFF7C7FF00F017F9D8B101462046BE
:102AC000FEF779FD204600F0C1F9204600F074F9C8
:102AD0002268002000213AB11368926A80181A46D1
:102AE00041F10001002BF6D1C4F88000002002E083
:102AF000FF2000E0F92040B2BCBD000090B370B5EB
:102B000005680446DDB1E9682E6809B128468847A2
:102B1000287F022802D1286AFFF79BF9686AFFF72D
:102B200098F9286AFFF773F9686AFFF770F968691E
:102B300000F0E6FA284600F0E3FA3546E2E7206ABC
:102B400000F0DEFA94F8850018B1204600F0D8FABB
:102B500003E020468821FDF786FB6E4800210160D6
:102B6000BDE87040704700BFF8B581B1044670B150
:102B70004E6A0D466EB1306860B137467668002EF9
:102B8000FBD1082000F0B0F80646786002E000248F
:102B900014E00026206A68B1016861B107468068C8
:102BA0000028FBD11C2000F09FF8B86010B17969B3
:102BB000416100E00020696A306001602046F8BD94
:102BC00013460A460221AFF3008082B07CB504466A
:102BD000CDE9062370B106A80D4600260190AE424D
:102BE00008DA0198011D019101682046FFF7BCFF3A
:102BF0000136F4E72046BDE87C4002B07047002172
:102C0000AFF3008070B5A0B1066805468EB10C46E2
:102C10003046FFF729F968B9EA691AB12846314602
:102C2000904738B9A64202D03668002EF0D1002075
:102C300000E0FF2040B270BDB0B520B1882104464D
:102C4000FDF711FB06E0882000F04EF80446012055
:102C500084F8850005480649064A074B074DA061E0
:102C60002046C4E90253C4E90421B0BD5B2A000830
:102C7000CB2B0008C12B0008692B0008612A000833
:102C800070B50D46044618B1012C18D1960000E02D
:102C900004261420042100F014F800EB450000EB9A
:102CA000460000F021F850B1690000F114024574AB
:102CB000047411448B19C0E90121C36070BD002068
:102CC00070BDB0FBF1F202FB1102891A002A18BF95
:102CD0000844704728B10146002019B14968013005
:102CE000FBE7002070470000B0B50446800724F0E1
:102CF000030018BF041D204600F02AFA054638B12B
:102D0000044801682144016028462146FDF7ABFADA
:102D10002846B0BDDC010020B0B5D0E90812C46B74
:102D2000C8680568D06800F0DAF8024620462946EF
:102D3000FDF772FA0020B0BD10B50446FFF70AF89F
:102D400030B10321044A846101770249C0E90121BD
:102D500010BD00BFB51A0008192D0008017A21B175
:102D600001390172090600D0704700214172704795
:102D7000006910B10068FFF7F1BF704710B520304F
:102D800004682CB12069FFF7E9FF04F10800F7E7B8
:102D900010BD10B5FEF7A7FA06D1FEF797FA014667
:102DA0002046FFF7CEFB05E0FEF790FA01462046ED
:102DB000FFF7D3FB002010BD58B1006848B141694E
:102DC00011B1426AD2684A6000680028F7D1002039
:102DD00000E0FF2040B2704783804280018070474E
:102DE000FEF7C9B970B504460D46087C217C8842BF
:102DF0000CD1697C627C914208D1012808D16868B5
:102E000000EB410030F8020C860002E0002414E0E0
:102E10000426A87CA9683246A074A068FDF7FCF9D6
:102E2000E968E0683246FDF7F7F9687C6968607424
:102E300060686A7C5200FDF7EFF9204670BD417C66
:102E4000406800EB410030F8020C70470068A0B108
:102E500000F12001096829B1D1E9032308311B6879
:102E60001360F7E700F1240109680029EED0D1E9E9
:102E7000032308311B681360F6E700207047F8B59C
:102E80000E46069904461546FEF77AF9217C079806
:102E9000012907D1617C626802EB410131F8021C13
:102EA0008F0000E00427A074A06831463A46FDF781
:102EB000B3F9E06829463A46FDF7AEF92046F8BD79
:102EC00070B50D46049906461446FEF759F9D6E941
:102ED0000201056005980C60B074304670BD60B1A9
:102EE00010B54268417C012310888B4228BF10BD79
:102EF00032F8134001336043F7E7002070470000C9
:102F00000FB4054B10B503A9044A029800F018F855
:102F100010BC5DF814FB0000E91C00080000002054
:102F200002E008C8121F08C1002AFAD17047704792
:102F3000002001E001C1121F002AFBD170470000F0
:102F40002DE9FF4F8BB09A460F460546002606E056
:102F500025280BD052460D9990476D1C761C287879
:102F60000028F5D10FB0304600F0C6B80024A046C6
:102F70000122604900E0044315F8013F203B02FABA
:102F800003F00842F7D128782E2817D115F8010F41
:102F900044F004042A280ED06FF02F022878A0F104
:102FA000300109290AD808EB880102EB410100EB46
:102FB00001086D1CF2E757F8048B6D1C287869280E
:102FC0003ED006DC0028CDD063280BD0642804D185
:102FD00036E0732810D075284BD052460D99904793
:102FE000761C85E017F8040B8DF8000000208DF8A2
:102FF0000100E946012003E057F8049B4FF0FF3041
:1030000061074FF0000401D40AE0641C44450DDA66
:103010008442FADB19F804100029F6D106E0641C9A
:103020008442FCDB19F804100029F8D1264404E09E
:1030300019F8010B52460D999047641EF8D257E0DB
:1030400001CF4FF00A0B002802DA40422D2102E0A6
:10305000210504D52B218DF82410012103E0E1077F
:1030600005D02021F7E70DF1200908910CE000219F
:10307000F9E701CF4FF00A0BF9E75946FDF7FEF8E3
:1030800001F1300209F8012D0028F6D1ADEB09005D
:1030900000F1200B600701D44FF00108D84502DD94
:1030A000A8EB0B0000E000208046002406E009A801
:1030B0005246005D0D999047641C761C0898844226
:1030C000F5DB04E0302052460D999047761CB8F1AC
:1030D0000001A8F10108F5DC05E019F8010B5246E2
:1030E0000D999047761CBBF10001ABF1010BF4DCAC
:1030F0006D1C34E70928010030BCBDE8C08F00001A
:1031000010B5002821D0114B0022001F196803E0E0
:10311000814203D80A4649680029F9D152B113689F
:10312000841A9C4204D1006818441060104602E0E2
:10313000506000E0186039B102680B1A934203D165
:103140000B681A4402604968416010BD0400002009
:10315000F0B50B30154D20F007010024144A0FE0A4
:1031600003688B420BD38B4205D95E1A431847681C
:10317000C3E9006700E04368136002C004E0021D79
:1031800010680028ECD12046002802D1286808B138
:103190000020F0BD064A07481060074A121A22F0C4
:1031A0000702C0E9002401202860D7E708000020BA
:1031B0000400002074020020704200200149FEF744
:1031C00093BD00000000002010B5044601E0FEF7AA
:1031D0008BFD14F8010B04490028F8D1BDE810401C
:1031E0000A20FEF781BD0000000000200000000062
:1031F0000000000001020304060708090CFC120C81
:10320000FB170CFA1F0EFA1E0BFA1C08FB1E04FD1E
:103210001D00FE1E02FD2003FD1E08FD1C0AFC1DF4
:1032200007FB1E08FA2008FB2008FD1F09FD1F07E9
:10323000FD1E07FD1E07FD1F06FE1F07FD1F08FCE4
:103240001E09FE1E07FF1F07FD2006FB1F03FD1FB3
:1032500002FE1E03FE1D05FF1C06FD1D07FB1E0BC7
:10326000FB1C0BFB1B0AFA1C09FB1C04FC1C07FDC6
:103270001C0AFD1C09FD1C0AFD1C08FC1D06FB1D8B
:1032800007FB1E06FC1E06FC1E07FC1D08FC1C0896
:10329000FB1C07FB1C07FC1C07FC1D08FC1E0BFC91
:1032A0001E09FC1C07FD1905FD1904FD1B06FC1C6D
:1032B00007FC1C07FC1C07FB1D08FC1D08FC1D0768
:1032C000FE1D07FD1C08FC1B08FB1C08FC1C08FC61
:1032D0001D09FB1C09FB1C0AFC1D0BFC1E09FD1F24
:1032E00004FD2000FD2204FC2109FC2006FB200631
:1032F000FC2008FC2006FC2106FC2107FC2106FC22
:103300002007FC2006FC2006FC1F07FC1F06FC20F3
:1033100007FC2007FC1F06FC1F07FC1E07FC1F07FD
:10332000FC1F07FC1F07FC1F07FC1F07FC1F07FCF7
:103330001F07FC1F07FC1F07FC1F07FC1F07FC1FC4
:1033400007FB1F07FC1F07FC2007FD2006FD2007C9
:10335000FD2007FD2007FD2007FD2007FD2007FDBC
:103360002007FD2007FC1F07FC1F07FC1F07FC1F91
:1033700007FC1F07FD1F07FD1F07FD1F08FC1D079A
:10338000FE1D07FD1C08FC1B08FB1C08FC1C08FCA0
:103390001D09FB1C09FB1C0AFC1D0BFC1E09FD1F63
:1033A00004FD2000FD2204FC2109FC2006FB200670
:1033B000FC2008FC2006FC2106FC2107FC2106FC61
:1033C0002007FC2006FC2006FC1F07FC1F06FC2033
:1033D00007FC2007FC1F06FC1F07FC1E07FC1F073D
:1033E000FC1F07FC1F07FC1F07FC1F07FC1F07FC37
:1033F0001F07FC1F07FC1F07FC1F07FC1F07FC1F04
:1034000007FB1F07FC1F07FC2007FD2006FD200708
:10341000FD2007FD2007FD2007FD2007FD2007FDFB
:103420002007FD2007FC1F07FC1F07FC1F07FC1FD0
:1034300007FC1F07FD1F07FD1F07FD1F08FD1F08D5
:10344000FD2007FD1F07FD1D07FC1E07FC1E07FCD6
:103450001E07FB1E07FB1E07FB1D07FB1D07FB1DB1
:1034600007FC1D07FC1E07FC1E07FC1E07FD1E07B0
:10347000FD1E07FC1E07FC1D07FC1D07FC1D08FDAB
:103480001D08FC1D07FC1D07FC1D07FC1D07FC1D7E
:1034900007FC1E07FC1E07FC1D07FC1C07FC1C0884
:1034A000FC1C08FC1C08FC1C07FC1D07FC1D07FC81
:1034B0001D07FC1D07FC1E07FC1E07FC1E07FC1E4B
:1034C00007FC1E07FC1E08FC1D08FC1C07FC1D0752
:1034D000FC1D07FB1D07FB1D07FB1E07FB1E07FB53
:1034E0001D07FC1D07FB1D07FB1D07FB1E07FC1F1F
:1034F00007FD2008FD2008FC1E07FB1C08FD1F0817
:10350000FD2007FD1F07FD1D07FC1E07FC1E07FC15
:103510001E07FB1E07FB1E07FB1D07FB1D07FB1DF0
:1035200007FC1D07FC1E07FC1E07FC1E07FD1E07EF
:10353000FD1E07FC1E07FC1D07FC1D07FC1D08FDEA
:103540001D08FC1D07FC1D07FC1D07FC1D07FC1DBD
:1035500007FC1E07FC1E07FC1D07FC1C07FC1C08C3
:10356000FC1C08FC1C08FC1C07FC1D07FC1D07FCC0
:103570001D07FC1D07FC1E07FC1E07FC1E07FC1E8A
:1035800007FC1E07FC1E08FC1D08FC1C07FC1D0791
:10359000FC1D07FB1D07FB1D07FB1E07FB1E07FB92
:1035A0001D07FC1D07FB1D07FB1D07FB1E07FC1F5E
:1035B00007FD2008FD2008FC1E07FB1C07FA1B075F
:1035C000FA1C07FC1E07FD2007FD2006FD1F07FC57
:1035D0001E07FC1D08FB1C08FB1C07FB1C07FB1D32
:1035E00007FC1F06FC1E07FC1F06FB1E06FA1D0734
:1035F000FA1D07FB1D07FB1E07FB1E07FB1F07FB32
:103600001F06FC1E07FC1E07FB1E07FC1E07FC1EF8
:1036100007FC1E07FC1E07FB1E07FC1F08FC1F08FB
:10362000FC1F07FC1F07FC1E07FC1F07FC1F07FCF5
:103630001F07FC1F07FC1E07FC1E07FB1D07FB1EC8
:1036400007FB1E07FB1E07FB1E07FB1D07FB1D07D5
:10365000FB1D07FA1C07FB1C07FB1C07FB1D07FBD8
:103660001D07FB1D07FB1E07FB1E07FB1E07FA1DA0
:1036700007FA1D07FB1D07FB1D07FB1D07FA1B07AC
:10368000FA1C07FC1E07FD2007FD2006FD1F07FC96
:103690001E07FC1D08FB1C08FB1C07FB1C07FB1D71
:1036A00007FC1F06FC1E07FC1F06FB1E06FA1D0773
:1036B000FA1D07FB1D07FB1E07FB1E07FB1F07FB71
:1036C0001F06FC1E07FC1E07FB1E07FC1E07FC1E38
:1036D00007FC1E07FC1E07FB1E07FC1F08FC1F083B
:1036E000FC1F07FC1F07FC1E07FC1F07FC1F07FC35
:1036F0001F07FC1F07FC1E07FC1E07FB1D07FB1E08
:1037000007FB1E07FB1E07FB1E07FB1D07FB1D0714
:10371000FB1D07FA1C07FB1C07FB1C07FB1D07FB17
:103720001D07FB1D07FB1E07FB1E07FB1E07FA1DDF
:1037300007FA1D07FB1D07FB1D07FB1D07FB1D07E8
:10374000FB1E06FB1E06FB1E07FA1E07FA1D08FAE3
:103750001D07FA1D07FA1D07FB1D08FB1D08FA1EB1
:1037600007FB1D07FB1D07FB1D07FA1D06F91C06BD
:10377000F91C07FA1C07FA1C07FA1C07FB1D07FBBC
:103780001D07FB1C06FA1C06FA1C07FA1D07FA1D8A
:1037900007FA1C07FA1D07FA1D07FA1D06FA1D068F
:1037A000FA1D07FA1D07FA1D07FA1D07FA1D07FA89
:1037B0001D06FA1D07FA1E07FA1E07FB1D06FB1C55
:1037C00007FB1C07FB1D07FB1E07FB1E07FA1D0757
:1037D000FA1D07FA1D07FA1D06FA1D07FA1D07FA5A
:1037E0001D07FA1D07FA1D07FA1D07FA1C06FA1C29
:1037F00007FA1C07FA1C07FA1B07FA1B07FB1D0731
:10380000FB1E06FB1E06FB1E07FA1E07FA1D08FA22
:103810001D07FA1D07FA1D07FB1D08FB1D08FA1EF0
:1038200007FB1D07FB1D07FB1D07FA1D06F91C06FC
:10383000F91C07FA1C07FA1C07FA1C07FB1D07FBFB
:103840001D07FB1C06FA1C06FA1C07FA1D07FA1DC9
:1038500007FA1C07FA1D07FA1D07FA1D06FA1D06CE
:10386000FA1D07FA1D07FA1D07FA1D07FA1D07FAC8
:103870001D06FA1D07FA1E07FA1E07FB1D06FB1C94
:1038800007FB1C07FB1D07FB1E07FB1E07FA1D0796
:10389000FA1D07FA1D07FA1D06FA1D07FA1D07FA99
:1038A0001D07FA1D07FA1D07FA1D07FA1C06FA1C68
:1038B00007FA1C07FA1C07FA1B07FA1B07FA1C0673
:1038C000FB1C06FB1D06FB1D06FB1D07FB1D07FB66
:1038D0001D07FB1D08FB1D07FA1D08FA1C07FA1C33
:1038E00007FA1C07FA1C07F91B07F91B07F91B0746
:1038F000F81B06F91B06F91B06F91B06F91B06FA4D
:103900001B06F91B06FA1B06FA1C06FA1C07FA1B13
:1039100007F91B07F91B07FA1B07FA1B07FA1B0716
:10392000FA1C07FA1C07FA1D07FA1D07F91C07F90C
:103930001C07F91C07FA1C07FA1C07FA1C07FA1CDB
:1039400007FA1C07FA1C07FA1C07FA1B07FA1B06E2
:10395000FA1B06FA1B06FA1C06FB1C07FB1D07FBDD
:103960001D07FA1D07FA1D07FA1C07FA1C07FA1DA6
:1039700007FA1D07FA1D07FA1C07FA1C07FA1C06AE
:10398000FB1C06FB1D06FB1D06FB1D07FB1D07FBA5
:103990001D07FB1D08FB1D07FA1D08FA1C07FA1C72
:1039A00007FA1C07FA1C07F91B07F91B07F91B0785
:1039B000F81B06F91B06F91B06F91B06F91B06FA8C
:1039C0001B06F91B06FA1B06FA1C06FA1C07FA1B53
:1039D00007F91B07F91B07FA1B07FA1B07FA1B0756
:1039E000FA1C07FA1C07FA1D07FA1D07F91C07F94C
:1039F0001C07F91C07FA1C07FA1C07FA1C07FA1C1B
:103A000007FA1C07FA1C07FA1C07FA1B07FA1B0621
:103A1000FA1B06FA1B06FA1C06FB1C07FB1D07FB1C
:103A20001D07FA1D07FA1D07FA1C07FA1C07FA1DE5
:103A300007FA1D07FA1D07FA1C07FA1C07FA1C07EC
:103A4000FA1C07FA1C07FA1B07FA1B07FA1C07FAED
:103A50001C07FA1C07FB1D07FB1D07FB1D07FB1DB1
:103A600007FA1C07FA1C07FA1C07FA1D07FA1D07BC
:103A7000FA1C06FA1C06F91C07F91B07F91B07FAC2
:103A80001C07F91C07F91C06F91C06FA1C07FA1C8E
:103A900007F91C06F91C07F91B06F91C07FA1C0696
:103AA000FA1D07FA1E07FB1D07FA1D08FA1E08FA81
:103AB0001D07FB1D07FB1D07FB1C07FA1C07FA1C53
:103AC00007FA1B07F91B07F91B07F91C07F91C0765
:103AD000F91C07FA1C07FB1C07FB1D07FB1E07FB55
:103AE0001E07FB1E07FA1E07FA1E07FA1D07FA1C1F
:103AF00007FA1C07F91C07FA1C07FA1C07FA1C072F
:103B0000FA1C07FA1C07FA1B07FA1B07FA1C07FA2C
:103B10001C07FA1C07FB1D07FB1D07FB1D07FB1DF0
:103B200007FA1C07FA1C07FA1C07FA1D07FA1D07FB
:103B3000FA1C06FA1C06F91C07F91B07F91B07FA01
:103B40001C07F91C07F91C06F91C06FA1C07FA1CCD
:103B500007F91C06F91C07F91B06F91C07FA1C06D5
:103B6000FA1D07FA1E07FB1D07FA1D08FA1E08FAC0
:103B70001D07FB1D07FB1D07FB1C07FA1C07FA1C92
:103B800007FA1B07F91B07F91B07F91C07F91C07A4
:103B9000F91C07FA1C07FB1C07FB1D07FB1E07FB94
:103BA0001E07FB1E07FA1E07FA1E07FA1D07FA1C5E
:103BB00007FA1C07F91C07FA1C07FA1C07FB1B076E
:103BC000FB1B07FA1C07FA1C07FA1C07FA1C07FA6A
:103BD0001C06FA1C06FB1D06FB1D07FA1D07FA1D35
:103BE00007FA1D07FA1D07FB1D07FB1D07FB1D0735
:103BF000FA1D07FA1C07F91C07F91C07F91C07F93D
:103C00001C07F91C07FA1C07F91B07F91A07FA1B0E
:103C100007FA1C07FA1C07FA1C07FA1D07FA1D070A
:103C2000FA1D07FA1D07FA1D07FA1D07FA1D07FA04
:103C30001C07FA1D07FA1D07FA1D07FA1D06FA1CD4
:103C400007FA1B07FA1C07FA1C07FA1C07FA1C06DE
:103C5000F91C06F91C07FA1D07FA1C07FA1C07FADB
:103C60001D07FA1D07F91C07F91B07F91B07F91BAC
:103C700006FA1C07FA1C07F91C06F91C07FB1B07B0
:103C8000FB1B07FA1C07FA1C07FA1C07FA1C07FAA9
:103C90001C06FA1C06FB1D06FB1D07FA1D07FA1D74
:103CA00007FA1D07FA1D07FB1D07FB1D07FB1D0774
:103CB000FA1D07FA1C07F91C07F91C07F91C07F97C
:103CC0001C07F91C07FA1C07F91B07F91A07FA1B4E
:103CD00007FA1C07FA1C07FA1C07FA1D07FA1D074A
:103CE000FA1D07FA1D07FA1D07FA1D07FA1D07FA44
:103CF0001C07FA1D07FA1D07FA1D07FA1D06FA1C14
:103D000007FA1B07FA1C07FA1C07FA1C07FA1C061D
:103D1000F91C06F91C07FA1D07FA1C07FA1C07FA1A
:103D20001D07FA1D07F91C07F91B07F91B07F91BEB
:103D300006FA1C07FA1C07F91C06F91C07F91C07F0
:103D4000F91C07F91C07F91B07F91B07F91B07F9F1
:103D50001B07F91B06F91C06F91C07F91D07F91CBE
:103D600007F91C07F91C07F91C07F91C07F91C07C0
:103D7000F91B07FA1B06FA1C06F91C06F91B07F9C2
:103D80001C07F91B06F91B06F91B06F91B06F91C93
:103D900007F91C07F91C07F91B06FA1B06FA1B0694
:103DA000F91B07FA1B08F91C07F91C07F91C07F98E
:103DB0001C07F91C06F91C06F91C06F91B07F91B60
:103DC00007F91B07F91B07F91B07F91B07F91C0764
:103DD000F91C07F91D07F91D07F91C07F91C07F95C
:103DE0001C07F91B07F91B07F91C07F91C07F91C2D
:103DF00007F91B07F91B07F91B07F91C07F91C0733
:103E0000F91C07F91C07F91B07F91B07F91B07F930
:103E10001B07F91B06F91C06F91C07F91D07F91CFD
:103E200007F91C07F91C07F91C07F91C07F91C07FF
:103E3000F91B07FA1B06FA1C06F91C06F91B07F901
:103E40001C07F91B06F91B06F91B06F91B06F91CD2
:103E500007F91C07F91C07F91B06FA1B06FA1B06D3
:103E6000F91B07FA1B08F91C07F91C07F91C07F9CD
:103E70001C07F91C06F91C06F91C06F91B07F91B9F
:103E800007F91B07F91B07F91B07F91B07F91C07A3
:103E9000F91C07F91D07F91D07F91C07F91C07F99B
:103EA0001C07F91B07F91B07F91C07F91C07F91C6C
:103EB00007F91B07F91B07F91B07F91C07F81C0773
:103EC000F91C07F91B07F91B07F91B07F91B07F971
:103ED0001C07F91C07F91C07F91B06F91B06F91C3E
:103EE00006F91C06F91D06F91C07F91C07F91C0741
:103EF000F91B07F91B07F91B07F91B07F91B07F942
:103F00001B06F91B06F91C07F91C07F91C07F91C0D
:103F100007FA1C07FA1C07FA1C07F91C07F91C070B
:103F2000F91B07F91C07F91D06F91C06FA1C07FA0C
:103F30001C07FA1C07FA1B07FA1B07FA1B07FA1BD8
:103F400007F91B07FA1B07FA1C07FA1C07F91C06DE
:103F5000F91C06F91C06F91C06F91C07FA1C06FADE
:103F60001C06F91C07F91C06F91C06FA1C07FA1CAA
:103F700006FA1D07FA1C07FA1C07FA1C07F81C07AB
:103F8000F91C07F91B07F91B07F91B07F91B07F9B0
:103F90001C07F91C07F91C07F91B06F91B06F91C7D
:103FA00006F91C06F91D06F91C07F91C07F91C0780
:103FB000F91B07F91B07F91B07F91B07F91B07F981
:103FC0001B06F91B06F91C07F91C07F91C07F91C4D
:103FD00007FA1C07FA1C07FA1C07F91C07F91C074B
:103FE000F91B07F91C07F91D06F91C06FA1C07FA4C
:103FF0001C07FA1C07FA1B07FA1B07FA1B07FA1B18
:1040000007F91B07FA1B07FA1C07FA1C07F91C061D
:10401000F91C06F91C06F91C06F91C07FA1C06FA1D
:104020001C06F91C07F91C06F91C06FA1C07FA1CE9
:1040300006FA1D07FA1C07FA1C07FA1C07FA1B07E9
:10404000FA1C07F91C06F91C07F91C07F91C06F9EC
:104050001C06F91C07F91C07FA1C07FA1C07FA1CB6
:1040600007FA1C07FA1C07FA1C07FA1C07FA1C07B8
:10407000FA1C07FA1C06FA1C06FA1C06FA1C07FAB8
:104080001D07FA1C07FA1C07FA1C07FA1C07FA1D81
:1040900006FA1D06FA1D07FA1C07FA1D07FA1D0786
:1040A000FA1D07FA1D07FA1D07FA1D07FA1C07FA81
:1040B0001C06FA1C07FA1C06FA1C07FA1D07FA1D53
:1040C00007F91D07FA1C07FA1C06FA1C06FA1C075A
:1040D000FA1C07FA1D07FA1D07FA1D07FA1D06FA52
:1040E0001D06FA1C07FA1C07FA1C07FA1C07FA1C23
:1040F00007FA1C07FA1D07FA1C07FA1D07FA1B0727
:10410000FA1C07F91C06F91C07F91C07F91C06F92B
:104110001C06F91C07F91C07FA1C07FA1C07FA1CF5
:1041200007FA1C07FA1C07FA1C07FA1C07FA1C07F7
:10413000FA1C07FA1C06FA1C06FA1C06FA1C07FAF7
:104140001D07FA1C07FA1C07FA1C07FA1C07FA1DC0
:1041500006FA1D06FA1D07FA1C07FA1D07FA1D07C5
:10416000FA1D07FA1D07FA1D07FA1D07FA1C07FAC0
:104170001C06FA1C07FA1C06FA1C07FA1D07FA1D92
:1041800007F91D07FA1C07FA1C06FA1C06FA1C0799
:10419000FA1C07FA1D07FA1D07FA1D07FA1D06FA91
:1041A0001D06FA1C07FA1C07FA1C07FA1C07FA1C62
:1041B00007FA1C07FA1D07FA1C07FA1D07FA1D0764
:1041C000FA1D07FA1D06FA1D07F91D07F91D07F963
:1041D0001D07F91C06FA1C06FA1C07FA1C07FA1B35
:1041E00007FA1B07FA1C07FA1C07F91C07F91C073A
:1041F000F91C07F91C07F91C07FA1C07FA1D07FA36
:104200001D06F91D06F91C07F91C06F91C07FA1C06
:1042100007FA1C07FA1C07F91D07F91E07F91D0705
:10422000FA1D07FA1D07FA1D07FA1D07FA1D07F9FF
:104230001C07F91C07F91D07FA1D07FA1D07FA1DCF
:1042400007FA1E07F91D06F91C06FA1C06FA1C07D8
:10425000FA1D06FA1C06FA1C06FA1D06FA1C07FAD5
:104260001C07FA1D07F91D07F91D07F91D07F91DA0
:1042700007F91D07F91C07F91C07F91D07FA1D07A7
:10428000FA1D07FA1D06FA1D07F91D07F91D07F9A2
:104290001D07F91C06FA1C06FA1C07FA1C07FA1B74
:1042A00007FA1B07FA1C07FA1C07F91C07F91C0779
:1042B000F91C07F91C07F91C07FA1C07FA1D07FA75
:1042C0001D06F91D06F91C07F91C06F91C07FA1C46
:1042D00007FA1C07FA1C07F91D07F91E07F91D0745
:1042E000FA1D07FA1D07FA1D07FA1D07FA1D07F93F
:1042F0001C07F91C07F91D07FA1D07FA1D07FA1D0F
:1043000007FA1E07F91D06F91C06FA1C06FA1C0717
:10431000FA1D06FA1C06FA1C06FA1D06FA1C07FA14
:104320001C07FA1D07F91D07F91D07F91D07F91DDF
:1043300007F91D07F91C07F91C07F91D06FA1D07E7
:10434000FA1D07FA1D07FA1C07FA1D06F91D06F9E2
:104350001D07F91E07F91E07F91D07F91D06F91DAE
:1043600006F91C06F91C07F91C07F91C07F91C07BC
:10437000F91D07F91D07FA1C07FA1B07FA1C07FAB3
:104380001C07F91C06F91C06F91C07F91C07F91C87
:1043900007F91D07F91C07F91C07F91C06F91C068B
:1043A000FA1C07FA1C07FA1C07F91C07FA1C07FA83
:1043B0001D06FA1C07F91C07F91C07F91C07F91D53
:1043C00007F91C06F91B07F91C07F91C06F91D065D
:1043D000F91D07F91C07F91C07F91B07FA1B06FA58
:1043E0001B06F91B07F91C07F91D07F91D07FA1D24
:1043F00007FA1C07FA1B07F91C07F91C06FA1D0728
:10440000FA1D07FA1D07FA1C07FA1D06F91D06F921
:104410001D07F91E07F91E07F91D07F91D06F91DED
:1044200006F91C06F91C07F91C07F91C07F91C07FB
:10443000F91D07F91D07FA1C07FA1B07FA1C07FAF2
:104440001C07F91C06F91C06F91C07F91C07F91CC6
:1044500007F91D07F91C07F91C07F91C06F91C06CA
:10446000FA1C07FA1C07FA1C07F91C07FA1C07FAC2
:104470001D06FA1C07F91C07F91C07F91C07F91D92
:1044800007F91C06F91B07F91C07F91C06F91D069C
:10449000F91D07F91C07F91C07F91B07FA1B06FA97
:1044A0001B06F91B07F91C07F91D07F91D07FA1D63
:1044B00007FA1C07FA1B07F91C07F91C06F91C0769
:1044C000F91C07F91C07F91C07F91C07FA1C07F966
:1044D0001C07F91C06F91C06F91C07F91C07F91C36
:1044E00007F91C07F91C07F91C07F91D07F91D0737
:1044F000FA1C07FA1C07F91C07F91C07F91C07F935
:104500001C07F91B07F91C06F91C06F91C07F91C06
:1045100006F91D06F91D06F91D06F81D07F81D060A
:10452000F81D06F91D06F91C06F91C06F91C07F909
:104530001C07F91C07F91C07F91C07F91C06F91CD4
:1045400006F91C06F91C07F91C06F91C06F91D06DC
:10455000F91D07F91C07F81C06F91C06F91C06F9D9
:104560001C06F91D06F91D06F91C06F81C06F81CA8
:1045700006F81C06F81D06F91C06F91C06F91C07AE
:10458000F91C07F91C07F91C07F91C07FA1C07F9A5
:104590001C07F91C06F91C06F91C07F91C07F91C75
:1045A00007F91C07F91C07F91C07F91D07F91D0776
:1045B000FA1C07FA1C07F91C07F91C07F91C07F974
:1045C0001C07F91B07F91C06F91C06F91C07F91C46
:1045D00006F91D06F91D06F91D06F81D07F81D064A
:1045E000F81D06F91D06F91C06F91C06F91C07F949
:1045F0001C07F91C07F91C07F91C07F91C06F91C14
:1046000006F91C06F91C07F91C06F91C06F91D061B
:10461000F91D07F91C07F81C06F91C06F91C06F918
:104620001C06F91D06F91D06F91C06F81C06F81CE7
:1046300006F81C06F81D06F91C06F91C07F91C07EC
:10464000F81C07F81C06F81C06F91B06F91C06F9ED
:104650001C06F91D06F81C07F81C06F81C06F81BBA
:1046600006F81C06F81C06F81C06F81D06F81D06C0
:10467000F91C06F91C06F81B06F71B06F71B06F7C4
:104680001B06F81A06F81A06F81B06F91B06F91C91
:1046900007F81C06F81C06F81C07F81D07F81D068D
:1046A000F81C06F81C06F81C06F81C06F81C06F890
:1046B0001C06F81C06F81C06F81C06F81D06F81D5A
:1046C00006F81D06F81D06F81C06F81C06F81C0660
:1046D000F81C06F81C06F81C06F81C06F81C07F85F
:1046E0001C07F81C06F81C06F81C06F81D07F81D28
:1046F00006F81D06F81C06F81C07F91D07F91C072B
:10470000F81C07F81C06F81C06F91B06F91C06F92C
:104710001C06F91D06F81C07F81C06F81C06F81BF9
:1047200006F81C06F81C06F81C06F81D06F81D06FF
:10473000F91C06F91C06F81B06F71B06F71B06F703
:104740001B06F81A06F81A06F81B06F91B06F91CD0
:1047500007F81C06F81C06F81C07F81D07F81D06CC
:10476000F81C06F81C06F81C06F81C06F81C06F8CF
:104770001C06F81C06F81C06F81C06F81D06F81D99
:1047800006F81D06F81D06F81C06F81C06F81C069F
:10479000F81C06F81C06F81C06F81C06F81C07F89E
:1047A0001C07F81C06F81C06F81C06F81D07F81D67
:1047B00006F81D06F81C06F81C07F91D07F91D0769
:1047C000F91D06F91D06F81D06F81D06F91C06F967
:1047D0001D06F91E06F91D06F91D07F81D06F81D30
:1047E00006F81D06F81C06F81C07F81C07F91C063D
:1047F000F91D06F91D06F91D06F91D06F91D06F934
:104800001D06F91D06F91D06F91D07F81D07F81DFF
:1048100006F81E07F81D06F91C07F91C06F91D0607
:10482000F91D06F91D06F91D06F91D06F91C06F904
:104830001C06F91D06F91D06F91D06F81D07F81DD1
:1048400007F81D07F91D07F91D07F91D07F91D07D1
:10485000F91D06F91D06F91D06F91D06F81E07F8D3
:104860001E07F91D06F91D06F91D06F91D06F91D9D
:1048700007F91D07F91E07FA1E06FA1E07F91D079C
:10488000F91D06F91D06F81D06F81D06F91C06F9A6
:104890001D06F91E06F91D06F91D07F81D06F81D6F
:1048A00006F81D06F81C06F81C07F81C07F91C067C
:1048B000F91D06F91D06F91D06F91D06F91D06F973
:1048C0001D06F91D06F91D06F91D07F81D07F81D3F
:1048D00006F81E07F81D06F91C07F91C06F91D0647
:1048E000F91D06F91D06F91D06F91D06F91C06F944
:1048F0001C06F91D06F91D06F91D06F81D07F81D11
:1049000007F81D07F91D07F91D07F91D07F91D0710
:10491000F91D06F91D06F91D06F91D06F81E07F812
:104920001E07F91D06F91D06F91D06F91D06F91DDC
:1049300007F91D07F91E07FA1E06FA1E06FA1F06DA
:10494000FA1E06F91E06F81D07F91D06F91D07F9DE
:104950001D07F91D06FA1D06F91D06F91E06F91EAA
:1049600006F91D07F91E07F91D07F91D07FA1D07AE
:10497000FA1D07FA1D07FA1D06F91D06F91D07F9AC
:104980001C06F91D06F91D06F91D06F91D07F91E7D
:1049900006F91E07FA1E07FA1E07FA1D06FA1D077A
:1049A000FA1D07FA1E07FA1E07FA1E07F91E06F976
:1049B0001E06F91F06F91F07FA1F07FA2007FA203B
:1049C00006FB2007FB2107FB2107FC2106FC200832
:1049D000FB1F09FB1E07FB1E05FC1F06FA1E08F83D
:1049E0001D08F71C07F71C05F71D04F71D06F81D29
:1049F00005F91E05F91D05F91D05F81D03F016043E
:104A0000EF1604EF1504EE1403EE1503EF1504F092
:104A10001504F11505F01506F01505F01504EF1550
:104A200004F01504F01503F01504F01504F0140457
:104A3000EF1304EE1304EF1304EF1304EE1204EE6D
:104A40001303EE1202EF1202EF1303F01405F01538
:104A500005F21603F31502F21504F01505EE140421
:104A6000ED1304EE1304EF1404EF1404F01404F037
:104A70001404EF1404EF1404EF1404EF1404EF1300
:104A800003EF1304F01305F01304EF1304F0130401
:104A9000EF1304EF1304EF1204EF1304EF1304EE0B
:104AA0001404EE1404EF1303EF1303EF1303EF13D7
:104AB00003EE1204EE1204EE1204EE1204ED1104E1
:104AC000ED1204EE1204EE1204EE1304EE1204EEE4
:104AD0001204EE1204EF1103EF1103F01004EF11B2
:104AE00004EF1103EE1103EE1104EF1204EF1204B0
:104AF000EF1304EF1204EF1203EE1203EE1203EEB3
:104B00001204EE1204EE1303EE1303EE1204EE127F
:104B100004ED1304ED1404EE1204EF1104EF12037C
:104B2000EF1203EF1204EF1204EF1204EF1104EF7F
:104B30001203EF1203EF1204EF1204EF1104EF124D
:104B400003EF1204EF1204EF1303EF1204EF120449
:104B5000EF1104EF1204EF1204EF1204EF1304EF4D
:104B60001204EF1204EF1204EF1203EF1203EF121C
:104B700003EF1203EF1204EF1304EF1304ED11041B
:104B8000ED1204EE1204EE1204EE1304EE1204EE23
:104B90001204EE1204EF1103EF1103F01004EF11F1
:104BA00004EF1103EE1103EE1104EF1204EF1204EF
:104BB000EF1304EF1204EF1203EE1203EE1203EEF2
:104BC0001204EE1204EE1303EE1303EE1204EE12BF
:104BD00004ED1304ED1404EE1204EF1104EF1203BC
:104BE000EF1203EF1204EF1204EF1204EF1104EFBF
:104BF0001203EF1203EF1204EF1204EF1104EF128D
:104C000003EF1204EF1204EF1303EF1204EF120488
:104C1000EF1104EF1204EF1204EF1204EF1304EF8C
:104C20001204EF1204EF1204EF1203EF1203EF125B
:104C300003EF1203EF1204EF1304EF1303EF130457
:104C4000EF1303F01203F01203EF1303EF1203EF5D
:104C50001204F01204F01304F01304F01304EF1321
:104C600004EF1303EF1304EF1304EF1304EF130423
:104C7000F01304EF1304EF1304EF1403EF1404EF25
:104C80001304F01304F01304EF1304EF1304EF14F0
:104C900003EF1404F01404EF1304EF1404EF1404EE
:104CA000EF1403F01503F01404F01404EF1304F0F0
:104CB0001304F01204EF1204F01304F01304F014C0
:104CC00004F01404EF1404EF1404F01404F01404BA
:104CD000F01404F01304F01304F01304F01304F0C0
:104CE0001304F01304EF1304F01404F01404F0158B
:104CF00004F01404F01304F01404F01403EF13048C
:104D0000EF1303F01203F01203EF1303EF1203EF9C
:104D10001204F01204F01304F01304F01304EF1360
:104D200004EF1303EF1304EF1304EF1304EF130462
:104D3000F01304EF1304EF1304EF1403EF1404EF64
:104D40001304F01304F01304EF1304EF1304EF142F
:104D500003EF1404F01404EF1304EF1404EF14042D
:104D6000EF1403F01503F01404F01404EF1304F02F
:104D70001304F01204EF1204F01304F01304F014FF
:104D800004F01404EF1404EF1404F01404F01404F9
:104D9000F01404F01304F01304F01304F01304F0FF
:104DA0001304F01304EF1304F01404F01404F015CA
:104DB00004F01404F01304F01404F01404F01404C8
:104DC000F01404F01404EF1404EF1404EF1304F0CF
:104DD0001304EF1404EF1404F01404F01304F0139C
:104DE00004F01304F01304F11404F01405F0140497
:104DF000F01404F01405F01404F01404F01304F09B
:104E00001304F01304EF1404F01404F01404F0136A
:104E100004F01304F01304F01304F01304F013046B
:104E2000F01404EF1404F01404F01404F01404F06B
:104E30001404F01404F11304F11304F11404F01435
:104E400004F01404F01404F01404F01404F0140436
:104E5000EF1404F01404F01404F01404F01304F03C
:104E60001304F01304F01404F01404F01404F11407
:104E700004F11404F11404F11404F01404F0140403
:104E8000F01404F01404EF1404EF1404EF1304F00E
:104E90001304EF1404EF1404F01404F01304F013DB
:104EA00004F01304F01304F11404F01405F01404D6
:104EB000F01404F01405F01404F01404F01304F0DA
:104EC0001304F01304EF1404F01404F01404F013AA
:104ED00004F01304F01304F01304F01304F01304AB
:104EE000F01404EF1404F01404F01404F01404F0AB
:104EF0001404F01404F11304F11304F11404F01475
:104F000004F01404F01404F01404F01404F0140475
:104F1000EF1404F01404F01404F01404F01304F07B
:104F20001304F01304F01404F01404F01404F11446
:104F300004F11404F11404F11404F01404F0130443
:104F4000F01404F01404F01404F01404F01404F049
:104F50001404F01405F01404F01404F01403EF1317
:104F600003EF1404EE1404EE1405EE1404EE130320
:104F7000EF1304EF1405F01405F11406F11307F113
:104F80001306F21305F21205F21205F01303F014E2
:104F900002F01503F21405F21403F01402EE1401EA
:104FA000ED1403ED1404EC1302EC1201EC1303EA0C
:104FB0001305E91305EC1305F01304F21503F217BA
:104FC00003F11703F11702F01600EF1600EE1602B8
:104FD000ED1606EC1506ED1503EE1601EE1602EDC4
:104FE0001603EC1703ED1703EE1703ED1503ED148D
:104FF00005ED1404EB1502EB1501EC1404F0130499
:10500000F01404F01404F01404F01404F01404F088
:105010001404F01405F01404F01404F01403EF1356
:1050200003EF1404EE1404EE1405EE1404EE13035F
:10503000EF1304EF1405F01405F11406F11307F152
:105040001306F21305F21205F21205F01303F01421
:1050500002F01503F21405F21403F01402EE140129
:10506000ED1403ED1404EC1302EC1201EC1303EA4B
:105070001305E91305EC1305F01304F21503F217F9
:1050800003F11703F11702F01600EF1600EE1602F7
:10509000ED1606EC1506ED1503EE1601EE1602ED03
:1050A0001603EC1703ED1703EE1703ED1503ED14CC
:1050B00005ED1404EB1502EB1501EC1402ED1204DE
:1050C000EE1105ED1103ED1302ED1501ED1403EEE4
:1050D0001204EE1105EE1105EE1203EE1402EE14A9
:1050E00002EE1403ED1304ED1203ED1102ED1102B3
:1050F000ED1202EC1103EC1103EC1203ED1103EDC0
:105100001203ED1103ED1004ED1103ED1103ED1188
:1051100003ED1103ED1103EE1003ED1003ED110388
:10512000ED1103ED1103ED1103ED1103ED1103EE8C
:105130001103EE1003EE1003EE1104ED1203ED1156
:1051400003ED1103ED1103EC1103EC1103EC11025B
:10515000EC1102EC1103ED1003ED0F03EC0F02EC68
:105160001003EC1003EC1003ED1003EE1003EE102F
:1051700003EE1104ED1103EE1102ED1102ED120424
:10518000EE1105ED1103ED1302ED1501ED1403EE23
:105190001204EE1105EE1105EE1203EE1402EE14E8
:1051A00002EE1403ED1304ED1203ED1102ED1102F2
:1051B000ED1202EC1103EC1103EC1203ED1103EDFF
:1051C0001203ED1103ED1004ED1103ED1103ED11C8
:1051D00003ED1103ED1103EE1003ED1003ED1103C8
:1051E000ED1103ED1103ED1103ED1103ED1103EECC
:1051F0001103EE1003EE1003EE1104ED1203ED1196
:1052000003ED1103ED1103EC1103EC1103EC11029A
:10521000EC1102EC1103ED1003ED0F03EC0F02ECA7
:105220001003EC1003EC1003ED1003EE1003EE106E
:1052300003EE1104ED1103EE1102ED1102EC120365
:10524000EC1203EC1103EC1103EC1203ED1303ED6C
:105250001303EE1402EF1402EF1303EE1205EE1126
:1052600005EE1104EF1202EE1202EE1203EC12032D
:10527000EC1103EC1204ED1305ED1208EB1009E933
:105280000E02EA11FDEC1602EC1709ED1805F015F7
:1052900004F01005ED1302EA1603EC1305EE1402F8
:1052A000EA1402E91302EB1402EC1303ED1403EE0B
:1052B0001403EE1402EF1503EE1504ED1402EC13C3
:1052C00003EC1204EE1405EF1504EE1402EE1501C2
:1052D000EE1502EB1503E81503E91402EB1503EDD7
:1052E0001503EE1502EE1502EF1601F01702F01786
:1052F00003F01705F11807F01606EF1302EC12037E
:10530000EC1203EC1103EC1103EC1203ED1303EDAB
:105310001303EE1402EF1402EF1303EE1205EE1165
:1053200005EE1104EF1202EE1202EE1203EC12036C
:10533000EC1103EC1204ED1305ED1208EB1009E972
:105340000E02EA11FDEC1602EC1709ED1805F01536
:1053500004F01005ED1302EA1603EC1305EE140237
:10536000EA1402E91302EB1402EC1303ED1403EE4A
:105370001403EE1402EF1503EE1504ED1402EC1302
:1053800003EC1204EE1405EF1504EE1402EE150101
:10539000EE1502EB1503E81503E91402EB1503ED16
:1053A0001503EE1502EE1502EF1601F01702F017C5
:1053B00003F01705F11807F01606EF1305EF1304B5
:1053C000ED1303EB1301E91300E81301EB1503EFF1
:1053D0001706F21806F21705F11503F01603F11778
:1053E00004F21704F01704EE1604EF1504EE14038C
:1053F000EC1202EC1303ED1203ED1301ED1401F0B6
:105400001502F31803F51901F21801F11906F11B41
:105410000BF31D09F61D05F71D05F51D06F31D0708
:10542000F21C05F21B02F21B04F11905F11903F13C
:105430001804F11803F01803EF1603EE1503EF1626
:1054400004F01703F01703F11705F01605EE160325
:10545000F01701F11903F01807F01806EF1804F01F
:105460001803F21904F01A06F01A05F21904F318D9
:1054700006F31706F11704EF1602EF1505EF1304F4
:10548000ED1303EB1301E91300E81301EB1503EF30
:105490001706F21806F21705F11503F01603F117B7
:1054A00004F21704F01704EE1604EF1504EE1403CB
:1054B000EC1202EC1303ED1203ED1301ED1401F0F5
:1054C0001502F31803F51901F21801F11906F11B81
:1054D0000BF31D09F61D05F71D05F51D06F31D0748
:1054E000F21C05F21B02F21B04F11905F11903F17C
:1054F0001804F11803F01803EF1603EE1503EF1666
:1055000004F01703F01703F11705F01605EE160364
:10551000F01701F11903F01807F01806EF1804F05E
:105520001803F21904F01A06F01A05F21904F31818
:1055300006F31706F11704EF1602EF1502EE150435
:10554000EF1504F01605F11605F11604F01604F037
:105550001703F01802F01803F01804EF1804EF18FE
:1055600004EF1804EF1705EF1704EF1803F0170303
:10557000F01603F11504F11504F11605F11705F104
:105580001705F11705F01704F01604F01604F016CD
:1055900004F01604F01504F01504EF1604F01604D8
:1055A000F01704F11604F01704F01704F01604F0D5
:1055B0001704F01704F01804F01804EF1704EF179D
:1055C00004EF1704EF1603F01704F01604F01704A5
:1055D000F01704F11604F11604F11504F11604F1A4
:1055E0001704F11704F11704F11704F11704F11768
:1055F00004F11604F11604F11604F11602EE150476
:10560000EF1504F01605F11605F11604F01604F076
:105610001703F01802F01803F01804EF1804EF183D
:1056200004EF1804EF1705EF1704EF1803F0170342
:10563000F01603F11504F11504F11605F11705F143
:105640001705F11705F01704F01604F01604F0160C
:1056500004F01604F01504F01504EF1604F0160417
:10566000F01704F11604F01704F01704F01604F014
:105670001704F01704F01804F01804EF1704EF17DC
:1056800004EF1704EF1603F01704F01604F01704E4
:10569000F01704F11604F11604F11504F11604F1E3
:1056A0001704F11704F11704F11704F11704F117A7
:1056B00004F11604F11604F11604F11605F11605AD
:1056C000F11604F11604F01604F01704F01704F0B4
:1056D0001804F11704F01704F01604F11604F1177A
:1056E00004F11804F11804F11704F01703F016047C
:1056F000F01604F01804F11803F21804F21804F17B
:105700001805F11805F11705F11704F11704F11642
:1057100003F11504F11603F11603F21603F1160353
:10572000F11704F01703F11703F11604F01705F051
:105730001704F01704F01604F01503F01503F01623
:1057400004F01604EF1704F01704F01704F117041F
:10575000F11704F11605F11605F11604F01704F01F
:105760001704F01604F01604EF1503F01603F016F4
:1057700003F01604F11605F01504F01405F11605F2
:10578000F11604F11604F01604F01704F01704F0F3
:105790001804F11704F01704F01604F11604F117B9
:1057A00004F11804F11804F11704F01703F01604BB
:1057B000F01604F01804F11803F21804F21804F1BA
:1057C0001805F11805F11705F11704F11704F11682
:1057D00003F11504F11603F11603F21603F1160393
:1057E000F11704F01703F11703F11604F01705F091
:1057F0001704F01704F01604F01503F01503F01663
:1058000004F01604EF1704F01704F01704F117045E
:10581000F11704F11605F11605F11604F01704F05E
:105820001704F01604F01604EF1503F01603F01633
:1058300003F01604F11605F01504F01404F0140436
:10584000F11505F11505F11505F11505F01604F131
:105850001604F11704F01604EF1604EF1504EF1503
:1058600004EF1503EF1504EF1504EF1504F015040C
:10587000F01504F01504F01504F01604F01504F00A
:105880001503F11603F11604F01604F01604F016D1
:1058900004F01503EF1503EF1504EF1504EF1404DE
:1058A000EE1404EF1404EF1403EF1403EF1503EFE9
:1058B0001504EF1504EF1304EF1304EF1404EF15B0
:1058C00004EF1504F01504EF1504EF1504EF1404AC
:1058D000EF1404EF1404EF1404F01403F01404EFB5
:1058E0001404EF1403EF1404EF1403EF1403EF1484
:1058F00003EF1403EF1403EF1304EF1404F0140484
:10590000F11505F11505F11505F11505F01604F170
:105910001604F11704F01604EF1604EF1504EF1542
:1059200004EF1503EF1504EF1504EF1504F015044B
:10593000F01504F01504F01504F01604F01504F049
:105940001503F11603F11604F01604F01604F01610
:1059500004F01503EF1503EF1504EF1504EF14041D
:10596000EE1404EF1404EF1403EF1403EF1503EF28
:105970001504EF1504EF1304EF1304EF1404EF15EF
:1059800004EF1504F01504EF1504EF1504EF1404EB
:10599000EF1404EF1404EF1404F01403F01404EFF4
:1059A0001404EF1403EF1404EF1403EF1403EF14C3
:1059B00003EF1403EF1403EF1304EF1404EF1404C4
:1059C000EF1403EF1404EF1404EE1404EF1404EFC7
:1059D0001404EF1404EF1404EF1404EF1404EF1490
:1059E00003EF1504EF1504EF1504EF1503EF15048D
:1059F000EF1504EF1504EF1504EF1404EF1504EF91
:105A00001404EF1404F01404F01503F01503F0155A
:105A100003F01504F01404F01504EF1503EF15035B
:105A2000EF1603EF1503EF1504EF1504EF1404EF61
:105A30001404F01504F01504F01504F01504F01525
:105A400004F01504F01504F01504F01604F0160423
:105A5000EF1504EF1504F01404F01504F01504F02C
:105A60001504F01504EF1504EF1504EF1504EF16F7
:105A700004F01604F01504F01504F01504EF1404F6
:105A8000EF1403EF1404EF1404EE1404EF1404EF06
:105A90001404EF1404EF1404EF1404EF1404EF14CF
:105AA00003EF1504EF1504EF1504EF1503EF1504CC
:105AB000EF1504EF1504EF1504EF1404EF1504EFD0
:105AC0001404EF1404F01404F01503F01503F0159A
:105AD00003F01504F01404F01504EF1503EF15039B
