:020000040800F2
:10000000B8710020D1010008B1150008A111000845
:10001000AD1500087D0200088919000800000000E5
:10002000000000000000000000000000F1160008C1
:100030008102000800000000E115000825170008F3
:10004000EB010008EB010008EB010008EB010008E0
:10005000EB010008EB010008EB010008EB010008D0
:10006000EB010008EB010008EB010008EB010008C0
:10007000EB010008EB010008EB010008EB010008B0
:10008000EB010008EB010008EB010008EB010008A0
:10009000EB010008EB010008EB010008EB01000890
:1000A000EB010008EB010008EB010008EB01000880
:1000B000EB010008EB010008EB010008EB01000870
:1000C000EB010008EB010008EB010008EB01000860
:1000D000EB010008EB010008EB010008EB01000850
:1000E000EB010008EB010008EB010008EB01000840
:1000F000EB010008EB010008EB0100080000000024
:10010000EB010008EB010008EB010008EB0100081F
:10011000EB010008EB010008EB010008EB0100080F
:10012000EB010008EB010008EB010008EB010008FF
:10013000EB010008EB010008EB010008EB010008EF
:10014000EB010008EB010008EB010008EB010008DF
:10015000EB010008EB010008EB010008EB010008CF
:10016000EB010008EB010008EB010008EB010008BF
:10017000EB010008EB010008000000000000000097
:10018000EB010008EB010008EB010008EB0100089F
:10019000EB010008EB010008000000000000000077
:1001A0000000000000000000EB010008EB01000867
:1001B000EB010008EB010008EB010008DFF80CD0B0
:1001C00000F04AF80048004719520008B8710020B2
:1001D0000648804706480047FEE7FEE7FEE7FEE7E1
:1001E000FEE7FEE7FEE7FEE7FEE7FEE7A1170008F1
:1001F000BD01000810B5431A934209D2831888182C
:1002000003E010F8011D03F8011D521EF9D210BDC4
:1002100040EA01039B0703D009E008C9121F08C088
:10022000042AFAD203E011F8013B00F8013B521E08
:10023000F9D210BDD2B201E000F8012B491EFBD269
:1002400070470022F6E710B513460A4604461946E1
:10025000FFF7F0FF204610BD064C074D06E0E068B2
:1002600040F0010394E8070098471034AC42F6D3FD
:10027000FFF7A8FFB8080408D8080408FEE7000044
:1002800070470000B0B5682005F048FA0446002821
:100290004FF0000008BFB0BD1A22227744F64D226D
:1002A00044F6F913C0F60002C0F6000304F1300171
:1002B000C4E90123012284F86400204604F14C05BE
:1002C00084F8482004F05AFC20622046294604F0B5
:1002D00055FC60622046B0BDB0B5044600F0F0F8B1
:1002E000054640F21000C2F200000068611C18BF11
:1002F000044400BF00F0E4F8401BA042FAD3B0BDB4
:100300002DE9F04F83B00C68002C00F0C48000F1A0
:10031000384241F6004740F2004E4FEAB222C4F69E
:100320000007C4F2010E01920822B8424FF0010505
:100330004FF000064FF000074FF0010808BF0722FA
:10034000009209E00C68043734FA08F208F1010859
:1003500006F1020600F09F80A8F1010905FA09FBE9
:1003600014EA0B0CEED04C6844F01004122C12D19D
:100370006FF0030202EA5904044407F01C050F223F
:10038000D4F820A002FA05F30A692AEA0303AA4076
:1003900001251A432262026803234C68B3406FEAC6
:1003A000030A9A4304F00303B3401A43122C026079
:1003B00014D805FA04F212F0061F0FD08268CB6839
:1003C00002EA0A02B3401A4382604268C4F300138F
:1003D00022EA0B0203FA09F31A434260C2688B68EF
:1003E00002EA0A02B3401A43E300C260AAD541F20E
:1003F0006003C4F202031A684FF6084A42F0010291
:100400001A601A68CFF6FF7A02F001020292029A8D
:1004100029F00302724452F80A3007F00C040F2549
:10042000A54023EA0509019B009D072B38BF1D4607
:1004300005FA04F444EA090342F80A30DEF8002021
:100440004B6842EA0C04DD0358BF22EA0C04CEF8E4
:100450000040DEF804209D0342EA0C0458BF22EA63
:100460000C04CEF80440DEF80820DD0242EA0C0459
:1004700040F20C4558BF22EA0C04CEF80840C4F202
:1004800001052A689B0242EA0C0458BF22EA0C04C8
:100490002C60012556E703B000F000B830BCBDE881
:1004A000C08F0000426928230A4208BF1823C150A8
:1004B000704700001823002A08BF2823C150704746
:1004C00041F2B410C2F200000068704740F2100020
:1004D00041F2B411C2F20000C2F2000100680A68E1
:1004E000104408607047000080B5032000F062F8F7
:1004F000002000F009F800281CBF012080BD00F09A
:100500002FF8002080BD0000B0B540F21001C2F20B
:100510000001096801B3044640F20C00C2F2000079
:100520004FF47A720068B2FBF1F1B0FBF1F000F029
:100530003DFD0F2C4FF001050CD858B94FF0FF309E
:1005400021460022002500F025F840F21400C2F2F6
:10055000000004602846B0BD01252846B0BD00005B
:1005600082B041F25800C4F20200816841F00101FA
:100570008160816801F0010101910199016841F0F8
:1005800080510160006800F080500090009802B037
:100590007047000070B514460D46064601F010FA8B
:1005A0002946224601F006F80146304601F010FACD
:1005B00070BD000080B501F01DFA80BD47F200005B
:1005C000C4F200000168322221F48041016040F24F
:1005D0000C01C2F20001096851434DF68362C4F276
:1005E0001B32A1FB0212012101EB924143694A1E19
:1005F0008A4203D213F400711146F7D140690321F6
:10060000800501EAE070704747F20000C4F2000084
:10061000016841F4804101607047000047F200002A
:10062000C4F20000016801F4C061B1F5806F0FBF32
:100630004FF48060D0F880004FF4007101EA400070
:100640007047000010B50C4647F21401C4F20001D7
:100650000968002801F4007004D0002808BFFFF7E3
:10066000D3FF05E020B1FFF7A9FF002818BF10BD98
:100670004EF61050CEF200000168012C21F004016A
:10068000016004BF30BF10BD40BF20BF20BF10BD00
:100690002DE9F047002800F0B08042F20008C4F2D3
:1006A00002080446D8F800000D4600F00F0088420A
:1006B0000DD2D8F8000020F00F002843C8F8000041
:1006C000D8F8000000F00F00A84240F09680207893
:1006D00041F2080AC007C4F2020A0CD14FF0000927
:1006E0002068810728D4B9F1800F2DD1DAF80010E5
:1006F00021F0F00126E0606800286AD0022870D05E
:10070000032876D15AF8080C800176D500F06AFFEC
:100710004BF20041C0F2C44188420AD9DAF8000025
:1007200010F0F00F74D02078800702D5A068002860
:100730006ED04FF0000974E0DAF80010A26821F0E2
:10074000F0011143CAF80010D8F8001001F00F01B1
:10075000A9420CD9D8F8001021F00F012943C8F89C
:100760000010D8F8001001F00F01A94245D141074F
:1007700007D5DAF80010E26821F4E0611143CAF805
:100780000010000708D5DAF80000216920F4605055
:1007900040EAC100CAF8000000F0D8F8DAF800100A
:1007A00046F23822C1F30311C0F60002515C40F258
:1007B0000C0201F01F0120FA01F140F21400C2F214
:1007C00000000068C2F200021160FFF79DFEBDE864
:1007D000F0875AF8080C80075CBF0120BDE8F0875D
:1007E0000EE05AF8080C80035CBF0120BDE8F087DA
:1007F00006E05AF8080C400502D40120BDE8F08755
:1008000000F0A4F84BF20041C0F2C441884290D9F4
:10081000DAF80000082161F307104FF08009CAF8E8
:100820000000DAF80000616820F003000843CAF80D
:100830000000FFF745FE064641F28837DAF800006F
:10084000616800F00C00B0EB810F3FF449AFFFF797
:1008500037FE801BB842F1D90320BDE8F0870000C5
:1008600070B541F20005C4F20205286840F00100AD
:100870002860FFF725FE04462868800706D4FFF7A6
:100880001FFE001B0228F7D9032070BD286806212F
:1008900061F3071028600020A86040F21400C2F243
:1008A000000040F20C01006840F60012C2F20001A4
:1008B000C0F23D020A60FFF727FE00281CBF01209E
:1008C00070BDFFF7FDFD044641F28836A86810F0C0
:1008D0000C0F06D0FFF7F4FD001BB042F6D9032041
:1008E00070BD28684FF2FF41CEF6FE210840286017
:1008F000FFF7E6FD044600BF286810F0285F06D029
:10090000FFF7DEFD001B0228F6D9032070BD002092
:10091000E860E96841F48051E9602861296941F49F
:10092000805129616861696941F480516961296870
:1009300021F4802129604FF0FF31A8612962D5F8A8
:10094000941041F40001C5F8941070BD41F20C01FF
:10095000C4F2020151F8040C10F00C02086805D032
:100960000C2A40D100F0030001283CD151F80C0CB6
:10097000000703D4D1F88800000A02E051F80C0CFB
:1009800000094EF2486300F00F00C0F6030353F86D
:100990002030002A184618BF00200C2A18BF7047C4
:1009A000086800F00300022806D0032804BF41F2C3
:1009B0000023C0F27A0303E042F20043C0F2F403E2
:1009C00008680A68C0F30310C2F306220968013000
:1009D0005A43B2FBF0F0C1F34161022202EB410144
:1009E000B0FBF1F07047042A07D0082A0BD141F27E
:1009F00000200023C0F27A00CFE742F2004000233B
:100A0000C0F2F400C9E700200023C6E72DE9F04357
:100A100081B0002800F0728141F200060446C4F261
:100A20000206B068F168227800F00C08D00601F0E8
:100A300003071CD42078C00700F0E980B8F1080F44
:100A400045D0B8F10C0F08BF032F40D06568B5F54D
:100A5000A02F00F0B780B5F5803F00F0B780306878
:100A600020F480303060306820F48020B1E0B8F1AC
:100A7000000F1DD0B8F10C0F08BF012F18D0A169CD
:100A8000306800297AD040F001003060FFF718FD8F
:100A9000054600BF3068800700F18280FFF710FD37
:100AA000401B02284FF00300F4D901B0BDE8F083E9
:100AB0003068800703D5A069002800F01F81206AF4
:100AC000316809070CD4D6F89410090909E0306898
:100AD000800340F19C806068002840F098800DE120
:100AE000316801F0F001884216D900F0BDFD002800
:100AF00040F00481306840F0080030603068D4E98C
:100B0000072120F0F00008433060706820F47F4037
:100B100040EA0220706014E0316841F00801316061
:100B2000316821F0F001014331607168E26921F41C
:100B30007F4141EA0221716000F096FD002840F0FB
:100B4000DD80FFF703FFB16846F23822C1F30311DD
:100B5000C0F60002515C40F20C0201F01F0120FAC5
:100B600001F140F21400C2F200000068C2F200027B
:100B70001160FFF7C9FC002897D15BE720F0010066
:100B80003060FFF79DFC0546306880077FF552AF67
:100B9000FFF796FC401B02284FF00300F4D984E7CE
:100BA000306840F0080030603068D4E9072120F058
:100BB000F00008433060706820F47F4040EA022073
:100BC000706037E7306840F480203060306840F46F
:100BD00080303060FFF774FC002D054614D000BF54
:100BE0003068800313D4FFF76BFC401B64284FF080
:100BF0000300F5D959E700BFFFF762FC401B6428EA
:100C00004FF003003FF651AF30688003F4D42078F2
:100C100080072BD5B8F1040F1BD0B8F10C0F08BF1B
:100C2000022F16D0E1683068002900F0468140F4B8
:100C300080703060FFF744FC054600BF3068400517
:100C40000DD4FFF73DFC401B02284FF00300F5D9FF
:100C50002BE73068400502D5E06800284ED0706868
:100C6000216920F0FE4040EA0160706020780007B2
:100C700048D4207840075ED42078800600F1918027
:100C8000A06AB8B3B8F10C0F40F0B980012835D094
:100C9000F068E16A00F003028A422FD1226B6FF004
:100CA0000F0300F0F00103EB0212914226D1616BB9
:100CB00000F4FE42B2EB012F20D1A16B00F078428C
:100CC000B2EBC16F1AD1E26B0023CFF6E07303EBF6
:100CD000025200F4C0016FF3140291420ED1216C54
:100CE0004FF07E4202EB016100F0C06001F07E41F6
:100CF000884203D1002001B0BDE8F083012001B09B
:100D0000BDE8F0836169D6F89400002963D040F013
:100D10000100C6F89400FFF7D3FB0546D6F894000F
:100D20008007A6D4FFF7CCFB401B0228F6D903208E
:100D300001B0BDE8F083B06D10F0805908D1B06DFE
:100D400040F08050B065B06D00F080500090009889
:100D500047F20007C4F200073868C00511D43868AC
:100D600040F480703860FFF7ABFB05463868C0057B
:100D700007D4FFF7A5FB401B02284FF00300F5D96D
:100D800093E6A568052D64D0012D68D0D6F89000B3
:100D900020F00100C6F89000D6F8900020F0040082
:100DA00061E0616AD6F8980000293DD040F001006A
:100DB000C6F89800FFF784FB054600BFD6F89800F8
:100DC00080073FF55DAFFFF77BFB401B02284FF02C
:100DD0000300F3D969E620F00100C6F89400FFF79C
:100DE0006FFB0546D6F8940080077FF542AFFFF70A
:100DF00067FB401B02284FF00300F3D955E631682A
:100E0000022821F0807131606AD1FFF759FB054655
:100E10003068800140F18280FFF752FB401B0228BE
:100E20004FF00300F4D940E620F00100C6F8980026
:100E3000FFF746FB054600BFD6F8980080077FF510
:100E40001FAFFFF73DFB401B02284FF00300F3D913
:100E50002BE6D6F8900040F00400C6F89000D6F8D3
:100E6000900040F00100C6F89000FFF729FB002D2C
:100E7000054641F2883713D0D6F89000800713D486
:100E8000FFF71EFB401BB8424FF00300F4D90CE6FD
:100E9000FFF716FB401BB8424FF003003FF605AECC
:100EA000D6F890008007F3D4B9F1000F7FF4E4AED8
:100EB000B06D20F08050B065DEE620F480703060C8
:100EC000FFF7FEFA054600BF306840057FF5CEAE5D
:100ED000FFF7F6FA401B02284FF00300F4D9E4E5CF
:100EE000306810F0205F03D1F06820F00300F0605C
:100EF000F0684FF6FF71CFF6EE610840F060FFF743
:100F0000DFFA0446306880017FF5F4AEFFF7D8FAC7
:100F1000001B02284FF00300F4D9C6E5F06848F240
:100F20000C01C0F29D1104F12C0700EA010C8ECFD8
:100F30006FF00F00D4E90F5400EB02100022CFF63F
:100F4000E07241EA0C0102EB055208436FF3140210
:100F50004FF07E4540EA032005EB0465104305F0A1
:100F60007E4540EAC7602843F060306840F08070FA
:100F70003060F06840F08070F060FFF7A1FA04463E
:100F8000306880013FF5B6AEFFF79AFA001B0228E1
:100F90004FF00300F4D988E54EF21000CEF20000C5
:100FA000016841F0020101607047000080B500F067
:100FB000A1FB80BD4EF21000CEF20000016821F0CE
:100FC000020101607047000010B590F83C20012A32
:100FD0004FF002022AD0012380F83C3080F83D20F7
:100FE000026843F20043D2F804E0D2F808C0C4F229
:100FF00001039A4205D042F60043C4F201039A422B
:1010000004D14C682EF4700344EA030E0C682EF0F1
:101010007003896823432CF080042143536091605E
:101020000121002280F83D1080F83C20104610BDC0
:10103000002804BF0120704710B5044690F83D0019
:1010400028B9002084F83C00204600F00DF802206A
:1010500084F83D002068211D00F0CCFB012084F8BD
:101060003D00002010BD000081B0006840F6004146
:10107000C4F20001884201D001B0704741F258002B
:10108000C4F20200016841F008010160006800F04C
:1010900008000090009801B070470000014602204F
:1010A00081F83D00086807238268C0F201031A40F6
:1010B000062A06D0B2F5803F03D0026842F0010252
:1010C00002600122002081F83D20704710B50446DF
:1010D00090F83C0001284FF0020008BF10BD01222B
:1010E00084F83C2084F83D00206888238268CFF68D
:1010F000FE731A4082600A683F2A14DD5F2A18DDF9
:10110000602A28D0B2F5005F2DD0702A40D1D1E9F5
:10111000012CCB68614600F0FFFB2068816841F03C
:101120007701816034E01F2A0FDC92B1102A10D0C1
:101130002EE0402A23D0502A2AD14B68CA6819468B
:1011400000F0FEFB2068502120E0202A01D0302A48
:101150001ED111461AE04B68CA68194600F002FC1D
:101160002068602112E0D1E9012CCB68614600F0D3
:10117000D3FB2068816841F48041816008E04B68BE
:10118000CA68194600F0DCFB2068402100F0D0FB63
:10119000012084F83D00002084F83C0010BD0000D0
:1011A000FEE7000070B5044604F0CEFA46F248218E
:1011B00004EBC400C0F6000140F2600640F6E855BA
:1011C00001EBC01140F26400C2F20006C2F2000559
:1011D000C2F200004FF490623560FFF70BF828462A
:1011E00004F004FA41F2A0126FF07F000021C2F275
:1011F0000002002553569842BCBF18460D460131E7
:101200000629F7D1306804F08DF94EF2786140F28A
:101210005C00C0F60301C2F200000957056040F20D
:101220000800C2F2000000228D42027018BF70BD9B
:1012300040F21800C2F2000001680131016070BD87
:101240002DE9F04141F2A61740F260080C4605284E
:10125000C2F20007C2F2000800F2B780DFE800F037
:1012600003203D5A779404F029FB40F2485104EBE7
:101270004400C0F6030140F6706501EBC01140F276
:10128000E440C2F20005C2F200004FF4C072C8F898
:101290000050FEF7AFFF41F2A816C2F200068FE041
:1012A00004F092FB40F2485104EB4400C0F6030105
:1012B00040F6F86501EBC01140F26460C2F200052F
:1012C000C2F200004FF4C072C8F80050FEF792FF5F
:1012D00041F2AA16C2F2000672E004F0FBFB40F2F3
:1012E000485104EB4400C0F6030140F6807501EB61
:1012F000C01140F2E470C2F20005C2F200004FF4E7
:10130000C072C8F80050FEF775FF41F2AC16C2F289
:10131000000655E004F064FC40F2485104EB440040
:10132000C0F6030141F2080501EBC01140F664105C
:10133000C2F20005C2F200004FF4C072C8F80050BB
:10134000FEF758FF41F2AE16C2F2000638E004F094
:10135000CDFC40F2485104EB4400C0F6030141F2D9
:10136000900501EBC01140F6E420C2F20005C2F284
:1013700000004FF4C072C8F80050FEF73BFF41F286
:10138000B016C2F200061BE004F036FD40F24851F0
:1013900004EB4400C0F6030141F2181501EBC01143
:1013A00040F66440C2F20005C2F200004FF4C07281
:1013B000C8F80050FEF71EFF41F2B216C2F2000656
:1013C000284604F013F9308838806FF07F0100223E
:1013D000002000BFBB569942BCBF194610460132DF
:1013E000012AF7D0E0B1012820D140F25C004EF292
:1013F0007861C2F20000C0F603010068095740F2AC
:101400000802C2F2000288424FF0000010700DD1B5
:1014100040F21800C2F2000001680131016005E0ED
:1014200040F20800C2F2000001210170D8F800006B
:1014300004F078F8BDE8F08170B586B0002541F27F
:101440004C000595CDE90355CDE90155C4F20200E4
:10145000016840F2004441F0020101600068C4F6F6
:10146000000400F002000090009820464FF48141F3
:1014700000224FF48146FFF71DF80120CDE9020557
:1014800001A9204601960495FEF73AFF06B070BD0B
:10149000B0B588B040F21C0440F600400025C2F20E
:1014A0000004C4F200004FF0FF31C4E900052046FB
:1014B0000795CDE90555CDE90355CDE90155C4E9B9
:1014C00002512561A561FFF7B3FD4FF480500490F0
:1014D00004A92046FFF7FAFD01A9204601950395CE
:1014E000FFF772FD2046FFF7D9FD2068456208B07E
:1014F000B0BD00002DE9F04F81B005468C20984624
:1015000091468B4604F00AF9002840D0044600F1C9
:10151000480100F1640700F180061320207745F2AE
:10152000593045F2BD22C0F60000C0F60002C4E901
:1015300001020120DDF828A084F8600084F87C0016
:1015400084F88800204603F019FB206220463946C3
:1015500003F014FBBAF1010F606226612563A4F861
:1015600034B0C4F83690A4F83A8084F842A010D180
:101570004FF0FF3010FA85F101EBD17100EB15400F
:10158000490800EBD070A1874010012104E000243D
:1015900005E000200021A087E087A4F84010204645
:1015A00001B000F000B830BCBDE8C08FFEE700001D
:1015B0007047000000F0070080F00703042B28BFED
:1015C00004234FF0FF3C03380CFA03F338BF00202C
:1015D000994381400CFA00F022EA0000084370476A
:1015E0007047000041F20C00C4F20200016801F0F3
:1015F0000301012907D150F80C1C090705D4D0F8C4
:101600008810090A04E000210AE050F80C1C0909BE
:101610004EF2486201F00F01C0F6030252F82110A9
:10162000026802F00302022A06D0032A04BF41F234
:101630000021C0F27A0103E042F20041C0F2F4015D
:1016400002680368C2F30312C3F306230068013281
:101650005943B1FBF2F1C0F34160022202EB4000BA
:10166000B1FBF0F070470000B0B582B041F2580510
:10167000C4F2020529680446C9001AD4286840F05B
:1016800080502860286800F0805001900198FEF793
:10169000C5FF296821F080512960B0F5007F0DD089
:1016A0007F2C8FBF0220A4F17000B0FA80F04009B7
:1016B0000CE0FEF7B3FFB0F5007FF1D1812C04D32D
:1016C0000120A02C88BF022000E0002042F200018F
:1016D000C4F202010A6822F00F0202440A6009689B
:1016E00001F00F01081A18BF012002B0B0BD0000C0
:1016F00070470000B0B501380024B4EB106F1CBF78
:101700000120B0BD4EF21005CEF2000568604FF02A
:10171000FF300F2100F05CF90720AC602860204604
:10172000B0BD000080B5FEF7D1FE80BDF0B597B02A
:1017300001AD04460026284644211696CDE91466DC
:10174000CDE91266FEF77DFD42F20000C4F2020010
:101750000168032767F303010160FFF781F8102098
:10176000602101900120CDE9086102210790CDE9B7
:101770000B100D9060080E9007200F900420109021
:1017800028461191FFF742F90F20CDE9120712A860
:101790000421CDE914661696FEF77AFF17B0F0BD66
:1017A0004EF68850CEF2000001684FF0000C41F474
:1017B0007001016041F20001C4F202010A6842F0C6
:1017C00001020A60C1F808C00B684FF6FF72CEF63E
:1017D000F6221A400A604FF48052CA600A6822F466
:1017E00080220A60C1F818C04FF0006140F8801CE8
:1017F0007047000080B540F6FF330268C4F2000372
:1018000098420FDCB0F1804F1ED040F20043C4F28A
:101810000003984218D040F60003C4F20003984237
:1018200012D015E040F60043C4F2000398420BD0FA
:1018300043F20043C4F20103984205D042F600434C
:10184000C4F20103984203D14B6822F070021A439C
:1018500042F6FF33C4F20103984214DD43F6FF73EE
:10186000C4F2010398421ADD44F20003C4F20103FA
:1018700098422DD044F60003C4F20103984227D0C9
:1018800044F2004313E040F2FF73C4F200039842B5
:1018900012DCB0F1804F1BD040F2004314E042F65E
:1018A0000043C4F20103984212D043F20043C4F251
:1018B000010398420CD00FE040F60003C4F200038D
:1018C000984205D040F60043C4F20003984203D189
:1018D000CB6822F440721A434B6922F0800E8A686A
:1018E00043EA0E03D1F800C00360C262A0F1804257
:1018F000A2F596324FEAB222072AC0F828C007D8CC
:10190000012303FA02F212F0E50F1CBF096901631B
:101910000121416180BD0000D0F808C011432CF4C2
:101920007F4C41EA032141EA0C01816070470000CD
:10193000826822F07002114341F007018160704714
:10194000D0F820C0036A23F001030362836923F007
:10195000F00343EA02122CF00A0319438261016288
:1019600070470000036A23F0100303628369D0F814
:1019700020C023F4704343EA02322CF0A00343EA70
:101980000111826101627047FEE7000010F1800FD3
:10199000BCBF6FF07F0070477F28A8BF7F207047D3
:1019A00010F5004FBEBF48F20000CFF6FF70704741
:1019B00047F6FF718842B8BF0146084670470000ED
:1019C0004EF60C50CEF200000068C0F302207047C3
:1019D0004EF6145300F00F02CEF2000309011A4430
:1019E00000F16043B0F1FF3FC8BF03F564421170DE
:1019F000704700004EF60C51CEF200010A684FF617
:101A0000FF031A4060F30A2242F0806040F0FD704C
:101A10000860704700F0FC00042808BF0721084652
:101A20007047000080B50C2003F078FE45F6AD71DC
:101A3000C0F6000101600121017280BD00F10802C1
:101A4000002100BF13782BB10131082902F10C02EB
:101A5000F8D1082101EB4102083918BF00EB8201DF
:101A60000846704710B560B10168002908BF10BD75
:101A7000044640680028FBD1082003F04FFE606058
:101A800010BD002010BD000010B588B1016800290C
:101A900008BF10BD044680680028FBD11C2003F05D
:101AA0003DFEA06020B101466269A0684A6110BD98
:101AB000002010BD2DE9F04F87B09A0701D0FD201E
:101AC000C4E00546179801284FF0FD0040F0BE80A5
:101AD000169A012A40F0BA80139A012A40F0B68083
:101AE000129A012A40F0B280119A12F0010202BF4C
:101AF0001C46DDE9142352EA030240F0A780DDE929
:101B00001D271B9E10980690DAB3DDF8708007EB56
:101B1000840900200022049106E000BF059A1D9967
:101B2000013210B288422CDAB8F1000F0592F5D0DC
:101B300004994FF0000A00FB01FB002006E000BF03
:101B40000AF1010A0FFA8AF04045E7DA584400FB2F
:101B500004503946224602F027F807EB44074F4568
:101B6000EED119981E9F00901A9803960190109834
:101B7000119A189E39462346029601F00DFF06463B
:101B8000DEE71E9A0020974260D0119900295DD0AF
:101B90001A98012104F0030A01FA00F0AAF10103E6
:101BA0004FEA50084FEA940911FA83FCA2F1080E9B
:101BB00000214FF0000B0DE01A980BF1010B44FAD5
:101BC00000F0119A00F307000FFA8BF1914206F82A
:101BD000010B3ADA1898B9F1000F4156199801FA39
:101BE00000F101EB08041BD006987746031F494615
:101BF00053F8040F57F8085F2FFA90F22FFA80F08D
:101C000020FB05407C6801390D0422FB0404EFD160
:101C1000181D07F108010690BAF1000F04D1CBE7B7
:101C20001E99BAF1000FC7D006980239431E5746D5
:101C300013F9010F31F9022F013F3D0412FB00445B
:101C4000F6D1069860440690B6E7002040B207B08F
:101C500000F000B830BCBDE8C08F00002DE9F04FA7
:101C600093B00C46D10740F02E811C99C90740F073
:101C70002C812499002900F02C811190239822991D
:101C8000109001201D9F884040081646259D099010
:101C900007FB07F0704305EB40005200079000205F
:101CA0000021CDE901130D941292089608E000BFBF
:101CB000019824990130019000B2884280F2078196
:101CC0001F99002348431E99411A1D980FFA81F964
:101CD0000391084400210F90CDF8109007E000BF59
:101CE000DDE90491013124980BB28342E0DA0F98C8
:101CF000059148450B933DDD1F981E995843411AA5
:101D00001D98DDF80C800BB201EB000B0C910E93CB
:101D100008E000BF08F101080F980FFA88F90E9B40
:101D2000484527DD9B45F5DDDDF830A009FB04F7CC
:101D300018460BE028461146FEF783FA129A0AF17C
:101D4000010A0FFA8AF083451544E3DDA042B8BFCB
:101D5000A145EFDA4AEA080109B2B1F1FF3FE9DD36
:101D600038441199704301EB40012846FEF742FACE
:101D7000E4E700BF0B98C007B2D0DDF870B0BBF14C
:101D8000000F00F0958010981D99324600EB4B062D
:101D900001FB02F0259D414305EB4100DDF8089071
:101DA000904606904A0801F001004FF0000A0A90A0
:101DB000CDE90B2125E000BF229A109F4CFA02F0DA
:101DC00000F30F0027F8040B4EFA02F000F30F00A7
:101DD00027F8020C41FA02F0DDF870B000F30F00B2
:101DE0000C9926F8040B43FA02F00AF1020A0B9A46
:101DF00000F30F00DA4509EB4109109726F8020CB1
:101E000058D2209B09EB410B33F91A00DDF884C04E
:101E10004AF0010133F91130099F00FA0CF0C119A1
:101E200003FA0CF0130400EB070327D0DDF81C8045
:101E3000002710469E468C460E9600BF59F8072094
:101E4000EE595BF8074058F80750013822FB05119E
:101E500024FB0533259D22FB06CC24FB06EE020461
:101E600007F10407EAD108EB0702DDF82080DDE97D
:101E70000D46BB44E819B94404E000BF069A284661
:101E80008C469E460A9F002F96D039F9024BB0F936
:101E90000000BBF90050B2F9002010FB04CC12FB8B
:101EA00004110D9C15FB00EE12FB0533259D83E705
:101EB000259DB0461098129ADDE9049100EB4B0085
:101EC000464610900EE7FD2004E0FD2002E00020D1
:101ED00000E0002040B213B000F000B830BCBDE814
:101EE000C08F00002DE9F04F93B01446DA0740F0A0
:101EF00036811D9AD20740F03481299A002A00F0D9
:101F00003481DDE926C501221E46DDE91E3E02FAC6
:101F10000CF252082A9F08920EFB03F2109003FB6A
:101F200006F0724307EB420200FB0EF006920B90A4
:101F3000730000200022CDE90024CDE9113107967D
:101F400008E000BF0098299A0130009000B290424A
:101F500080F20981289A002AF4D0239A5043219ACA
:101F6000821A1F980FFA82F9104402920D900022F3
:101F70000020CDE9039010E00F9D1D982A9F05EBEE
:101F80004005DDE91131DDE90390019C5646013041
:101F9000049002B228988242D4DA0D980F954845F1
:101FA0000A923FDD2298DDF808805043209A851A76
:101FB0001E982AB205EB000B0C950E9208E000BFAC
:101FC00008F101080D980FFA88F90E9A484529DDA5
:101FD0009345F5DDDDF830A009FB01F510460CE076
:101FE00038461946FEF72DF9DDE911310AF1010AEB
:101FF0000FFA8AF083451F44E2DD8842B8BFA1454D
:10200000EEDA4AEA080109B2B1F1FF3FE8DD2844FF
:102010001099704301EB400138461A46FEF7EAF882
:10202000E2E700BF0A98C00704D10F9DDDE90390E5
:10203000ADE700BF1D9FB246002F9DD00F980B99B2
:1020400000EB47072A98DDF8709000EB41000590FF
:102050004E0801F00100002409900A9624E000BF18
:1020600026990E9C43FA01F000F30F0028F8040BA8
:102070004CFA01F000F30F0028F8020C42FA01F0CC
:1020800000F30F0027F8040B4EFA01F002340B990D
:10209000B4420A9E00F30F0009EB4109CDF83C80E1
:1020A00027F8020CBFF468AF249B09EB410B33F90E
:1020B0001400259944F0010233F91230089D88403C
:1020C000421903FA01F0330400EB050E0E942BD0F5
:1020D000DDF8A880DDF818A000253046F446134648
:1020E0000C9700BF59F8057058F805605BF805407B
:1020F0005AF80510013827FB063327FB012224FB81
:1021000006CC24FB01EE010405F10405EAD10AEB3B
:10211000050108EB0500DDF81CA01D9EDDF83C80E4
:102120000C9FAB44A94406E02A9805991D9EDDF852
:102130003C801346F446099D002D91D039F9024B9D
:10214000B0F90000BBF90050B1F9001010FB0433E6
:1021500011FB042215FB00CC11FB05EE80E7FD20EE
:1021600004E0FD2002E0002000E0002040B213B0B7
:1021700000F000B830BCBDE8C08F00002DE9F04F82
:102180008FB0032A40F091801FAC0F46824615CCD9
:102190001999002A0793099000F08980494301EBBF
:1021A00041000A9080B24FF0000B06900022002000
:1021B0002146059007E000BF05980130059002B266
:1021C0002098824274DA1B98002542431A98121A0A
:1021D00010B20B9019980892104400220E900BE058
:1021E000219C0A980C9D04EB800081424CD0013563
:1021F00020982AB28242DFDA0B9B0E980C95984207
:10220000EEDD1B98089C42431A98121A19980FFA8F
:1022100082F80D9216181A4605E000BF01340E9898
:1022200022B29042DCDD4645F8DDDDF834C002FB29
:1022300007F3C6460CE000BFC1F800B0A1F804B037
:102240000CF1010C0FFA8CFE764501F10601E5DD7B
:10225000BE45B8BFBA42EFDA4CEA04090FFA89F07A
:10226000B0F1FF3FE8DD0EEB030000EB40005AF851
:1022700000002FFA80F52FFA90F0C0EA05000D80DB
:10228000C1F80200DCE700BF1D98189A00901E9864
:10229000069B019009981C9E039007982146029680
:1022A00001F026FA21460990A1E7FD216CE02146C4
:1022B000A1424FF0000167D01898002864D01E9901
:1022C000012000FA01F14FEA51081999079B49438F
:1022D00001EB410202F0030A4FEA9209AAF101025E
:1022E00010FA82FCA4F1080E4FF0000B0EE000BFC4
:1022F0001E9818990BF1010B44FA00F08B450999CF
:1023000000F3070001F8010B09913CD01C981D99BE
:1023100010F90B005FEA094200FA01F000EB080433
:102320001CD01F1F76464A4657F8040F56F8085F20
:102330002FFA90F12FFA80F0C1EA2043C0EA014061
:102340007168013A20FB0540140423FB0104EBD122
:102350003B1D0836BAF1000F04D1C9E7219EBAF13E
:10236000000FC5D01D465A1E023E574612F9010FF6
:1023700036F9021F013F3B0411FB0044F6D12B4606
:1023800005EB0C03B4E7002148B20FB000F000B831
:1023900030BCBDE8C08F00002DE9F04F91B00C4675
:1023A0002199069308912299DDF88C901B9B0029B6
:1023B0000F901046109200F08180560003FB02F04F
:1023C00000FB03F106FB03F25A4389B2002009EB3C
:1023D0004202059100210992049106E00498229995
:1023E0000130049000B2884268DA1D990025484304
:1023F0001C99401A0FFA80F8079018440E9000209C
:10240000CDF828800CE000BF09980B9D814543D092
:10241000013522991B9BDDF8288028B28842DDDA3D
:102420000E990B954145EFDD1D99DDF81CA0484341
:102430001C99401A01B200EB030B0C900D9107E0C0
:102440000AF1010A0E980FFA8AF80D994045DBDD72
:102450008B45F5DD0C9D08FB04F7084609E000BF3D
:1024600048463146FDF7EDFE013528B28345B144BB
:10247000E6DDA042B8BFA045F2DA45EA0A0109B29A
:10248000B1F1FF3FECDDDDE90F12384400FB021033
:10249000494601F05FFBE7E71F98DDF88C9000905C
:1024A00020981A9A01900898059B039006981E9F01
:1024B0004946029701F01CF90890A9E72398DDF836
:1024C00020C081456AD01A98002867D02098012141
:1024D00001FA00F04FEA500810984FF0000B03FB90
:1024E00000F25A4302F0030AAAF1010311FA83F041
:1024F000109023984FEA9209A0F1080E0CE000BF5B
:1025000020981A9945FA00F000F307000BF1010B2F
:102510008B450CF8010B41D01E985FEA094310F976
:102520000B101F9801FA00F101EB080520D0069866
:102530007746031F494600BF53F8040F57F8086F4A
:102540002FFA90F42FFA80F0C4EA2042C0EA044047
:102550007C68013920FB06500D0422FB0405EBD1F9
:10256000181D07F108030690BAF1000F04D1C7E760
:10257000239BBAF1000FC3D00698023B411E574679
:1025800011F9010F33F9022F013F3C0412FB0055F2
:10259000F6D10698109908440690B1E7002011B0D2
:1025A00000F000B830BCBDE8C08F00002DE9F04F4E
:1025B00093B00F4627991292299ADDF8A8A00991A5
:1025C000DDE91E561C99002A0691109018461193B9
:1025D00000F084804FEA430808FB05F105FB03F097
:1025E000714300FB06F20AEB41010A9191B200200F
:1025F00007910021059106E0059829990130059081
:1026000000B288426ADA28990029F5D0239900247B
:1026100048432199401A02B2089030440F9000209C
:102620000B920BE00A980C9C824545D00134289906
:10263000DDE91E560B9A20B28842DDDA0F990C9420
:102640009142EFDD2299DDF820B0484320991646EB
:10265000401A01B200EB0509CDE90D0107E000BF0A
:102660000BF1010B0F980FFA8BF6B042DADD0E98E2
:102670008145F5DD0D9D06FB07F408E05046414617
:10268000FDF7DFFD013528B28145C244E8DDB842DF
:10269000F4DA12998E42F1DA45EA0B0109B2B1F18E
:1026A000FF3FEBDDDDE91012204400FB0210514634
:1026B00001F050FAE6E700BF2598DDF8A8A00090E9
:1026C00026981D9A01900998079B03901C98249EB8
:1026D0005146029601F00CF80990A7E72A98824526
:1026E00069D01D98002866D02698012101FA00F0D3
:1026F0004FEA500811984FF0000B05FB00F27243AF
:1027000002F0030A2A98AAF101034FEA920911FA8A
:1027100083FCA0F1080E0DE026981D990BF1010B2A
:1027200045FA00F08B45099900F3070001F8010B09
:10273000099140D024985FEA094310F90B102598BD
:1027400001FA00F101EB080520D006987746031F37
:10275000494600BF53F8040F57F8086F2FFA90F45A
:102760002FFA80F0C4EA2042C0EA04407C680139B4
:1027700020FB06500D0422FB0405EBD1181D07F1C8
:1027800008030690BAF1000F04D1C5E72A9BBAF1FD
:10279000000FC1D00698023B411E574611F9010FA8
:1027A00033F9022F013F3C0412FB0055F6D1069885
:1027B00060440690B0E7002013B000F000B830BCD1
:1027C000BDE8C08F2DE9F04F95B08A46910701D042
:1027D000FD20D7E21E99C90740F0958093460C93DF
:1027E000DDE91F32279FDDE92518002ACDE913B066
:1027F0000E9100F08A804FEA4B0603FB03F000FBCA
:102800000BF106FB03F25A4389B2002007EB4202A8
:10281000099100210B92059107E000BF05982099CE
:102820000130059000B2884271DAB8F1000FF5D09E
:102830002199002448432099401A02B20A90184472
:10284000129000200D920DE00B98DDF898800F9CFF
:10285000874247D00134DDF84CB01F9B0D9A20B25F
:102860004045DBDA12990F949142EDDD2199DDF8B4
:102870002880484320999346401A01B200EB03098F
:102880001090119108E000BF08F1010812980FFAAA
:1028900088FB11995845D7DD8945F5DD109D0BFB67
:1028A0000AF4084609E000BF38463146FDF7C9FC86
:1028B000013528B281453744E6DD5045B8BFD345E0
:1028C000F2DA45EA080109B24FF0FF329142EBDD3E
:1028D000DDE91321204400FB0210394601F064F9C0
:1028E000E6E700BF2398279F009024981E9A019046
:1028F0000E98099B03900C98229D3946029501F091
:102900004BF80E90A6E7FD203CE2002005900598CC
:1029100006B22098A8EB0000B04240F33C8103FBD4
:102920000BF14FEA4B0807914900099003FB03F0B4
:10293000069108FB03F1279A00FB0BF05943149B07
:1029400002EB410180B20D910A9007E00598013039
:10295000059006B20998B04240F31D812099049673
:10296000002961D0219800247043411A1F980AB2AF
:1029700008441290002008910B920AE00D980F9CD9
:1029800087423FD001342099149B0B9A20B2884291
:102990004BDA12990F949142F0DD2199089E484339
:1029A0002099411A1F980BB201EB000910461091B3
:1029B000119305E00136129930B2119B8142DDDDA1
:1029C0009945F7DD109D00FB0AF4184609E000BFA9
:1029D00038464146FDF735FC013528B2814547446C
:1029E000E8DD29B24FF0FF329142F1DD5045EFDAD8
:1029F0001499204400FB0B1039465A4601F0D4F8D4
:102A0000EAE700BF2398279F009024981E9A019020
:102A10000E980A9B03900C98229E3946029600F06D
:102A2000BBFF0E90AEE700BF0024099920B281429F
:102A300048DD2199049A5143209A8A1A1F9916B2A7
:102A40000B920A44CDE9106206E000BF01340999F7
:102A5000109E20B2814235DDB2420F9419DD2199DA
:102A60000B9D48432099401A12903046DDE90696A6
:102A70001299324600FB0A10394600FB0B301C4607
:102A800001F092F8119A013528B2234682424F4450
:102A9000EEDC0D980F9C8742D8D12398279F009099
:102AA00024981E9A01900E980A9B03900C98229EDF
:102AB0003946149D029600F06FFF119A2B460E9036
:102AC000C4E700BF269920B28842BFF63FAF2199E4
:102AD000049A5143209A8A1A1F9916B211440892F7
:102AE00012910B960CE000BF0D980F9C874241D0CD
:102AF00001342699149B0B9E20B28842BFF626AF64
:102B000012990F94B142EFDD219948432099411A5F
:102B10001F980AB201EB00093046089E10911192ED
:102B200006E000BF0136129930B2119A8142DBDD16
:102B30009145F7DD109D00FB0AF4104609E000BF47
:102B400038464146FDF77DFB013528B281454744B3
:102B5000E8DD29B24FF0FF329142F1DD5045EFDA66
:102B60001499204400FB0B1039465A4601F01CF81A
:102B7000EAE700BF2398279F009024981E9A0190AF
:102B80000E980A9B03900C98229E3946029600F0FC
:102B900003FF0E90ACE70598DDF8988000B2404541
:102BA00080F287801F9D4FEA4B0605FB05F106FB6F
:102BB00005F2279B01FB0BF16A4303EB420289B24A
:102BC0000B92099106E000BF05980130059000B214
:102BD00040456FDAB8F1000FF6D021990024484340
:102BE0002099401A02B20A902844129000200D92B7
:102BF0000CE000BF0B98DDF898800F9C874247D00F
:102C000001341F9D0D9A20B24045DDDA12990F94D0
:102C10009142EFDD2199DDF8288048432099144640
:102C2000401A01B200EB0509109011910AE000BFB3
:102C300008F1010812980FFA88F4DDF84CB01199E8
:102C4000A042D7DD8945F3DD109D04FB0AFB084651
:102C500009E000BF38463146FDF7F3FA013528B2E6
:102C600081453744E4DD5045B8BF5445F2DA45EAC2
:102C7000080109B24FF0FF329142EBDDDDE913218B
:102C8000584400FB0210394600F08EFFE6E700BF13
:102C90002398279F009024981E9A01900E98099BD4
:102CA00003900C98229D3946029500F075FE0E9017
:102CB000A6E71F9D279B00209F4263D01E990029F5
:102CC00060D0249805FB0BF201216A4301FA00F061
:102CD00002F0030A4FEA50081846AAF10103DDF892
:102CE00030B04FEA920911FA83FCA0F1080E0026D9
:102CF0000DE000BF24981E99013645FA00F08E427F
:102D00000E9900F3070001F8010B0E9139D02298BB
:102D10005FEA09438157239801FA00F101EB0805A6
:102D20001CD0ABF104037746494600BF53F8040FAB
:102D300057F8082F2FFA90F42FFA80F020FB02505A
:102D40007A6801390D0424FB0205EFD103F1040B6D
:102D500007F10801BAF1000F04D1CBE72799BAF1C6
:102D6000000FC7D0ABF101030239574613F9010F29
:102D700031F9022F013F3C0412FB0055F6D1E34428
:102D8000B8E7002040B215B000F000B830BCBDE894
:102D9000C08F00002DE9F04F97B09B469B0701D0F4
:102DA000FD20E1E216912199C90740F09880259D08
:102DB000DDF8B8902B9EDDE922732099002D079154
:102DC0001096CDE9142000F08C804FEA4B0505FBEE
:102DD00007F107FB0BF0594300FB03F209EB41013C
:102DE0000D9191B20B91002108911699002006E0F7
:102DF0000898259A0130089000B2904273DA2C9A14
:102E0000002AF5D0279A00245043259A821A239845
:102E100016B21044139000200C920E960AE000BFE8
:102E20000D980F9C814547D001342C9A0E9E20B2FC
:102E30009042DDDA139A0F94B242F1DD269ADDF862
:102E400030A05043249A821A229813B202EB000851
:102E50001192129308E000BF0AF1010A13980FFAC9
:102E60008AF6129BB042DBDD9845F5DD119C06FB2E
:102E700001F718460AE000BF48462946FDF7E1F988
:102E8000013420B216998045A944E5DD8842F3DA81
:102E900014998E42F0DA44EA0A0109B24FF0FF3287
:102EA0009142E9DD1599384400FB0B1049465A461A
:102EB00000F07AFEE4E700BF2998DDF8B8900090B2
:102EC0002A98219A019010980B9B03902098289F94
:102ED0004946029700F060FD16991090A4E7FD2086
:102EE00042E2002008900898259906B22D98401AD1
:102EF000B04240F34381229F239B4FEA4B0807FBDC
:102F00000BF2059008FB07F0099202FB03F1550054
:102F10002E9A584302EB40000F9088B20C9008980C
:102F20000E9507E0239B08980599013006B2B1423F
:102F300040F32781089024980696002864D02798AB
:102F400025997043401A02B20B9018441390002048
:102F500000240D920DE000BF0F98119C814541D0D7
:102F600001342499DDE92273DDE90D2520B2884280
:102F70004BDA139911949142EEDD2699DDF82CA0DD
:102F800048432499401A06B21290C519104606E02B
:102F90000AF1010A13990FFA8AF08142DCDDB54289
:102FA000F6DD1699129F00FB01F4304609E000BFE0
:102FB00048464146FDF745F9013738B28542C144DC
:102FC000E6DD39B24FF0FF329142F1DD16998842C9
:102FD000EEDA1599204400FB0B1049465A4600F0E2
:102FE000E3FDE9E72998DDF8B89000902A98219A46
:102FF000019010980C9B03902098289F49460297B7
:1030000000F0CAFC1090ABE700242C99249A20B25F
:103010008F1A874246DD2799069A0D975143259AC4
:10302000891A0AB20B440A910B92129307E000BF6F
:10303000DDE90D1501340B9A20B2814232DD934255
:10304000119418DD2699DDE9154748432499DDE9F7
:1030500009A6401A139010461399524600FB071018
:10306000494600FB0B4000F09FFD129B013630B239
:103070008342A944F0DC0F98119C8145D8D129984E
:10308000DDF8B89000902A98219A019010980C9B36
:1030900003902098289F4946029700F07DFC129BE0
:1030A0001090C5E72C9920B2229F8842BFF63AAF14
:1030B0002799069A5143259A8B1A23991AB21944D3
:1030C0000B9313910D920DE00F98119C814543D005
:1030D00001342C99DDE92273DDE90D2520B2884207
:1030E000BFF621AF139911949142EDDD2699DDF8D9
:1030F0002CA048432499401A06B21290C5191046D4
:1031000007E000BF0AF1010A13990FFA8AF0814221
:10311000DADDB542F6DD1699129F00FB01F4304668
:1031200009E000BF48464146FDF78BF8013738B249
:103130008542C144E6DD39B24FF0FF329142F1DD04
:1031400016998842EEDA1599204400FB0B10494687
:103150005A4600F029FDE9E72998DDF8B89000907B
:103160002A98219A019010980C9B03902098289FF0
:103170004946029700F010FC1090A9E7DDE92273A0
:1031800008982D99024600B2884280F284804FEA66
:103190004B05089205FB07F107FB0BF25A43594315
:1031A0002E9B03EB41010D9191B20B91169906E014
:1031B00008982D9A0130089000B290426BDA2C9A50
:1031C000002AF5D0279A00245043259A821A239882
:1031D00017B21044139000200C920E970AE000BF23
:1031E0000D980F9C814543D001342C9A0E9F20B23C
:1031F0009042DDDA139A0F94BA42F1DD269A0C9EC2
:103200005043249A821A229813B202EB00081192BA
:10321000129305E00136139837B2129BB842DFDDF6
:103220009845F7DD119C07FB01FA18460AE000BF3C
:1032300048462946FDF705F8013420B21699804525
:10324000A944E7DD8842F3DA14998F42F0DA44EAC0
:10325000060109B24FF0FF329142E9DD1599504461
:1032600000FB0B1049465A4600F09EFCE4E700BF05
:103270002998DDF8B89000902A98219A019010982A
:103280000B9B03902098289F4946029700F084FBEF
:1032900016991090A8E72E9B0020994564D021999B
:1032A000002961D02A98012101FA00F04FEA500864
:1032B0002298002600FB0BF22398DDF884B04243ED
:1032C00002F0030A1846AAF101034FEA920911FA23
:1032D00083FCA0F1080E0BE02A98109945FA00F043
:1032E00000F3070001365E4501F8010B10913AD05A
:1032F00028985FEA09438157299801FA00F101EB08
:1033000008051BD007987746031F494653F8040F5A
:1033100057F8082F2FFA90F42FFA80F020FB025074
:103320007A6801390D0424FB0205EFD1181D07F15D
:1033300008010790BAF1000F04D1CDE72E99BAF138
:10334000000FC9D007980239431E574613F9010FE1
:1033500031F9022F013F3C0412FB0055F6D10798CA
:1033600060440790B8E7002040B217B000F000B802
:1033700030BCBDE8C08F00002DE9F04F89B0DDE919
:103380001594DDE9137A884621461E46154600F05D
:103390000BFC0020B0EB960FCDE9005600F0AD809D
:1033A0000121B9404808059005F00300B308AE08B4
:1033B0000390A4F10800CE465246029004961FE006
:1033C0001399079B4BFA01F000F307000EF8040B6A
:1033D00049FA01F000F307000EF8030C44FA01F07B
:1033E00000F30700049E0EF8020C4AFA01F0013BBC
:1033F000043200F3070019040EF8010C00F07F807E
:1034000092F900101298079392F90130059F8140BC
:1034100001EB070B03FA00F192F9023001EB070907
:1034200003FA00F192F90330CC1903FA00F1002EEF
:1034300001EB070A08923DD0DDF808C0CDF818E08E
:10344000A8F11007B64600BF57F8101F5CF8083FF8
:103450007A682FFA91F82FFA81F1BD682FFA92F06D
:103460002FFA82F221FB03B128FB0398FE6822FBAE
:10347000034420FB03AADCF804302FFA95F02FFA5E
:1034800085F222FB031B20FB03892FFA96F02FFA0B
:1034900086F1AEF1010E21FB03445FEA0E4120FBF1
:1034A00003AAD1D1DDF818E0089A07F110080CF151
:1034B000080100E01699039800283FF481AFA8F1B5
:1034C00004078B1E014600BF17F9040F33F9026F82
:1034D00097F9015097F9022097F903C0013910FBC1
:1034E00006BB15FB069912FB064408041CFB06AA42
:1034F000EAD1089A07F1040862E7CE4652460198DD
:1035000010F003005AD09346139A012101FA02F2F7
:10351000F4464FEA520E009A02F0030A4FEA92096B
:10352000AAF1010211FA82F108911699083907915E
:103530000AE000BF1399013844FA01F101F30701D1
:1035400002040CF8011B39D01BF9011B129AB9F1C6
:10355000000F01FA02F101EB0E041BD00799A8F14C
:1035600004074A4657F8043F51F8086F2FFA93F5BD
:103570002FFA83F326FB03434C68013A160424FB1D
:103580000534EFD107F1040801F10802BAF1000F88
:1035900004D1CFE7169ABAF1000FCBD0A8F1010100
:1035A000023A534632F9025F11F9016F013B1F04E1
:1035B00016FB0544F6D108998844BBE7002009B002
:1035C00000F000B830BCBDE8C08F00002DE9F04F1E
:1035D00085B017460029064603930A4604914AD04F
:1035E0000020002206E000BF019A0499013210B2C7
:1035F000884240DA109901920029F5D004990E9A78
:1036000000FB01F900FB0118A9EB020200204FF0BA
:10361000000A029207E000BF0AF1010A10990FFAAE
:103620008AF08842E0DA0F9A00EB09010E9B01FB59
:10363000076500FB02F1C91A029B2C4600FB023011
:1036400058BF00FB0764039A049B1144994241460A
:10365000B8BF811801FB076B284621463A46FCF7A4
:10366000C9FD00BF3C445C45D6D2284621463A46B7
:1036700000F022FBF6E71098A0B31098DDF848B0F0
:1036800000FB07F904984FF0000807FB00FA002040
:1036900007E000BF08F1010810990FFA88F088428E
:1036A00020DA0F9909FB00B748430E993546401AB6
:1036B00058BF0AFB005503994A46084404998842BA
:1036C000A8BF08460AFB006438462946FCF792FD6D
:1036D0005544A542DED21FFA89F23846294600F049
:1036E000EBFAF5E705B000F000B830BCBDE8C08FDC
:1036F0002DE9F04F8EB0DDF868A0DDE918750026E1
:103700009C46B6EB520F0AEB020E0C93CDE900215A
:1037100000F0CD80540801EB4C020126069206FA17
:1037200007F2520807920CF003020492013A4FEAA2
:103730009C0816FA82F2083903920291CDF814809F
:1037400026E000BFDDF820A0DDF81480189F0235C8
:103750004EFA07F101F307010AF8021B46FA07F1D6
:1037600001F307010AF8011C44FA07F1DDF828E02B
:1037700001F30701099C0EF8021B49FA07F101F356
:103780000701013C0EF8011C2104604400F08F8009
:1037900095F90010179F95F90120079EB9408B19E4
:1037A00002FA07F1B8F1000F01EB0609CDE90AE5CD
:1037B000CDE908A448D0DDF808B0DDF818A0CE4661
:1037C000464619460D9300BF0C9A016850F802C096
:1037D0005BF8084F2FFA91F52FFA81F1C5EA2147DE
:1037E000C1EA05412FFA9CF52FFA8CF2C5EA22486E
:1037F000C2EA0542DAF8005021FB043C0D9B22FB93
:1038000004E421FB053122FB0599DBF80450DAF8CA
:10381000042027FB05C3DDF830C027FB0211013E61
:103820000D9128FB054E28FB0299043031040AF162
:10383000080AC9D10D9C0B9D049A764600EB0C0139
:103840000BF1080708E000BFDDF818A0019F049AFB
:1038500000EB0C014E461C469E46002A3FF472AF18
:10386000A0F1010CA1F1010BA7F10208AAF10207D6
:10387000154633461CF9012F38F9026F1BF901AFC9
:1038800037F9021F013D16FB02EE11FB02441AFB41
:1038900006332A0411FB0A99ECD10399DDF820A024
:1038A000DDF81480DDE90B5C1E4608444EE7DDF8C8
:1038B00000805FEAC87166D095F90010179A00265B
:1038C00091400122BA40B6EB9C0F01EB520936D071
:1038D000019F4FEA9C0104384FEA4C0CCB46CDF8CF
:1038E00028E000BF50F8045F57F80C802FFA95F6D7
:1038F0002FFA85F5C6EA2543C5EA06453E6807EB7B
:103900000C0E7C6825FB069625FB08B2DEF80450F9
:103910000139083723FB04690E0423FB052BE1D191
:10392000DDF830C0019707EB4C06189FDDF828E062
:10393000DDF8008004301CF0030107D117E0019985
:10394000CB4601EB4C061CF0030110D0019A013864
:10395000B31E961E10F9012F36F9024F33F902CF2C
:10396000013914FB02990C041CFB02BBF2D149FA89
:1039700007F000F307000AF8010B4BFA07F000F319
:1039800007008EF800000AEB08000EB000F000B847
:1039900030BCBDE8C08F00002DE9F04F8CB0189E00
:1039A00099461346002A00F0CD808846169A01EB0E
:1039B00049010491012101FA02F77A08059209F000
:1039C0000302571E11FA87F1F4184FEA990C01917E
:1039D000A8F10801002502920091CDF82C90CDF8B5
:1039E0000CC0CDE9068323E00A9EDDF80CC0DDE9BA
:1039F00008548A46169A02354BFA02F101F3070180
:103A000006F8021B4EFA02F101F3070106F8011C49
:103A10004AFA02F101F3070104F8021B47FA02F126
:103A200001F307019D42484404F8011C80F08A809C
:103A3000179ADDF854E0515745F00107D757059A1A
:103A400001FA0EF101EB020A07FA0EF1BCF1000FC8
:103A500011440A96CDE9085440D0DDF80080D346E1
:103A60005246DDF810A067468E460B460B99046857
:103A700058F8085F50F801C0DAF800102FFA84F601
:103A800026FB05BB26FB01292FFA8CF626FB05E554
:103A900026FB0133D8F80460DAF804102FFA94F406
:103AA00024FB06BB24FB01922FFA9CF4DDF82C903A
:103AB000013F24FB065E24FB0133043039040AF184
:103AC000080AD3D11F4608F10805029EDDE90683E6
:103AD000114600EB090476B986E700BFD346DDF84E
:103AE00010A0029E00EB090445468E460F4659463B
:103AF000002E3FF479AFA0F1010CA4F10109AC1E36
:103B0000AAF102058A4600BF1CF9011F34F9022FF1
:103B100019F9018F35F9023F013E12FB01BB13FB7E
:103B200001AA18FB02EE310413FB0877ECD10199CE
:103B3000DDE90A69DDF80CC0DDE90854DDE906833A
:103B4000084457E7F0180CB000F000B830BCBDE8EE
:103B5000C08F000010B50023B3EB920F16D04FEAD0
:103B6000920C0438083900BF50F8043FBCF1010C36
:103B70002FFA93FE2FFA83F3CEEA2344C3EA0E43CF
:103B800041F8083F4C60EFD10430083112F00302D5
:103B900008BF10BD0138023910F9013F013A21F880
:103BA000023FF9D110BD000010B50023B3EB920F16
:103BB00010D094080839043850F804CF013C2FFA8B
:103BC0008CF32FFA9CFE41F8083FC1F804E0F3D1D2
:103BD0000831043012F0030208BF10BD0239013869
:103BE00010F9013F013A21F8023FF9D110BD000060
:103BF00010B54FF0000CBCEB510F0FD04B08043840
:103C00004FF0011E50F8042F013B0EEAD234DCFACB
:103C100014F4A2431C040260F4D10430C90708BFA5
:103C200010BDB0F90010B1F1FF3FDCBF00210180F1
:103C300010BD000010B54FF0000CBCEB910F0FD081
:103C40008B0804384FF0013E50F8042F013B0EEA78
:103C5000D214CCFA14F4A2431C040260F4D1043050
:103C600011F0030108BF10BD002200BF90F9003021
:103C70000139B3F1FF3FD8BF02700B0400F101001E
:103C8000F4D110BD10B500224FF0000E8318D3F808
:103C900024C0BCF1000F06D00C3201EB0E04602AE8
:103CA000E6441C62F2D1002010BD000040F29311E6
:103CB000401A18BF012070472DE9F0410023B3EBF3
:103CC000920F37D04FEA920EA1F1040C5CF8044F2A
:103CD0000168260A27060B0A4FEA1448B7EB016F62
:103CE0000F464FEA06664FEA1145C8BF2746B6EBB6
:103CF000036F4FEA0866C8BF230AB6EB056F4FEAA9
:103D00002466C8BF250CB6EB216FC8BF214601F061
:103D10007F41ECB2FDB22944DBB241EA044141EA01
:103D20000321AEF1010E5FEA0E4340F8041BCDD132
:103D30000CF1040112F0030208BFBDE8F08100BFDE
:103D400091F9003090F90070013ABB42C8BF03708E
:103D50000130130401F10101F2D1BDE8F08100004E
:103D60002DE9F04F81B06E46002B4FF0010A18BFCD
:103D70001E460029CDF800A000F08F8091460F4626
:103D8000804640F2011B3D6A286848B105B300BF78
:103D90002868A9680069002928610D46F8D117E054
:103DA0002869A8B94846FDF749FE0446007A411C37
:103DB000E868217202F0B8F9042101F099FC616809
:103DC000884288BF014661602C6184F809A000BF69
:103DD000386A58B1816849B1016900295FD0497AD0
:103DE00001295ED180680028F6D100BFB968384645
:103DF00088474046394600F039FF3D6995B148464D
:103E0000FDF71CFE0446007A042101302072686828
:103E10002C6084F809A001F06BFC6168884288BFBF
:103E200001466160306801303060384602F090F839
:103E30007D6A002D00F08780A868B8BB6868A8BBC1
:103E4000386A017ED1B1297EC1B14846FDF7F6FD41
:103E500000287CD0A0F808B00446E86802F064F9B5
:103E6000042101F045FC6168884288BF0146786AF8
:103E700061600461384602F08BF801E00069286156
:103E8000384602F07BF8786A006800285DD0476900
:103E9000002F7FF478AF002004E0002002E0F8203B
:103EA00000E0F82040B201B000F055B8386A017E59
:103EB00011B3297E01B34FF0010A00BF286828B36F
:103EC0004846FDF7BBFD0028286142D0E86802F0B3
:103ED0002BF9042101F00CFC2C696168884288BF31
:103EE00001462846616001F00DFCAD682072002D8E
:103EF00084F809A0E2D109E0046928462C6101F0A8
:103F000001FC217A0844207201206072384602F0D8
:103F10003FF8384602F032F87C6A1CB90020C1E74D
:103F2000A46874B1254600BF28680028F8D041690C
:103F300040464A463346FFF713FF6D68002DF3D124
:103F4000EEE70020AEE70020ACE70020AAE7F9206A
:103F5000A8E7F920A6E730BCBDE8C08F2DE9F04303
:103F600081B00446006AE26C0168CB68597CC3608A
:103F7000002001F09BFBD4E90821C860D16802F061
:103F800049F8206A216DC0688968806809680268FC
:103F9000636A1144A26DDB6812686069891A9A68C5
:103FA000116030B1007AFDF735FD616AC968896832
:103FB0000860206A94F84860C068218ED0F80490A8
:103FC000E38EB9F80000B4F842503246009500F094
:103FD000F9FB616A3246D1F80C80D8F80450288089
:103FE000B9F80200618E238FB4F84470009700F096
:103FF000E9FB6880E06C012EA88014D1608EB4F8D3
:1040000044100138484300EBD0704008E087208E10
:10401000B4F842100138484300EBD0704008A08744
:104020000020A4F84000608E218EB9F80420484397
:1040300000FB02F52069A9004160404602F074F8D7
:1040400005FB00F10020A16201B0BDE8F083000093
:1040500010B50446806908B1002010BD206D00F045
:10406000E7FB606D00F0E4FB002010BD2DE9F04F90
:104070009DB0B0F844E0BEF1010F08D1B0F8427035
:10408000012F04D1036D1D7C002D00F08C80016A8E
:10409000C9688A7C102A40D1D1E90013476A199176
:1040A0005988FF681C911988D0E914651B9199887B
:1040B000C46D1A91816DD7E900871891818FB0F88E
:1040C00032A0B0F830B0B0F83EC01791038FC18E67
:1040D000B0F8420016912D683168367CBA88B7F87E
:1040E00002903F88CDE908E018980DF1300E8EE877
:1040F000410317988DE8061CCDE905031698DDE904
:104100001B210790DDE91903CDE90A54002410971B
:104110001194129400F0B6FD41E0D1E90013466A13
:1041200019915988F6681C911988D0E914541B918B
:104130009988C76D1A91816DD6E900961891818F83
:10414000B0F832A0B0F830B0B0F83E801791038FCD
:10415000C18EB0F842001691246829682D7CB2887F
:10416000B6F802C03688CDE908E018980DF1300E97
:104170008EE8211217988DE8060CCDE905031698F4
:10418000DDE91B210790DDE91903CDE90A47002489
:104190001096CDF810801194129400F0A3FE2046E2
:1041A0001DB000F067BA016AD1F80CA09AF812109D
:1041B00010294AD0082940F09D80DAF80460B588BB
:1041C000032D40F09980328871888A4240F09480B3
:1041D000B0F832C0028E944540F08E80C78F828F37
:1041E000974240F08980048FC28E944240F08480D0
:1041F0001A68D0F810E01B92426ADAF80080D268A0
:10420000D0E915A9C06DD2E900B6DEF800E0B288A9
:10421000DAF800A000880023B9F800907688DEF86C
:1042200000E00A931B9BCDE9002CCDE904A0404699
:104230002A46CDE9086ECDE90274CDF81890CDF884
:104240001CB0FDF79BFF0446A9E7DAF80460B188CB
:104250001C91C90740F02E81416ACA68D2F804B0A7
:10426000BBF804805FEAC87140F02481B6F800C052
:1042700071888C451B9140F05A81BBF80040BBF817
:104280000250AC4240F05381478E048EA74240F06A
:104290004E81C48F868FB44240F04981018FC68E13
:1042A000B14240F04481D0F810E0D3F800C0D0E92A
:1042B0001536C06DDEF800E0DAF800B01B68008843
:1042C000D2F8009000223688DEF800E00A92CDE9AC
:1042D0000241DDE91B12CDE9043058466346CDE9C1
:1042E000085ECDE900870696CDF81C90FDF7B6FC78
:1042F000044654E7002452E7A9071C955FD1416AA0
:10430000CF68D7F80490B9F80420D10757D11A9292
:104310003288718819928A421B9140F04381B9F822
:104320000060B9F80220964240F03C81B0F832E0DB
:10433000B0F830B0DE4540F03581C48F818F8C42BB
:10434000189140F02F81018FB0F836C0614540F0E0
:10435000298188461899CDE9164C0C43DAF80010EB
:10436000D0E9154C15911968D4F8009014910169A1
:10437000C06D0C680068DCF800C0D7F800A02168A8
:1043800008BFBEF1010F00F04681CDE908211A9A5D
:1043900016991FFA8CF780B2CDE9002E02AA82E8A6
:1043A0000203CDE9050715981B99149B00242A46A2
:1043B0000A94CDF81CA0FEF705FA0446EFE6328811
:1043C00071888A421B9138D1446AE7687C682688E4
:1043D0006588AE4231D1418E068EB1422DD1B0F802
:1043E0003E90868FB14528D1B0F83880C68EB04552
:1043F00023D1B4F804E00469D0E91526C06D126831
:1044000000882468DAF800B0D3F800C036883F6826
:1044100024680023CDE900E1CDE90420DDE91B1289
:104420000A9358466346CDE90854CDE902980696AA
:104430000797FDF7B1FF0446B1E6466ADAF80010C7
:10444000F6681A911968D0F81080446D876DB0F83D
:1044500032B0038EB0F83EE01892828FB0F838C0C8
:10446000B0F83690C06DD6E90065199124680188CE
:10447000D8F800806888B5F804A03F882D88D8F85F
:104480000080CDE908410CA981E8210100200F90AE
:104490001998CDE9033E1AAB8DE8010CCDE9052C46
:1044A000189A0BCBCDE90A76CDF81C90FEF77EF872
:1044B000044674E6DAF80010D0E915841B9171887F
:1044C000D0F85CA01A913188466A19911968F6688B
:1044D0001891D6E900B6438E018EC28FB0F83C9099
:1044E000B0F838C0C08E17911690B18870883688A1
:1044F000D8F80080CDE90F061898CDE908E78DE8D7
:104500000B00179803A981E8051216980DF1300EDB
:104510000790DDE91921DDE91B038EE8300800244E
:10452000CDE90A8A1194129400F0DCFC37E6DAF83F
:104530000010D0F810E01A91018ED0E91475D0E97E
:104540001646B0F832A01691CDF864C0B0F83EC05F
:10455000838F018FC08EDEF800E0189028683588C0
:1045600024883F681668BBF80290BBF800B0DEF8FC
:1045700000E0CDE908050AA880E8504A00200F9025
:1045800016981791CDE9030C179805931AAB8DE88F
:10459000800506900BCBDDE918720797FDF7A2FCAA
:1045A0000446FCE5DAF80010468E1891C18E048EA0
:1045B000B0F83EE0B0F83CA0B0F838B0179102690E
:1045C000D0E91551C06D2D68008812680988D3F8AC
:1045D00000803F68B9F802C0B9F800901268CDE9D0
:1045E00008500AA880E8821000200F901A98CDE9A0
:1045F0000D92CDE90106199ADDE91B13DDE917706B
:10460000CDF80080CDE9034ECDE905AB0797FEF765
:10461000C1FB0446C3E5BBF1010F7FF4B6AEB8F1B0
:10462000010F7FF4B2AE179C012C7FF4AEAE80B2C6
:1046300009901FFA8CF0CDE90A0A00200F90149817
:10464000CDE90C2600901A980E91CDE9010E16982E
:104650001B9904901898199ACDE905081598179F89
:104660002B46CDF82090CDF80CB00797FDF722FA35
:10467000044694E530BCBDE8C08F0000F0B583B0BF
:104680000546A42001F04AF8002849D0044600F16C
:10469000600100F17C0600F19807042020770120DA
:1046A00084F8780084F8940084F8A000204600F094
:1046B00065FA20622046314600F060FA606244F2FA
:1046C0006D00C0F6000043F65D7144F25102231DF7
:1046D000C0F60001C0F6000287C3A561A86804F116
:1046E0003006407C03281DD195F91C2001A801212A
:1046F00000F082FABDF808000199B080316095F9A8
:104700001E2001A8012101F07FFCBDF808000199DD
:104710006087C4F8361095F9222001A801211FE016
:1047200000244BE095F91C1095F91D2001A800F01C
:1047300063FABDF808000199B080316095F91E1048
:1047400095F91F2001A801F05FFCBDF80800019950
:104750006087C4F8361095F9221095F9232001A836
:1047600000F034F9BDF808000199A4F84600C4F837
:104770004210A86905F10807E06495F8240004F1E7
:10478000500C84F848008ECF01288CE80E00E765B5
:1047900014D1208EB4F842100138484300EBD07099
:1047A0004008A087608EB4F844100138484300EBFD
:1047B000D0704008E0870020A4F84000204603B0F5
:1047C000F0BD0000002804BF0020704718440138E5
:1047D000DDF800C0C1F10101012A18BF01FB0C0086
:1047E000B0FBF3F070470000B0B5016A04460868FA
:1047F000C068457CC86001F039FC024600202946AB
:1048000000F054FFD4E90821C860D16801F002FC2F
:10481000606950B1616A007AC96889680968FDF702
:10482000F9F8616AC968896808600020B0BD0000B5
:10483000002808BF704780B501F0A0FCBDE88040AB
:104840007047000070B584B0016A04460868C0680B
:10485000C86001F00BFC024600200121012600F097
:1048600025FF616AD4E90C32C860D2E90212ADF8C2
:104870000E3008250DF10E030096019501F018FC8D
:10488000206A616BC0688968806809680268636A29
:104890001144E26BDB6812686069891A9A681160DA
:1048A00030B1007AFDF7B6F8616AC96889680860B6
:1048B000206AC06801F038FC4100206A2269C068A3
:1048C000516001F031FC616A0546C968084601F093
:1048D0002BFC00FB05F10020A16204B070BD0000BC
:1048E00010B50446806908B1002010BD606BFFF769
:1048F0009FFFA06BFFF79CFF002010BD2DE9F04348
:1049000085B00446006A616BD4E90F32C06817882D
:104910001D88D0F80080D1F8009001F005FC616A94
:104920002269C968A46BD1E90013126824681B8846
:104930001668CDE9024182B240464946CDE900758C
:104940000496FEF719FD05B0BDE8F083F0B581B01F
:104950000546882000F0E2FEA0B3044600F14401C1
:1049600000F1600600F17C0708202077012084F820
:104970005C0084F8780084F88400204600F0FEF89B
:1049800020622046314600F0F9F8606244F6FD00EE
:10499000C0F6000044F6450144F6E102231DC0F6CE
:1049A0000001C0F6000207C3A868276101F05EFBA2
:1049B00005F1080320630FCB04F1340C8CE80F00E1
:1049C000A56100E00024204601B0F0BD80B50123C0
:1049D00001F016FB80BD0000002804BF00207047D6
:1049E000416A0968002908BF704700BF4869416AE9
:1049F00009680029FAD17047B0B584B0016A04464D
:104A00000868C068457CC86001F030FB02460020A1
:104A1000294600F04BFED4E90821C860D06801F0B7
:104A200083FBD4E90812ADF80E00CB68D568D3E952
:104A300002120120082400900DF10E032846019473
:104A400001F036FB002004B0B0BD0000002070472C
:104A500010B50446FBF716FC002818BF846110BD92
:104A6000B0B50446006AC068457C01F0FFFA024612
:104A70000020294600F01AFED4E90821C860D16858
:104A800001F0C8FA0020B0BDB0B5016AC46BC968B6
:104A90000D68084601F048FB024628462146FBF710
:104AA000A9FB0020B0BD000070B584B00546782099
:104AB00000F034FE044600284FF0000029D0022206
:104AC000227744F6892244F66123C0F60002C0F63C
:104AD000000304F14001C4E90123012284F87400B9
:104AE000204604F15C0684F8582000F047F8206264
:104AF0002046314600F042F860626868417C022935
:104B000009D001290CD140680121038802A80122A3
:104B10000BE000242FE0406801210288438803E075
:104B2000406801884288838802A801F069FABDF8CC
:104B30000C000299A0862163686801688268E163BD
:104B40001168D4F83220A163218ECDF80A20ADF887
:104B5000081001F08BFA024600200321032500F023
:104B6000A5FD226AA16BD060082602AB0022009549
:104B7000019601F0C3FA204604B070BD0246084613
:104B80004A61704770B5002808BF70BD044600E058
:104B9000ACB12546D4E9010430B100BF466801F04C
:104BA000EDFA002E3046F9D16869016A8D42EFD0E6
:104BB000406A8542ECD0284601F0E0FAE8E770BD93
:104BC00010B5002808BF10BD044600BFE06801F022
:104BD000ABFAA468002CF9D110BD000010B5002874
:104BE00008BF10BD044600BFE06801F0C7FAA46822
:104BF000002CF9D110BD000080B5012301F000FAAE
:104C000080BD0000002808BF704710B5C168044689
:104C100009B120468847207F022802D1206AFFF789
:104C2000DDFF606AFFF7DAFF206AFFF7ABFF606A1B
:104C3000FFF7A8FF606901F0A1FA204601F09EFA93
:104C4000BDE8104070470000B0B560B1416804464F
:104C500088476169054611B10A68084690470020F7
:104C6000E06268B2B0BDFF2568B2B0BD884207D02F
:104C7000026822B18842104608BF7047F8E7016019
:104C8000704700002DE9F04F9DB09946279B069193
:104C9000002B00F0218133992EAF0139B1FA81F157
:104CA0004909D0CF269B0291711E059111440491B0
:104CB000591E0C91023806990B9006FB09F04843E7
:104CC0004000179004FB09F04600DDE92A20289BEC
:104CD000013C4042214401900020DDF8B0800E915B
:104CE00003FB09F107900020169151421390002018
:104CF0000A94039112900EE00298129A13990244BA
:104D00002798013113918142299807991292014401
:104D1000079100F0E18036980028EDD0002009903E
:104D2000019808900AE000BF09993698013109916D
:104D300081422D98089901440891DDD035980028CA
:104D4000F2D02D98DDF824C02B990CFB00F0401A0E
:104D50000599049B2F9A091A181A91FBF2F190FBFE
:104D6000F2F3299821EAE17E8342C8BF03463298D4
:104D70001299002550F8210008991090359802FBEF
:104D80000E110CFB00F00F900798289A70445043C6
:104D90000D900698039A199300FB0124CDF844E086
:104DA00024E000BF109B21FA03F0C3F1200102FAB6
:104DB00001F10843B3F1200158BF42FA01F0FCF7BA
:104DC000EFFD0F99149D279A139B294401FB023193
:104DD000349ADDF8B08022F811003598159C013521
:104DE000309FDDF844E0854244449DD02A9905FB7C
:104DF00008F0431A0E982E99C01A90FBF1F02899EA
:104E00008842C8BF08468FB11399319A17F901C07B
:104E10001299329F52F8212057F821700CFA02F1B2
:104E20000122BA4001EB620108E000BF3299129AF8
:104E300051F82210012202FA01F14910199ACDE924
:104E4000145496454FEAE172ACDA0A9F0C9DFB1AA6
:104E50002E9FCDF870E093FBF7F323EAE37C0D9BE4
:104E600007FB0C47634409FB035A09FB07F30B9F3D
:104E7000CDF860C007EB430710E000BF169BDDF8DC
:104E80006CA01C9F9A44199B01371C979F42179B4B
:104E90001A9FDDF860C01F443FF484AF8445CDE91C
:104EA0001A7A07DBEAE700BF0CF1010CCA4484451B
:104EB0003744E3D0B9F1000FF6D03D46D6464C4614
:104EC00035F902BF1EF9018F08FB0BF3C91842EB3D
:104ED000E372013CF4D1E7E71DB000F000B830BC4C
:104EE000BDE8C08F2DE9F04F99B09B46239B0591FB
:104EF000002B00F00481DDE92E81DDE92AC60139AD
:104F0000B1FA81F14909229D0191711E0491114468
:104F10000391691E0B91013805990A9006FB0BF06D
:104F200048431590DDE92620249EACF10103194485
:104F300040422C9FDDF8A0E00D9106FB0BF10090A4
:104F40000020149151420CFB0BF6069000204FF00C
:104F500000090993029111900DE000BF0198119989
:104F60008144239801311191814225980699014489
:104F7000069100F0C48032980028EFD000200890FD
:104F80000098CDF8389007900AE000BF0899329851
:104F90000131089181422998079901440791DDD098
:104FA00031980028F2D02998DDF820C027990CFB11
:104FB00000F0401A0499039B2B9A091A181A90FBC7
:104FC000F2F3259891FBF2F18342C8BF0346319872
:104FD00021EAE17A0CFB00F007990F90069802FB9A
:104FE0000A11249A504450430C900598029A0024C8
:104FF00000FB01251793CDF840A01DE0DDF8B88037
:10500000DDF8389058F8290041FA00F0FCF7BEFCB2
:105010000F99129C239A119B214401FB0231309A73
:10502000DDF8A0E050543198139D01342C9FDDF839
:1050300040A084427544A9D0269904FB0EF0421A80
:105040000D982A99801A90FBF1F024998842C8BFE4
:1050500008466FB111992D9B795653F8293058F8AD
:10506000297099400123BB4001EB630106E000BFBA
:1050700058F82910012303FA01F14910179BCDE9D3
:1050800012459A45BADA099B0B9F9A1A2A9B92FB02
:10509000F3F222EAE27C0C9A03FB0C5362440BFB12
:1050A000027E0A9A55460BFB0329CDF858C00BE047
:1050B000149ADDF860E001359644179ADDF858C07F
:1050C0009542159A914499D08445CDF860E0EFDA85
:1050D0004A4605E00CF1010CDE4484453244E7D039
:1050E000BBF1000FF6D0174673465C4617F901AFC7
:1050F00013F9018F013C18FB0A11F7D1EAE719B047
:1051000000F000B830BCBDE8C08F00002DE9F04FC2
:105110008AB0002B7AD04FF00008002706E000BFCD
:10512000009F01370FFA87F898456FDA00971A9FAA
:10513000002FF5D000270026019606E0019F1A9E59
:10514000013701973FB2B742EADA199E002EF5D037
:10515000189E169D7E43751B149E0FFA85FB2E44E8
:105160000996199E02957743002400250397CDF8F0
:1051700010B011E06FF08009039F059E069D374433
:105180000135199E2CB207FB0387B4421C9EDDF843
:1051900010B006F80790D1DA099FCDE905455F45C3
:1051A000E8DD179F159E6743BE1B139F34B2079619
:1051B00006EB070A029E6FF08009089407E000BF23
:1051C0000136099F0FFA86FB089C5F45D4DDA24596
:1051D000F6DDDDF81CC00BFB01F705E00CF1010C5E
:1051E0000FFA8CF4A245EBDD8C42B8BF9345F5DA9B
:1051F0004CEA060E0FFA8EF5002DEFD4E51905FBEB
:1052000003854557A945B8BFA946E7E70AB000F0AE
:1052100000B830BCBDE8C08F40F20044C4F60004C2
:10522000FBF762F9B420FCF781FAFCF705F9FCF70B
:105230002FF94FF47A70FBF74FF820468021FBF7E7
:1052400031F94FF4FA70FBF747F820468021FBF75D
:1052500029F94FF47A70FBF73FF840F20805C2F2E3
:105260000005287838B940F25C00C2F200000068FE
:105270000021FBF7E5FF287810B10020FBF792FF33
:105280004FF47A70FBF728F820468021FBF70AF9E3
:105290004FF4FA70FBF720F820468021FBF702F963
:1052A0004FF47A70FBF718F8FBF784FE4FF4804058
:1052B0000221FBF7C7F9FBF76FFEF5E7B0B5016A0E
:1052C00004460868C068457CC86000F0CFFE02460E
:1052D0000020294600F0EAF9D4E90821C860D16825
:1052E00000F098FE606950B1616A007AC968896807
:1052F0000968FCF78FFB616AC96889680860206AE1
:1053000094F84220C068012A406801880DD1E28EDD
:10531000636A1144DB68013991FBF2F259680A8033
:105320004388228F1344013B0EE0228E636A891A60
:10533000E28EDB68114491FBF2F259680A804388DF
:10534000658E228F5B1B134493FBF2F24A808288A6
:1053500000208A80B0BD00002DE9F04F8BB0416A7B
:10536000D1F80CE09EF81110012903D14FF0010C87
:10537000012504E0DEF80410B1F802C00D88016ACE
:10538000CC68636859881A88914218D1DEF80460A5
:10539000B6F802803688B04511D1D4F800C09A889A
:1053A000438EC48F008FDEF800600025CDE90040F9
:1053B0006046CDE902850496FEF708F91DE00A95DE
:1053C000B0F83280068EC78F858FB0F838A0B0F85D
:1053D00036B0DEF80000D4F8009000249B88CDE9B8
:1053E0000840CDE9027504A80A9F80E8001C4846E1
:1053F000CDE900860797FFF789FE00200BB000F08B
:1054000000B830BCBDE8C08F10B58AB00446007B40
:1054100094F90830012813D108A801211A46FFF792
:10542000EBFB94F90A2006A8012100F0EDFD94F8A9
:1054300004C00898BDF82410069ABDF81C3014E08A
:1054400094F9092004A81946FFF7D6FB94F90A102D
:1054500094F90B2002A800F0D7FD94F804C004983A
:10546000BDF81410029ABDF80C30CDF800C0FCF75E
:1054700041F8002818BF84610AB010BD00F118017E
:105480000020082251F80C3F013A1844FAD1704725
:10549000024608464A617047B0B551B105460068FA
:1054A0000C46FFF799FA38B1216A406A016008603A
:1054B00003E0F92040B2B0BD2C60002040B2B0BD86
:1054C000B0B582B00446012001904FF0FF002CB32C
:1054D0000D4619B3256062601AB92846FFF77CFAB9
:1054E000606004F1200201AB28462946FEF738FC33
:1054F0002046FFF7C3FF00F011F970B101462046C6
:10550000FEF7C0FB204600F0B9FD204600F066FD26
:10551000204600F08FF8002000E0F92040B202B0F1
:10552000B0BD0000002808BF7047B0B50446006851
:1055300030B100BF0568FFF765FB002D2846F9D1A3
:10554000206A00F01BFE94F8850018B1204600F098
:1055500015FE03E020468821FAF773FE40F6E4507A
:10556000C2F2000000210160BDE8B04070470000B9
:1055700070B5044600284FF000000FD00D460029FA
:1055800008BF70BD686AFCF76DFA216A06460846D6
:10559000FCF77AFA696A30600160204670BD00004D
:1055A00080B513460A46022100F002F880BD0000D3
:1055B00082B0B0B582B00692079378B10D4604462A
:1055C00006A8012901900ADB0198011D01910168DB
:1055D0002046FFF7CDFF013DF6D100E00024204634
:1055E00002B0BDE8B04002B07047000080B50021B5
:1055F00000F002F880BD000070B5A8B1066804464E
:1056000096B10D463046FFF71FFB58B9E2691AB153
:1056100020463146904728B9AE4208D03668002E61
:10562000F0D1002040B270BDFF2040B270BD00201C
:1056300040B270BD03680021002200BF43B1D3F81F
:1056400028C01B6811EB0C0142F10002002BF5D1C0
:10565000C0F880107047000010B520B188210446C2
:10566000FAF7EFFD06E0882000F058F80446012024
:1056700084F8850045F29940C0F6000045F271516A
:1056800045F2A15245F2B15345F2914C04F1080E96
:10569000C0F60001C0F60002C0F60003C0F6000C20
:1056A0008EE80F002046C4F818C010BD70B504463F
:1056B0000D4618B1012C18D1960000E004261420E4
:1056C000042100F015F800EB450000EB460000F067
:1056D00025F850B1690000F1140211448B19C0E99A
:1056E0000121C3604574047470BD002070BD0000CA
:1056F000B0FBF1F202FB1102891A002A18BF08441C
:1057000070470000002804BF0020704701460020B9
:10571000496801300029FBD170470000B0B5042171
:10572000FFF7E6FF044600F051FD054650B140F694
:10573000E450C2F20000016821440160284621467D
:10574000FAF77FFD2846B0BDF0B581B040F2931066
:10575000FEF7ACFA40F6E854C2F200042046FFF728
:105760007BFF4EF65C40C0F60300FFF79DF905464F
:105770004EF62C20E668C0F60300FEF77FFF2946B0
:10578000B047A7690646FCF74DF93146B8470646CB
:105790004EF69450E768C0F60300FFF735FE314639
:1057A000B84706464EF22C70E768C0F60300FEF7D5
:1057B00065FF3146B847A7690646FCF733F931461D
:1057C000B84706464EF69440E768C0F60300FFF778
:1057D0001BFE3146B84706464EF67C00E768C0F629
:1057E0000300FEF74BFF3146B847A7690646FCF7B2
:1057F00019F93146B84706464EF60450E768C0F638
:105800000300FFF701FE3146B84706464EF6B410D6
:10581000E768C0F60300FEF731FF3146B847A769D5
:105820000646FCF7FFF83146B84706464EF6745078
:10583000E768C0F60300FFF7E7FD3146B8470646C4
:105840004EF6E410E768C0F60300FEF717FF314696
:10585000B847A7690646FCF7E5F83146B84706465B
:105860004EF68450E768C0F60300FFF7CDFD3146E1
:10587000B84706464EF64040E768C0F60300FFF71B
:10588000E7F83146B84706464EF67C30E768C0F682
:105890000300FFF75BF83146B84706464EF6046052
:1058A000E768C0F6030000F03DFB3146B84702460A
:1058B00020462946FFF704FE01B0F0BDF0B581B0E7
:1058C00040F29310FEF7F2F940F67064C2F2000461
:1058D0002046FFF7C1FE4EF66440C0F60300FFF716
:1058E000E3F805464EF65420E668C0F60300FEF7DE
:1058F000C5FE2946B047A7690646FCF793F831462E
:10590000B84706464EF6A450E768C0F60300FFF716
:105910007BFD3146B84706464EF25470E768C0F644
:105920000300FEF7ABFE3146B847A7690646FCF711
:1059300079F83146B84706464EF6A440E768C0F607
:105940000300FFF761FD3146B84706464EF6A40056
:10595000E768C0F60300FEF791FE3146B847A76935
:105960000646FCF75FF83146B84706464EF6145037
:10597000E768C0F60300FFF747FD3146B847064623
:105980004EF64440E768C0F60300FFF761F8314681
:10599000B84706464EF69430E768C0F60300FEF7B7
:1059A000D5FF3146B84706464EF60C60E768C0F6AC
:1059B000030000F0B7FA3146B847024620462946B0
:1059C000FFF77EFD01B0F0BDF0B581B040F293105D
:1059D000FEF76CF940F6F864C2F200042046FFF7C7
:1059E0003BFE4EF66C40C0F60300FFF75DF805463F
:1059F0004EF67C20E668C0F60300FEF73FFE29461F
:105A0000B047A7690646FCF70DF83146B847064689
:105A10004EF6B450E768C0F60300FFF7F5FC3146D8
:105A2000B84706464EF27C70E768C0F60300FEF702
:105A300025FE3146B847A7690646FBF7F3FF314616
:105A4000B84706464EF6B440E768C0F60300FFF7D5
:105A5000DBFC3146B84706464EF6CC00E768C0F698
:105A60000300FEF70BFE3146B847A7690646FBF771
:105A7000D9FF3146B84706464EF62450E768C0F6CF
:105A80000300FFF7C1FC3146B84706464EF64840D2
:105A9000E768C0F60300FEF7DBFF3146B84706466D
:105AA0004EF6AC30E768C0F60300FEF74FFF314614
:105AB000B84706464EF61460E768C0F6030000F0EB
:105AC00031FA3146B847024620462946FFF7F8FC2E
:105AD00001B0F0BDF0B581B040F29310FEF7E6F8EA
